:020000040800F2
:1000000000400020D5D60008C9390008D5390008BD
:10001000DD390008E5390008ED390008000000006E
:10002000000000000000000000000000F53900089A
:10003000013A0008000000000D3A0008193A0008D3
:1000400025D7000825D7000825D70008253A00083D
:1000500025D7000825D7000825D7000825D7000890
:1000600025D7000825D7000825D7000825D7000880
:10007000553A000825D7000825D7000825D70008DD
:1000800025D7000825D7000825D7000825D7000860
:1000900025D7000825D7000825D7000825D7000850
:1000A00025D7000825D7000825D7000825D7000840
:1000B0002D3B000825D7000825D7000825D70008C4
:1000C00025D7000825D7000825D7000825D7000820
:1000D00025D7000825D7000825D7000825D7000810
:1000E00025D7000825D7000825D7000825D7000800
:1000F00025D700080000000025D7000825D70008F4
:10010000000000000000000025D7000825D70008E7
:1001100025D7000825D7000825D7000825D70008CF
:1001200025D70008000000000000000000000000CB
:0C01300000000000000000005FF808F173
:10013C0010B5054C237833B9044B13B10448AFF315
:10014C0000800123237010BD8004002000000000FB
:10015C003C01000808B5064B1BB106480649AFF335
:10016C0000800648036813B1054B03B1984708BDDE
:10017C00000000003C0100088404002080040020E2
:10018C000000000080B483B000AF78607B681A7800
:10019C000F4B1A707B685A780D4B5A707B689A78A3
:1001AC000B4B9A707B68DA78094BDA707B685A686B
:1001BC00074B5A607B689A68054B9A607B68DA68D3
:1001CC00034BDA600C37BD465DF8047B704700BF0B
:1001DC003409002080B584B000AF02460B46FA719A
:1001EC00BB710023FB730EE0FB795BB2002B02DAD0
:1001FC0001F0DCFB01E001F0EDFBFB795B00FB7136
:10020C00FB7B0133FB73FA7BBB799A42ECD310373F
:10021C00BD4680BD80B584B000AFF880B980FA705F
:10022C00BB700023FB7316E0FB785BB2002B0CDA7F
:10023C00FB7B9AB2FB88134499B20A4B1B88BA8891
:10024C00084611461A4602F039F9FB785B00FB7040
:10025C00FB7B0133FB73FA7BBB789A42E4D31037F8
:10026C00BD4680BD4E09002090B587B000AFF86048
:10027C00B9607A603B6000237B82FB6898B2BB68F4
:10028C0099B2FB689AB2BB6A9BB213449BB2013B16
:10029C009AB2BB689CB23B689BB223449BB2013BB5
:1002AC009BB202F09FF826484FF4805105F076F986
:1002BC0023484FF4806105F063F90023FB7533E0AC
:1002CC000023BB7500237B7527E07B8A5A1C7A823E
:1002DC007A6813441B787B747B7D0133DA00BB6A2C
:1002EC009A4205DC7B7C18460821FFF773FF0EE071
:1002FC007B7D1A465201D31ADB00DAB2BB6ADBB241
:10030C001344DBB27A7C10461946FFF763FFBB7DC2
:10031C000833BB757B7D01337B75BA7DBB6A9A4212
:10032C00D3DBFB7D0133FB75FA7D3B689A42C7DB5F
:10033C0003484FF4805105F023F91C37BD4690BD9E
:10034C000004024080B588B000AFF860B9607A60F4
:10035C003B6000237B83FB683B83BB68FB820023F1
:10036C00FB774BE00023BB7700237B773FE07B8B55
:10037C005A1C7A837A6813441B787B757B7F013314
:10038C00DA00BB6A9A4213DCBB7F9AB2FB689BB261
:10039C00134499B2FB7F9AB2BB689BB213449AB2D6
:1003AC007B7D084611461A460823FFF733FF18E0F9
:1003BC00BB7F9AB2FB689BB2134498B2FB7F9AB294
:1003CC00BB689BB2134499B27B7F1A465201D31A75
:1003DC00DB00DAB2BB6ADBB21344DBB27A7DFFF727
:1003EC0019FFBB7F0833BB777B7F01337B77BA7FE9
:1003FC00BB6A9A42BBDBFB7F0133FB77FA7F3B681E
:10040C009A42AFDB2037BD4680BD00BF90B58BB0A4
:10041C0002AFF860B9607A603B603E4B5B787B77EB
:10042C003C4B9B68BB61386801F050FA386B01F0AB
:10043C0085FA384B1B78FB75364B9B78BB75354B67
:10044C00DB787B7558E07B681B78202B26D9314BE9
:10045C005A687B681B7819467B7FCB1A9B00134428
:10046C001B783B752B4B5A687B681B7819467B7F36
:10047C00CB1A9B0013445B88FB83FB8BBA691A4431
:10048C00FB7D397D0091F868B968FFF7EDFE3A7D88
:10049C00FB681A44BB7D1344FB602AE0FB6898B2EE
:1004AC00BB6899B27B7D9AB2FB689BB213449BB23A
:1004BC00013B9AB2FB7D9CB2BB689BB223449BB2BE
:1004CC00013B9BB201F08EFF0023FB8306E001F0A1
:1004DC0081FA01F07FFAFB8B0133FB83FA8B7B7D76
:1004EC00F97D01FB03F39A42F1DB7B7DFA6813443F
:1004FC00FB607B6801337B607B681B78002BA2D18F
:10050C00054BFA681A60054BBA681A602437BD4669
:10051C0090BD00BF34090020300900202C090020B8
:10052C0080B58AB002AFF860B9607A603B60294B45
:10053C005B78FB77274B9B68BB61386801F0C6F989
:10054C00244B1B78FB75234B9B78BB75214BDB78BD
:10055C007B7531E07B681B78202B26D91D4B5A68A4
:10056C007B681B781946FB7FCB1A9B0013441B78C6
:10057C003B75184B5A687B681B781946FB7FCB1A66
:10058C009B0013445B887B827B8ABA691A44FB7D8F
:10059C00397D0091F868B968FFF7D4FE3A7DFB68A5
:1005AC001A44BB7D1344FB6003E07B7DFA68134463
:1005BC00FB607B6801337B607B681B78002BC9D1A7
:1005CC00054BFA681A60054BBA681A602037BD46AD
:1005DC0080BD00BF34090020300900202C09002008
:1005EC0080B586B002AFF860B9607A603B60084BAA
:1005FC00DB68002B08D1BB690093F868B9687A688E
:10060C003B68FFF703FF00E000BF1037BD4680BD1D
:10061C003409002080B584B000AFF860B9607A600E
:10062C003B60074BDB68002B06D1F868B9687A6829
:10063C003B68FFF775FF00E000BF1037BD4680BD7B
:10064C003409002090B58BB002AFF860B9607A60C5
:10065C003B603D4B5B787B773B4B9B68BB61386861
:10066C0001F034F9386B01F069F9374B1B78FB75E5
:10067C00354B9B78BB75344BDB787B7555E03B7DFC
:10068C00202B22D9304B5A68397D7B7FCB1A9B00AB
:10069C0013441B78FB742C4B5A68397D7B7FCB1A27
:1006AC009B0013445B88FB83FB8BBA691A44FB7D6C
:1006BC00F97C0091F868B968FFF7D6FDFA7CFB6805
:1006CC001A44BB7D1344FB602CE0FB6898B2BB68FA
:1006DC0099B27B7D9AB2FB689BB213449BB2013BEF
:1006EC009AB2FB7D9CB2BB689BB223449BB2013B8C
:1006FC009BB201F04FFE0023FB8308E001F06AF986
:10070C0001F068F901F066F9FB8B0133FB83FA8B7E
:10071C007B7DF97D01FB03F39A42EFDB7B7DFA686D
:10072C001344FB607B6801337B607B683B753B7DCE
:10073C00002BA4D1054BFA681A60054BBA681A60F5
:10074C002437BD4690BD00BF34090020300900207D
:10075C002C09002080B487B000AF786000237B6147
:10076C001A4B5B78FB74194B1B78BB74174B9B783B
:10077C007B74164BDB783B741CE07B681B78202B5E
:10078C0011D9124B5A687B681B781946FB7CCB1A23
:10079C009B0013441B78FB73FA7B7B691A447B7CAC
:1007AC0013447B6103E03B7C7A6913447B617B6877
:1007BC0001337B607B681B78002BDED17B6918468C
:1007CC001C37BD465DF8047B704700BF3409002020
:1007DC0080B487B000AF786000237B61194B5B78E5
:1007EC00FB74184B1B78BB74164B9B787B74154BA6
:1007FC00DB783B7419E0FB7B202B0FD9114B5A682B
:10080C00F97BFB7CCB1A9B0013441B78BB73BA7B24
:10081C007B691A447B7C13447B6103E03B7C7A69E3
:10082C0013447B617B6801337B607B68FB73FB7BD0
:10083C00002BE0D17B6918461C37BD465DF8047B64
:10084C00704700BF3409002080B586B002AFF86055
:10085C00B9607A603B600B4B1B68BA681344BB6091
:10086C00094BDB68002B08D1BB690093F868B968A9
:10087C007A683B68FFF7E6FE00E000BF1037BD4624
:10088C0080BD00BF280900203409002080B485B049
:10089C0000AF0346FB80FB8803F01F03FB81FB8842
:1008AC005B099BB203F03F03BB81FB88DB0A7B81B6
:1008BC00FB89DB029AB2BB895B019BB213449AB2EF
:1008CC007B8913443B813B8918461437BD465DF840
:1008DC00047B704780B584B000AFF880B9807A8013
:1008EC003B800023FB817B88BB817A881346DB0726
:1008FC009B1A5B000333BB6087E0FA88FB891344C7
:10090C0099B2BA88BB8913449AB23B8808461146FF
:10091C001A4601F0D3FDFA88FB89D31A99B2BA882A
:10092C00BB8913449AB23B88084611461A4601F01B
:10093C00C5FDFA88FB89134499B2BA88BB89D31ACE
:10094C009AB23B88084611461A4601F0B7FDFA8860
:10095C00FB89D31A99B2BA88BB89D31A9AB23B884D
:10096C00084611461A4601F0A9FDFA88BB891344C2
:10097C0099B2BA88FB8913449AB23B88084611464F
:10098C001A4601F09BFDFA88BB89D31A99B2BA8832
:10099C00FB8913449AB23B88084611461A4601F06B
:1009AC008DFDFA88BB89134499B2BA88FB89D31A96
:1009BC009AB23B88084611461A4601F07FFDFA8828
:1009CC00BB89D31A99B2BA88FB89D31A9AB23B88DD
:1009DC00084611461A4601F071FDBB68002B06DA79
:1009EC00FB899A00BB6813440633BB600AE0FA89A2
:1009FC00BB89D31A9A00BB6813440A33BB60BB890A
:100A0C00013BBB81FB890133FB81FA89BB899A428B
:100A1C00FFF473AFFA89BB899A426FD1FA88FB89CC
:100A2C00134499B2BA88BB8913449AB23B880846DE
:100A3C0011461A4601F042FDFA88FB89134499B21B
:100A4C00BA88BB8913449AB23B88084611461A46A9
:100A5C0001F034FDFA88FB89134499B2BA88BB893A
:100A6C00D31A9AB23B88084611461A4601F026FD65
:100A7C00FA88FB89D31A99B2BA88BB89D31A9AB26D
:100A8C003B88084611461A4601F018FDFA88BB89C6
:100A9C00134499B2BA88FB8913449AB23B8808462E
:100AAC0011461A4601F00AFDFA88BB89D31A99B28D
:100ABC00BA88FB8913449AB23B88084611461A46F9
:100ACC0001F0FCFCFA88BB89134499B2BA88FB8903
:100ADC00D31A9AB23B88084611461A4601F0EEFC2E
:100AEC00FA88BB89D31A99B2BA88FB89D31A9AB2FD
:100AFC003B88084611461A4601F0E0FC1037BD460B
:100B0C0080BD00BF80B58AB000AFF880B9807A8014
:100B1C003B80FA88BB881046194601F0A7FC7A88FE
:100B2C00FB88D31A7B623A88BB88D31A3B627B6AF8
:100B3C00002B02DB0123FB6105E04FF0FF33FB616F
:100B4C007B6A5B427B623B6A002B02DB0123BB614D
:100B5C0005E04FF0FF33BB613B6A5B423B627B6A53
:100B6C005B00FB603B6A5B00BB607A6A3B6A9A4243
:100B7C002BDDBA687B6AD31A7B6100233B611FE0D3
:100B8C00F988BA883B8E084611461A4601F096FC45
:100B9C007B69002B08DB7A69FB68D31A7B61BB6924
:100BAC009AB2BB881344BB807A69BB6813447B61DF
:100BBC00FB699AB2FB881344FB803B6901333B61B0
:100BCC003A697B6A9A42DBDD2AE0FA683B6AD31AFF
:100BDC007B6100233B611FE0F988BA883B8E084695
:100BEC0011461A4601F06AFC7B69002B08DB7A6916
:100BFC00BB68D31A7B61FB699AB2FB881344FB80F8
:100C0C007A69FB6813447B61BB699AB2BB88134455
:100C1C00BB803B6901333B613A693B6A9A42DBDD3D
:100C2C002837BD4680BD00BF90B585B002AFF880B7
:100C3C00B9807A803B80FA887B8813449AB2F88812
:100C4C00B988BB884EF67D740094FFF75BFFFA8879
:100C5C007B8813449BB2013B98B2BB88013399B299
:100C6C00FA887B8813449BB2013B9AB2BC883B88C0
:100C7C0023449BB201339BB242F665140094FFF7F8
:100C8C0041FFBA883B88134499B2FA887B88134495
:100C9C009AB2B8883B8803449BB2F88842F6651434
:100CAC000094FFF72FFFBA883B8813449BB2F88857
:100CBC00B988FA884EF67D740094FFF723FFFB8801
:100CCC00013398B2BB88013399B2FA887B881344FC
:100CDC009BB2013B9AB2BC883B8823449BB2013B3C
:100CEC009BB23C8B0094FFF70DFF0C37BD4690BDBB
:100CFC0090B585B002AFF880B9807A803B803B7E9E
:100D0C00002B43D1FA887B8813449AB2F888B988AF
:100D1C00BB884EF67D740094FFF7F4FEFA887B884E
:100D2C0013449BB2013B98B2BB88013399B2FA8849
:100D3C007B8813449BB2013B9AB2BC883B8823440A
:100D4C009BB201339BB242F665140094FFF7DAFEB6
:100D5C00BA883B88134499B2FA887B8813449AB2B8
:100D6C00B8883B8803449BB2F88842F6651400941B
:100D7C00FFF7C8FEBA883B8813449BB2F888B98841
:100D8C00FA884EF67D740094FFF7BCFE3B7E012B77
:100D9C0043D1FA887B8813449AB2F888B988BB8807
:100DAC0042F665140094FFF7ADFEFA887B88134475
:100DBC009BB2013B98B2BB88013399B2FA887B880D
:100DCC0013449BB2013B9AB2BC883B8823449BB230
:100DDC0001339BB24EF67D740094FFF793FEBA88F4
:100DEC003B88134499B2FA887B8813449AB2B8882A
:100DFC003B8803449BB2F8884EF67D740094FFF751
:100E0C0081FEBA883B8813449BB2F888B988FA886B
:100E1C0042F665140094FFF775FE3B7E022B43D11E
:100E2C00FA887B8813449AB2F888B988BB884FF645
:100E3C00FF740094FFF766FEFA887B8813449BB21C
:100E4C00013B98B2BB88013399B2FA887B88134472
:100E5C009BB2013B9AB2BC883B8823449BB20133C2
:100E6C009BB24FF6FF740094FFF74CFEBA883B8898
:100E7C00134499B2FA887B8813449AB2B8883B8899
:100E8C0003449BB2F8884FF6FF740094FFF73AFEC8
:100E9C00BA883B8813449BB2F888B988FA884FF615
:100EAC00FF740094FFF72EFE0C37BD4690BD00BFBB
:100EBC0090B585B002AFF880B9807A803B80F88815
:100ECC00B9887A88BB8844F208240094FFF71AFE8C
:100EDC00FB88013398B2BB88013399B2BB880133CC
:100EEC009BB27A8848F210440094FFF70BFEF88806
:100EFC00B988FA883B8844F208240094FFF702FE74
:100F0C00FB88013398B2BB88013399B2FB8801335B
:100F1C009AB23B8848F210440094FFF7F3FDF8882E
:100F2C0039887A883B884FF6FF740094FFF7EAFD06
:100F3C007888B9887A883B884FF6FF740094FFF75D
:100F4C00E1FD0C37BD4690BD90B585B002AFF88081
:100F5C00B9807A803B80F888B9887A88BB884FF64C
:100F6C00FF740094FFF7CEFDF888B988FA883B88A7
:100F7C004FF6FF740094FFF7C5FDFB88013398B260
:100F8C003B88013B99B23B88013B9BB27A8848F283
:100F9C0010440094FFF7B6FDF88839887A883B88AE
:100FAC0044F208240094FFF7ADFD7B88013B98B216
:100FBC00BB88013399B27B88013B9AB23B8848F2DB
:100FCC0010440094FFF79EFD7888B9887A883B8896
:100FDC0044F208240094FFF795FD0C37BD4690BDF4
:100FEC0080B584B000AFF880B9807A803B80FB88F4
:100FFC007B8123E1BB691B78DBB25BB2002B60DB2E
:10100C00BB691B78BB81BB890D2B05D17B89FB8010
:10101C00BB881033BB8050E0BB89202B03D9BB8924
:10102C00203BBB8101E00023BB810023FB733EE02E
:10103C000023BB7335E0BB891A01FB7B1344834A45
:10104C00D35C1A46BB7B802141FA03F31340002B7F
:10105C0010D0BB7B9AB2FB88134499B2FB7B9AB23B
:10106C00BB8813449AB27B88084611461A4601F095
:10107C0025FA13E07A883B889A420FD0BB7B9AB250
:10108C00FB88134499B2FB7B9AB2BB8813449AB287
:10109C003B88084611461A4601F010FABB7B013317
:1010AC00BB73BB7B072BC6D9FB7B0133FB73FB7B71
:1010BC000F2BBDD9FB880833FB80BB690133BB61A7
:1010CC00BCE00023BB81AFE0BA89614913461B0128
:1010DC0013445B000B441A78BB691B789A4240F0AE
:1010EC00A080BA895A4913461B0113445B000B4478
:1010FC0001331A78BB6901331B789A4240F0918016
:10110C000023FB7389E00023BB733AE0BA89FB7BB5
:10111C0058004F4913461B0113445B0003440B4416
:10112C009B781A46BB7B802141FA03F31340002BBA
:10113C0010D0BB7B9AB2FB88134499B2FB7B9AB25A
:10114C00BB8813449AB27B88084611461A4601F0B4
:10115C00B5F913E07A883B889A420FD0BB7B9AB2E0
:10116C00FB88134499B2FB7B9AB2BB8813449AB2A6
:10117C003B88084611461A4601F0A0F9BB7B0133A7
:10118C00BB73BB7B072BC1D90023BB733FE0BA8970
:10119C00FB7B5B00581C2E4913461B0113445B0060
:1011AC0003440B449B781A46BB7B802141FA03F322
:1011BC001340002B12D0BB7B9AB2FB8813449BB21A
:1011CC00083399B2FB7B9AB2BB8813449AB27B88E2
:1011DC00084611461A4601F071F915E07A883B88E9
:1011EC009A4211D0BB7B9AB2FB8813449BB2083352
:1011FC0099B2FB7B9AB2BB8813449AB23B880846DF
:10120C0011461A4601F05AF9BB7B0133BB73BB7B09
:10121C00072BBCD9FB7B0133FB73FB7B0F2B7FF6BE
:10122C0072AFBB890133BB81BB89312B7FF64CAFCD
:10123C00BB690233BB61FB881033FB80BB691B7835
:10124C00002B7FF4D7AE1037BD4680BD44A40108F7
:10125C003CB2010880B584B000AFF880B9807A80C8
:10126C003B8065E1BB691B78DBB25BB2002B57DBC3
:10127C00BB691B78BB81BB89202B03D9BB89203B65
:10128C00BB8101E00023BB810023FB733EE0002304
:10129C00BB7335E0BB891A01FB7B13448A4AD35CD0
:1012AC001A46BB7B802141FA03F31340002B10D06C
:1012BC00BB7B9AB2FB88134499B2FB7B9AB2BB8876
:1012CC0013449AB27B88084611461A4601F0F6F888
:1012DC0013E07A883B889A420FD0BB7B9AB2FB888A
:1012EC00134499B2FB7B9AB2BB8813449AB23B88E5
:1012FC00084611461A4601F0E1F8BB7B0133BB737B
:10130C00BB7B072BC6D9FB7B0133FB73FB7B0F2B02
:10131C00BDD9BB690133BB61FB880833FB8007E196
:10132C000023BB81FAE0BB89684A4A2101FB03F325
:10133C0013441A78BB691B789A4240F0EC80BB8945
:10134C00624A4A2101FB03F3134401331A78BB6947
:10135C0001331B789A4240F0DE800023FB73D6E009
:10136C000023BB733BE0B989FA7B13465B00134443
:10137C00564A4A2000FB01F10B4413449B781A4651
:10138C00BB7B802141FA03F31340002B10D0BB7BB5
:10139C009AB2FB88134499B2FB7B9AB2BB88134474
:1013AC009AB27B88084611461A4601F087F813E07A
:1013BC007A883B889A420FD0BB7B9AB2FB88134445
:1013CC0099B2FB7B9AB2BB8813449AB23B8808460D
:1013DC0011461A4601F072F8BB7B0133BB73BB7B21
:1013EC00072BC0D90023BB7340E0B989FA7B1346A5
:1013FC005B0013440133354A4A2000FB01F10B44D6
:10140C0013449B781A46BB7B802141FA03F31340AB
:10141C00002B12D0BB7B9AB2FB8813449BB20833CF
:10142C0099B2FB7B9AB2BB8813449AB27B8808466C
:10143C0011461A4601F042F815E07A883B889A4228
:10144C0011D0BB7B9AB2FB8813449BB2083399B280
:10145C00FB7B9AB2BB8813449AB23B880846114670
:10146C001A4601F02BF8BB7B0133BB73BB7B072BFC
:10147C00BBD90023BB7344E0B989FA7B13465B00EC
:10148C0013440233114A4A2000FB01F10B4413446C
:10149C009B781A46BB7B802141FA03F31340002B47
:1014AC0016D0BB7B9AB2FB8813449BB2103399B213
:1014BC00FB7B9AB2BB8813449AB27B8808461146D0
:1014CC001A4600F0FBFF19E044A4010848B90108D2
:1014DC007A883B889A4211D0BB7B9AB2FB88134422
:1014EC009BB2103399B2FB7B9AB2BB8813449AB26D
:1014FC003B88084611461A4600F0E0FFBB7B0133DF
:10150C00BB73BB7B072BB7D9FB7B0133FB73FB7B1B
:10151C00172B7FF625AFBB890133BB81BB89132BFE
:10152C007FF601AFBB690233BB61FB881833FB80CC
:10153C00BB691B78002B7FF495AE1037BD4680BD80
:10154C0080B584B000AFF880B9807A803B8009E127
:10155C00BB691B78DBB25BB2002B42DBBB691B782F
:10156C00BB81BB89202B03D9BB89203BBB8101E00C
:10157C000023BB810023FB7329E00023BB7320E015
:10158C00BB891A01FB7B13447A4AD35C1A46BB7B9A
:10159C00802141FA03F31340002B0FD0BB7B9AB28E
:1015AC00FB88134499B2FB7B9AB2BB8813449AB262
:1015BC007B88084611461A4600F080FFBB7B01333E
:1015CC00BB73BB7B072BDBD9FB7B0133FB73FB7B37
:1015DC000F2BD2D9BB690133BB61FB880833FB806D
:1015EC00C0E00023BB81B3E0BB89634A4A2101FB05
:1015FC0003F313441A78BB691B789A4240F0A58018
:10160C00BB895D4A4A2101FB03F3134401331A7869
:10161C00BB6901331B789A4240F097800023FB731F
:10162C008FE00023BB7326E0B989FA7B13465B007D
:10163C001344514A4A2000FB01F10B4413449B789C
:10164C001A46BB7B802141FA03F31340002B0FD0C9
:10165C00BB7B9AB2FB88134499B2FB7B9AB2BB88D2
:10166C0013449AB27B88084611461A4600F026FFAE
:10167C00BB7B0133BB73BB7B072BD5D90023BB735F
:10168C0029E0B989FA7B13465B00134401333A4ACB
:10169C004A2000FB01F10B4413449B781A46BB7B98
:1016AC00802141FA03F31340002B11D0BB7B9AB27B
:1016BC00FB8813449BB2083399B2FB7B9AB2BB886C
:1016CC0013449AB27B88084611461A4600F0F6FE7F
:1016DC00BB7B0133BB73BB7B072BD2D90023BB7302
:1016EC0029E0B989FA7B13465B0013440233224A82
:1016FC004A2000FB01F10B4413449B781A46BB7B38
:10170C00802141FA03F31340002B11D0BB7B9AB21A
:10171C00FB8813449BB2103399B2FB7B9AB2BB8803
:10172C0013449AB27B88084611461A4600F0C6FE4E
:10173C00BB7B0133BB73BB7B072BD2D9FB7B013348
:10174C00FB73FB7B172B7FF66CAFBB890133BB8123
:10175C00BB89132B7FF648AFBB690233BB61FB8897
:10176C001833FB80BB691B78002B7FF4F1AE10376C
:10177C00BD4680BD44A4010848B9010880B584B0B9
:10178C0000AFF880B9807A803B800023FB7359E06E
:10179C000023BB7350E03B8BDB011A46FB7B9B00A9
:1017AC001A44BB7B1A442A4B13441B783B7300230B
:1017BC007B733BE03A7B7B7B802141FA03F3134044
:1017CC00002B16D0BB7B9BB2DB009AB2FB88134478
:1017DC009AB27B7B9BB2134499B2FB7B9AB2BB88C7
:1017EC0013449AB27B88084611461A4600F066FEEE
:1017FC0019E07A883B889A4215D0BB7B9BB2DB0000
:10180C009AB2FB8813449AB27B7B9BB2134499B275
:10181C00FB7B9AB2BB8813449AB23B8808461146AC
:10182C001A4600F04BFE7B7B01337B737B7B072BD3
:10183C00C0D9BB7B0133BB73BB7B032BABD9FB7B0D
:10184C000133FB73FB7B1F2BA2D91037BD4680BD28
:10185C0038AA010880B584B000AF13460246FA716D
:10186C000A46BA717B71FB791A04BB791B021A43C5
:10187C007B791343FB60F86801F094FB03469AB242
:10188C00024B1A801037BD4680BD00BF4E090020A8
:10189C0080B584B000AF13460246FA710A46BA719D
:1018AC007B71FB791A04BB791B021A437B791343B6
:1018BC00FB60F86801F076FB03469AB2024B1A8083
:1018CC001037BD4680BD00BF4609002080B584B0EE
:1018DC0000AF78607B681B0CDBB223F00103DAB23B
:1018EC00124B1A707B681B0ADBB223F00103DAB2CD
:1018FC000F4B1A707B68DBB223F00103DAB20D4B8D
:10190C001A700A4B1B781A04094B1B781B021A43DA
:10191C00084B1B781343FB60F86801F043FB03464C
:10192C009AB2054B1A801037BD4680BD4A0900207B
:10193C004C090020440900204E09002080B584B0D9
:10194C0000AF78607B681B0CDBB223F00103DAB2CA
:10195C00124B1A707B681B0ADBB223F00103DAB25C
:10196C000F4B1A707B68DBB223F00103DAB20D4B1C
:10197C001A700A4B1B781A04094B1B781B021A436A
:10198C00084B1B781343FB60F86801F00BFB034614
:10199C009AB2054B1A801037BD4680BD480900200D
:1019AC00490900204B0900204609002080B500AFF2
:1019BC00074B1B881B0A9BB2DBB2184600F0D2F90E
:1019CC00034B1B88DBB2184600F0CCF980BD00BF7E
:1019DC004E09002080B500AF074B1B881B0A9BB239
:1019EC00DBB2184600F0BEF9034B1B88DBB218467D
:1019FC0000F0B8F980BD00BF4609002090B58BB04F
:101A0C0000AFF860B9607A603B600023FB84FB6830
:101A1C0098B2BB6899B2FB689AB23B689BB213440C
:101A2C009BB2013B9AB2BB689CB2BB6B9BB223448A
:101A3C009BB2013B9BB200F0ADFC29E0FB8C5A1C25
:101A4C00FA847A6813441B783B62FB8C5A1CFA8428
:101A5C007A6813441B78FB61FB8C5A1CFA847A68F5
:101A6C0013441B78BB613B6A1A04FB691B021A43C3
:101A7C00BB6913437B613B6AD9B2FB69DAB2BB69C0
:101A8C00DBB2084611461A46FFF7E4FEFFF78EFF5D
:101A9C00F98C3B68BA6B02FB03F213465B001344F0
:101AAC009942CBDB2C37BD4690BD00BF80B584B0CE
:101ABC0000AF0346FB710823FB731EE013484FF481
:101ACC00005103F06BFDFB795BB2002B05DA0F487C
:101ADC004FF4004103F054FD04E00C484FF4004176
:101AEC0003F05CFDFB795B00FB7108484FF400517F
:101AFC0003F046FDFB7B013BFB73FB7B002BDDD135
:101B0C00BB7B18461037BD4680BD00BF00040240A9
:101B1C0080B582B000AF0220012104F039FA00BF79
:101B2C0004F0A6F803460C2BFAD14FF480400121A7
:101B3C0004F06AFA4FF400533B6002233B71032319
:101B4C007B710023BB710123FB713B461348194683
:101B5C0003F0F2FB4FF480433B603B460F481946C1
:101B6C0003F0EAFB4FF400433B603B460B4819463D
:101B7C0003F0E2FB4FF480533B6001233B710023E5
:101B8C00BB710123FB7103237B713B460348194650
:101B9C0003F0D2FB0837BD4680BD00BF00040240F5
:101BAC0080B483B000AF78600B46FB7000BF7B68DD
:101BBC001B899BB203F00203002BF8D0FB789AB27E
:101BCC007B689A8100BF7B681B899BB203F0010381
:101BDC00002BF8D07B689B899BB2DBB218460C3784
:101BEC00BD465DF8047B704780B483B000AF78606D
:101BFC000B46FB707B681B889BB223F038039AB2B0
:101C0C007B681A80FB78012B08D17B681B889BB200
:101C1C0043F010039AB27B681A8007E07B681B883C
:101C2C009BB243F020039AB27B681A807B681B88B6
:101C3C009BB243F040039AB27B681A800C37BD46C6
:101C4C005DF8047B704700BF80B588B000AF2B4BAC
:101C5C002A4AD26942F00202DA61284B274A526AB8
:101C6C0042F480425A62264B254A126842F02842BE
:101C7C001A60234B224A926842F07C429A60204BB5
:101C8C00204A5A621E4B1E4A126842F080721A6039
:101C9C001B4B1B4A926842F040729A60174B174AD2
:101CAC00926942F480429A610F2001F00DFB134BB4
:101CBC00124A926922F480429A610023BB814FF44C
:101CCC008273FB8100233B8202237B820123BB8234
:101CDC004FF40073FB8200233B8300237B83072399
:101CEC00BB8307F10C030848194605F083FD064831
:101CFC00012105F0A7FE2037BD4680BD003802400B
:101D0C0000040240000050550038004080B584B0FB
:101D1C0000AF0346FB710023FB7310484FF4805156
:101D2C0003F03CFC0D484FF4806103F037FC0023BA
:101D3C00FB7303E000BFFB7B0133FB73FB7B042BCA
:101D4C00F8D9FB7906481946FFF72AFF03484FF4E8
:101D5C00805103F015FC1037BD4680BD00040240D5
:101D6C000038004080B584B000AF0346FB710023FF
:101D7C00FB730B484FF4806103F002FC08484FF4EE
:101D8C00805103F00BFCFB7906481946FFF708FF5E
:101D9C0003484FF4805103F0F3FB1037BD4680BD70
:101DAC00000402400038004080B582B000AF02460B
:101DBC000B46FA71BB71FB791846FFF7D3FFBB7961
:101DCC001846FFF7CFFF0837BD4680BD80B582B0FF
:101DDC0000AF02460B46FA71BB71FB791846FFF750
:101DEC0095FFBB791846FFF791FF0837BD4680BDBC
:101DFC0080B500AF0748012103F0D0FB0A2001F0A9
:101E0C0063FA0448012103F0BBFB322001F05CFAB9
:101E1C0080BD00BF0004024080B584B000AF002339
:101E2C00FB720023FB600220012104F0B1F80123B6
:101E3C003B6001233B710023BB710123FB71032326
:101E4C007B713B46A048194603F076FA4FF4805359
:101E5C003B6001233B710023BB710123FB71032306
:101E6C007B713B469848194603F066FA4FF4806341
:101E7C003B6001233B710023BB710123FB710323E6
:101E8C007B713B469048194603F056FA8E48012167
:101E9C0003F076FB8C484FF4805103F071FB8A48B9
:101EAC004FF4806103F06CFBFFF7CEFEFFF7A0FF51
:101EBC000023FB6006E000F007FC0346FB72FB68A6
:101ECC000133FB60FB68022BF5DDCB20FFF71EFF17
:101EDC003920FFF747FF2C20FFF744FF0020FFF7C6
:101EEC0041FF3420FFF73EFF0220FFF73BFFCF20DE
:101EFC00FFF70CFF0020FFF735FFC120FFF732FF83
:101F0C003020FFF72FFFE820FFF700FF8520FFF7B9
:101F1C0029FF0020FFF726FF7820FFF723FFEA2098
:101F2C00FFF7F4FE0020FFF71DFF0020FFF71AFF5C
:101F3C00ED20FFF7EBFE6420FFF714FF0320FFF703
:101F4C0011FF1220FFF70EFF8120FFF70BFFF72088
:101F5C00FFF7DCFE2020FFF705FFC020FFF7D6FEC1
:101F6C002320FFF7FFFEC120FFF7D0FE1020FFF764
:101F7C00F9FEC520FFF7CAFE3E20FFF7F3FE28202E
:101F8C00FFF7F0FEC720FFF7C1FE8620FFF7EAFE41
:101F9C003620FFF7BBFEE820FFF7E4FE3A20FFF700
:101FAC00B5FE5520FFF7DEFEB120FFF7AFFE002097
:101FBC00FFF7D8FE1820FFF7D5FEB620FFF7A6FED8
:101FCC000820FFF7CFFE8220FFF7CCFE2720FFF77B
:101FDC00C9FEF220FFF79AFE0020FFF7C3FE262071
:101FEC00FFF794FE0120FFF7BDFEE020FFF78EFE09
:101FFC000F20FFF7B7FE3120FFF7B4FE2B20FFF7C1
:10200C00B1FE0C20FFF7AEFE0E20FFF7ABFE082052
:10201C00FFF7A8FE4E20FFF7A5FEF120FFF7A2FE6A
:10202C003720FFF79FFE0720FFF79CFE1020FFF7DD
:10203C0099FE0320FFF796FE0E20FFF793FE092072
:10204C00FFF790FE0020FFF78DFEE120FFF75EFE0C
:10205C000020FFF787FE0E20FFF784FE1420FFF709
:10206C0081FE0320FFF77EFE1120FFF77BFE072089
:10207C00FFF778FE3120FFF775FEC120FFF772FEE7
:10208C004820FFF76FFE0820FFF76CFE0F20FFF7CC
:10209C0069FE0C20FFF766FE3120FFF763FE362049
:1020AC00FFF760FE0F20FFF75DFE1120FFF72EFEFD
:1020BC00782001F009F92920FFF728FE2C20FFF7E2
:1020CC0025FE1037BD4680BD0004024080B584B0AB
:1020DC0000AF0023FB720023FB600220012103F000
:1020EC0057FF01233B6001233B710023BB7101238C
:1020FC00FB7103237B713B46A548194603F01CF981
:10210C004FF480533B6001233B710023BB710123CF
:10211C00FB7103237B713B469D48194603F00CF978
:10212C004FF480633B6001233B710023BB7101239F
:10213C00FB7103237B713B469548194603F0FCF871
:10214C009348012103F01CFA91484FF4805103F09D
:10215C0017FA8F484FF4806103F012FAFFF774FD01
:10216C00FFF746FE0023FB6006E000F0ADFA0346E5
:10217C00FB72FB680133FB60FB68022BF5DDEF2083
:10218C00FFF7C4FD0320FFF7EDFD8020FFF7EAFD0C
:10219C000220FFF7E7FDCF20FFF7B8FD0020FFF787
:1021AC00E1FDC120FFF7DEFD3020FFF7DBFDED2068
:1021BC00FFF7ACFD6420FFF7D5FD0320FFF7D2FD40
:1021CC001220FFF7CFFD8120FFF7CCFDE820FFF7B1
:1021DC009DFD8520FFF7C6FD0020FFF7C3FD78208D
:1021EC00FFF7C0FDCB20FFF791FD3920FFF7BAFDBB
:1021FC002C20FFF7B7FD0020FFF7B4FD3420FFF7CC
:10220C00B1FD0220FFF7AEFDF720FFF77FFD202088
:10221C00FFF7A8FDEA20FFF779FD0020FFF7A2FDEC
:10222C000020FFF79FFDC020FFF770FD2320FFF774
:10223C0099FDC120FFF76AFD1020FFF793FDC52023
:10224C00FFF764FD3E20FFF78DFD2820FFF78AFD88
:10225C00C720FFF75BFD8620FFF784FD3620FFF7D4
:10226C0055FDE820FFF77EFD3A20FFF74FFD552086
:10227C00FFF778FDB120FFF749FD0020FFF772FD55
:10228C001820FFF76FFDB620FFF740FD0820FFF781
:10229C0069FD8220FFF766FD2720FFF763FDF22022
:1022AC00FFF734FD0020FFF75DFD2620FFF72EFD24
:1022BC000120FFF757FDE020FFF728FD0F20FFF767
:1022CC0051FD3120FFF74EFD2B20FFF74BFD0C206D
:1022DC00FFF748FD0E20FFF745FD0820FFF742FDF4
:1022EC004E20FFF73FFDF120FFF73CFD3720FFF7B5
:1022FC0039FD0720FFF736FD1020FFF733FD0320D3
:10230C00FFF730FD0E20FFF72DFD0920FFF72AFD0A
:10231C000020FFF727FDE120FFF7F8FC0020FFF776
:10232C0021FD0E20FFF71EFD1420FFF71BFD0320DF
:10233C00FFF718FD1120FFF715FD0720FFF712FD21
:10234C003120FFF70FFDC120FFF70CFD4820FFF7F0
:10235C0009FD0820FFF706FD0F20FFF703FD0C20F9
:10236C00FFF700FD3120FFF7FDFC3620FFF7FAFCEC
:10237C000F20FFF7F7FC1120FFF7C8FC782000F0C6
:10238C00A3FF2920FFF7C2FC1037BD4680BD00BF5C
:10239C000004024080B582B000AFF880B9807A802A
:1023AC003B802A20FFF7B2FCFB881B0A9BB2DAB2F7
:1023BC00FB88DBB210461946FFF7F6FC2B20FFF723
:1023CC00A5FCBB881B0A9BB2DAB2BB88DBB21046F9
:1023DC001946FFF7E9FC2C20FFF798FC0837BD469F
:1023EC0080BD00BF80B582B000AFF880B9807A8024
:1023FC003B802A20FFF78AFCFB881B0A9BB2DBB2CE
:10240C001846FFF7AFFCFB88DBB21846FFF7AAFCB7
:10241C007B881B0A9BB2DBB21846FFF7A3FC7B88B8
:10242C00DBB21846FFF79EFC2B20FFF76FFCBB8836
:10243C001B0A9BB2DBB21846FFF794FCBB88DBB2DD
:10244C001846FFF78FFC3B881B0A9BB2DBB2184681
:10245C00FFF788FC3B88DBB21846FFF783FC2C2087
:10246C00FFF754FC0837BD4680BD00BF80B582B075
:10247C0000AF02460B46FA80BB802A20FFF746FCD1
:10248C00FB881B0A9BB2DAB2FB88DBB210461946FA
:10249C00FFF78AFC2B20FFF739FCBB881B0A9BB289
:1024AC00DAB2BB88DBB210461946FFF77DFC2C2054
:1024BC00FFF72CFC0837BD4680BD00BF80B582B04D
:1024CC0000AF13460246FA800A46BA807B80F88831
:1024DC00B988FA88BB88FFF75DFF7B881B0A9BB223
:1024EC00DBB21846FFF73EFC7B88DBB21846FFF7E1
:1024FC0039FC0837BD4680BD80B584B000AF0246BC
:10250C000B46FA80BB800023FB60FA88BB88104620
:10251C001946FFF7ABFFFB68DBB21846FFF722FC4E
:10252C00FB6818461037BD4680BD00BF80B584B02F
:10253C0000AF0346FB800020002140F2072240F24E
:10254C00B713FFF727FF1A484FF4805103F026F812
:10255C0017484FF4806103F013F80023FB601AE076
:10256C000023BB6010E0FB881B0A9BB2DBB2114856
:10257C001946FFF715FBFB88DBB20E481946FFF72F
:10258C000FFBBB680133BB60BB68B3F5027FEAD3BA
:10259C00FB680133FB60FB68B3F5DC7FE0D30448D8
:1025AC004FF4805102F0ECFF1037BD4680BD00BFE8
:1025BC00000402400038004090B585B000AFF880B0
:1025CC00B9807A803B80B7F90630B3F5A07F03DA87
:1025DC00B7F90430EF2B00DD5DE0B7F90620B7F951
:1025EC0002301344013BB3F5A07F04DBFB88C3F539
:1025FC00A0739BB27B80B7F90420B7F90030134469
:10260C00013BEF2B04DDBB88C3F1F0039BB23B8095
:10261C00F888B988FA887B8813449BB2013B9AB23C
:10262C00BC883B8823449BB2013B9BB2FFF7DAFE8C
:10263C003B8C1B0A9BB2FB733B8CBB7317484FF450
:10264C00805102F0ABFF15484FF4806102F098FF07
:10265C003B88BB8016E07B88FB800CE0FB7B104842
:10266C001946FFF79DFABB7B0D481946FFF798FA00
:10267C00FB88013BFB80B7F90630002BEEDCBB88F6
:10268C00013BBB80B7F90430002BE4DC03484FF46A
:10269C00805102F075FF1437BD4690BD0004024016
:1026AC000038004080B584B002AF0346FB80FB8845
:1026BC000093002000214FF4A072F023FFF77CFF61
:1026CC000837BD4680BD00BF90B585B000AF002374
:1026DC00FB73204A3B1D1188927819809A70012354
:1026EC00BB730023FB7321E0FC7BFB7B0133DBB270
:1026FC00D320194600F030F803461A4607F11003B0
:10270C00234403F8082CFB7B07F110010B4413F84E
:10271C00082CFB7B07F110010B4413F80C3C9A427C
:10272C0001D00023BB73FB7B0133FB73FB7B022BC0
:10273C00DAD9BB7B002B08D10023FB7302E0FB7BB7
:10274C000133FB73FB7B022BF9D9BB7B1846143787
:10275C00BD4690BDC8BE010880B584B000AF02462E
:10276C000B46FA71BB710023FB720023BB72D9209C
:10277C00FFF7CCFABB791033DBB21846FFF7F2FA4D
:10278C001E484FF4806102F009FF1C484FF4805141
:10279C0002F004FF0023FB6003E000BFFB68013381
:1027AC00FB60FB68042BF8DDFB7915481946FFF735
:1027BC00F7F90346BB7211484FF4806102F0E0FE5A
:1027CC000023FB6003E000BFFB680133FB60FB6888
:1027DC00012BF8DD0A4B9B899BB2BB720848002188
:1027EC0000F010F80346BB7204484FF4805102F01D
:1027FC00C7FEBB7A18461037BD4680BD00040240A8
:10280C000038004080B483B000AF78600B46FB709A
:10281C0000BF0E4B1B899BB203F08003002BF8D139
:10282C000A4BFA7892B29A8100BF084B1B899BB273
:10283C0003F00103002BF8D0044B9B899BB2DBB255
:10284C0018460C37BD465DF8047B704700380040D5
:10285C0080B584B000AF03463960FB80FB88BB6059
:10286C000023FB60FB685A1CFA603A68D018FA889F
:10287C00174BA3FB0213D9080B469B000B445B00C0
:10288C00D31A9BB2DBB23033DBB2DBB20370FA8803
:10289C000F4BA3FB0213DB08FB80FB88002BE1D161
:1028AC00BB68002B06DAFB685A1CFA603A681344C2
:1028BC002D221A70FB68012B04DCFB683A68134468
:1028CC0030221A70386800F005F81037BD4680BD0C
:1028DC00CDCCCCCC80B586B000AF786000237B61CA
:1028EC0078680AF043FF0346013B3B6117E07B69C4
:1028FC007A6813441B78FB737B697A6813443A69D2
:10290C0079680A4412781A703B697A681344FA7B26
:10291C001A707B6901337B613B69013B3B617A69CE
:10292C003B699A42E3DB1837BD4680BD80B586B063
:10293C0002AF02460B46FA80BB801E23FB81FA884D
:10294C00BB886FF07F41009110461946054A4FF441
:10295C007F03FDF745FEFA88FB891344FB80103793
:10296C00BD4680BDCCBE010880B58EB002AF0B4613
:10297C003A600246FA80BB800A23FB853B68DB7811
:10298C0087F82D303B685B7887F82C303B689B7858
:10299C0087F82B303B681B7887F82A3097F82D3056
:1029AC009BB203F5FA639AB207F124031046194659
:1029BC00FFF74EFF97F82C309AB207F11C03104624
:1029CC001946FFF745FF97F82B309AB207F114031D
:1029DC0010461946FFF73CFF0E48FDF7D3FBFA886B
:1029EC00BB8800210091104619460B4A6FF07F43BB
:1029FC00FDF7F6FDFA88BB882833002100911046BC
:102A0C001946064A6FF07F43FDF7EAFD3037BD46A5
:102A1C0080BD00BF34A40108D0BE0108DCBE010893
:102A2C0080B58CB002AF0B463A600246FA80BB8090
:102A3C002F2387F827300E23BB8421237B84372355
:102A4C003B843B681B78BB843B685B787B843B682E
:102A5C009B783B84BB8C1B099BB2DBB23033DBB263
:102A6C003B763B7E3B75BB8CDBB203F00F03DBB2DA
:102A7C003033DBB27B767B7E7B750023BB753B8C66
:102A8C0003F001039BB2002B02D03A23BB6001E0A0
:102A9C002023BB600023FB607B8C1B099BB2DBB249
:102AAC003033DBB2FB76FB7E3B747B8CDBB203F00A
:102ABC000F03DBB23033DBB23B773B7F7B740023FD
:102ACC007B770023BB743848FDF75CFB374B1B78D6
:102ADC00DBB2012B19D13B8C03F001039BB2002B11
:102AEC0013D0FA88BB886FF07F41009110461946CD
:102AFC002F4AFF23FDF774FD97F827309BB25B003C
:102B0C009AB2FB881344FB8014E0F988BA8807F169
:102B1C0014036FF07F400090084611461A46FF23BD
:102B2C00FDF75EFD97F827309BB25B009AB2FB88ED
:102B3C001344FB80F988BA8807F108036FF07F40D3
:102B4C000090084611461A46FF23FDF749FD97F8F9
:102B5C0027309AB2FB881344FB80144B1B78DBB2F2
:102B6C00022B11D13B8C03F001039BB2002B0BD039
:102B7C00FA88BB886FF07F410091104619460C4AC9
:102B8C00FF23FDF72DFD0CE0F988BA8807F110033F
:102B9C006FF07F400090084611461A46FF23FDF760
:102BAC001FFD2837BD4680BDB88101089C0400205C
:102BBC00E4BE010880B58AB000AF0B463A6002460D
:102BCC00FA80BB802F2387F827300E23BB84212368
:102BDC007B8437233B843B681B78BB843B685B78E6
:102BEC007B843B689B783B84BB8C1B099BB2DBB220
:102BFC003033DBB23B763B7E3B75BB8CDBB203F0F8
:102C0C000F03DBB23033DBB27B767B7E7B7500232C
:102C1C00BB753B8C03F001039BB2002B02D03A2313
:102C2C00BB6001E02023BB600023FB607B8C1B0995
:102C3C009BB2DBB23033DBB2FB76FB7E3B747B8C1E
:102C4C00DBB203F00F03DBB23033DBB23B773B7FFD
:102C5C007B7400237B770023BB743148FDF792FA19
:102C6C00304B1B78DBB2012B16D13B8C03F00103EC
:102C7C009BB2002B10D0FA88BB88104619462A4A02
:102C8C00FF23FDF7C7FC97F827309BB25B009AB285
:102C9C00FB881344FB8011E0F988BA8807F1140310
:102CAC00084611461A46FF23FDF7B4FC97F8273067
:102CBC009BB25B009AB2FB881344FB80F988BA88FC
:102CCC0007F10803084611461A46FF23FDF7A2FC3C
:102CDC0097F827309AB2FB881344FB80114B1B7872
:102CEC00DBB2022B0ED13B8C03F001039BB2002B09
:102CFC0008D0FA88BB88104619460B4AFF23FDF70B
:102D0C0089FC09E0F988BA8807F1100308461146D6
:102D1C001A46FF23FDF77EFC2837BD4680BD00BF59
:102D2C00B88101089C040020E4BE010880B588B07D
:102D3C0002AF0B463A600246FA80BB801E23FB8230
:102D4C000E23BB8221237B8237233B823B681B787B
:102D5C00BB823B685B787B823B689B783B82BB8AFF
:102D6C001B099BB2DBB23033DBB23B72BB8ADBB2EA
:102D7C0003F00F03DBB23033DBB27B723A23BB724E
:102D8C007B8A1B099BB2DBB23033DBB2FB727B8AD2
:102D9C00DBB203F00F03DBB23033DBB23B73002347
:102DAC007B737E4B00221A707C4B1B78DBB2012BA1
:102DBC0026D13B8A03F001039BB2002B20D0FA886A
:102DCC00BB886FF07F41009110461946744A4FF44E
:102DDC007F03FDF705FCFA88FB8A1344FB80FA8815
:102DEC00BB886FF07F410091104619466C4A4FF436
:102DFC007F03FDF7F5FBFA88FB8A1344FB8011E097
:102E0C00F988BA8807F108036FF07F4000900846F4
:102E1C0011461A464FF47F03FDF7E2FBFA88FB8A52
:102E2C001344FB80FA88FB8A1344FB807B8A1B09C2
:102E3C009BB2DBB23B727B8ADBB203F00F03DBB2DB
:102E4C007B72564B1B78DBB2022B26D13B8A03F0EC
:102E5C0001039BB2002B20D0FA88BB886FF07F4116
:102E6C000091104619464E4A4FF47F03FDF7B8FB0C
:102E7C00FA88FB8A1344FB80FA88BB886FF07F4189
:102E8C00009110461946464A4FF47F03FDF7A8FB04
:102E9C00FA88FB8A1344FB8023E0F988BA883B7AD2
:102EAC0030336FF07F400090084611461A464FF4BD
:102EBC007F03FDF795FBFA88FB8A1344FB80F988A6
:102ECC00BA887B7A30336FF07F4000900846114609
:102EDC001A464FF47F03FDF783FBFA88FB8A1344F1
:102EEC00FB80FA88FB8A1344FB803B8A1B099BB24C
:102EFC00DBB23B723B8ADBB203F00F03DBB27B72BB
:102F0C00264B1B78DBB2032B26D13B8A03F0010343
:102F1C009BB2002B20D0FA88BB880F210091104661
:102F2C0019464FF478424EF67D73FEF727FCFA886B
:102F3C00FB8A1344FB80FA88BB880F210091104652
:102F4C0019464FF478424EF67D73FEF717FCFA885B
:102F5C00FB8A1344FB801DE03B7A1946FA88BB8838
:102F6C000091104619464FF478424EF67D73FEF7E9
:102F7C0005FCFA88FB8A1344FB807B7A1946FA8895
:102F8C00BB880091104619464FF478424EF67D737B
:102F9C00FEF7F4FB1837BD4680BD00BF9C04002033
:102FAC00E8BE010880B485B000AF78607B6803F49C
:102FBC0078031A0A7B6803F47C435B091A437B6829
:102FCC0003F0F803DB081343FB60FB681846143767
:102FDC00BD465DF8047B704780B485B000AF786067
:102FEC007B6803F478031A0A7B6803F47C435B095F
:102FFC001A437B6803F0F803DB081343FB60FB68A0
:10300C0018461437BD465DF8047B704780B5ADF5A6
:10301C00167D00AF3B1D18600023C7F83C3200231F
:10302C00C7F854320023C7F850320023C7F838329F
:10303C000023C7F84C3207F108023B1D10461968F3
:10304C00012208F0C9F9034687F84B3207F1080151
:10305C0007F50D7207F22E2308461146022208F0DE
:10306C00FFFA034687F84B3207F1080107F50E7299
:10307C0007F22E2308461146042208F0F1FA034603
:10308C0087F84B3207F1080107F50D7207F22E2372
:10309C0008461146042208F0E3FA034687F84B323F
:1030AC0007F1080107F50F7207F22E2308461146A7
:1030BC00042208F0D5FA034687F84B320023C7F8F0
:1030CC00543212E007F1080107F50D7207F22E23B6
:1030DC0008461146012208F0C3FA034687F84B3222
:1030EC00D7F854320133C7F85432D7F85432272B5F
:1030FC00E8D9D7F83822D7F83C32D21A2C4BA3FB9C
:10310C0002135B08C7F85032002000214FF4A07264
:10311C00F023FFF767F90023C7F844320023C7F800
:10312C003C3233E007F1080107F50C7207F22E234D
:10313C0008461146032208F093FA034687F84B32EF
:10314C0097F832321A0497F831321B021A4497F866
:10315C0030321344C7F84C32D7F84C02FFF722FF39
:10316C000346A7F84232B7F842321B0A9BB2DBB2D5
:10317C001846FEF7F7FDB7F84232DBB21846FEF7F9
:10318C00F1FDD7F83C320133C7F83C32D7F83C227A
:10319C00D7F850329A42C5D307F10803184608F005
:1031AC00B5FD034687F84B3207F51677BD4680BD53
:1031BC00ABAAAAAA80B582B000AF0023FB713B4634
:1031CC000120194603F0E4FA3B78FB713B462D20B5
:1031DC0014211A46FFF7EEFC0837BD4680BD00BF30
:1031EC0080B582B000AF3B1D0020194603F0D8FB20
:1031FC003B1D372064211A46FFF7B6FB0837BD4646
:10320C0080BD00BF80B485B000AF0346FB71FB7975
:10321C001B09FB73FB7B5B00DAB2FB7B1344DBB259
:10322C005B00DBB2FA79D31ADBB218461437BD4611
:10323C005DF8047B704700BF80B483B000AF0346D9
:10324C00FB71FA790C4BA3FB0213DB08DBB21B01FD
:10325C00D8B2FA79084BA3FB0213D9080B469B0092
:10326C000B445B00D31ADBB20344DBB218460C37B9
:10327C00BD465DF8047B7047CDCCCCCC80B483B01C
:10328C0000AF0346FB710D4B0C4A126822F004028E
:10329C001A60FB799B08DAB2094B1A70084B1B7841
:1032AC001A465201D21A92001344DB009AB2054B13
:1032BC001A800C37BD465DF8047B704710E000E0C7
:1032CC009E040020A004002080B485B000AF03460B
:1032DC00FB80124BFA881249098801FB02F25A60F2
:1032EC000E4B00229A600D4B01221A600B4B1B688F
:1032FC00FB60FB6803F00103002B04D0FB6803F4B4
:10330C008033002BF2D0054B00221A60034B0022B5
:10331C009A601437BD465DF8047B704710E000E0FE
:10332C00A004002080B485B000AF7860124B134A23
:10333C001278796801FB02F25A600F4B00229A60F6
:10334C000D4B01221A600C4B1B68FB60FB6803F0F1
:10335C000103002B04D0FB6803F48033002BF2D064
:10336C00054B00221A60044B00229A601437BD46AC
:10337C005DF8047B704700BF10E000E09E04002065
:10338C0080B582B000AF0520012102F001FE4FF4A0
:10339C008050012102F01AFE20233B6002233B7176
:1033AC0003237B710023BB710123FB713B461F4838
:1033BC00194601F0C1FF40233B603B461B481946B0
:1033CC0001F0BAFF80233B603B461848194601F0D8
:1033DC00B3FF10233B6001233B710023BB7101231E
:1033EC00FB7103237B713B461148194601F0A4FF86
:1033FC004FF400633B6000233B710123FB713B46A0
:10340C000A48194601F098FF08480521052202F0E8
:10341C000DF906480621052202F008F90348072198
:10342C00052202F003F90837BD4680BD00000240BA
:10343C000008024080B586B000AF0023BB804FF47B
:10344C008273FB8000233B8102237B810123BB81A0
:10345C004FF40073FB8100233B8200237B82072304
:10346C00BB823B1D0548194604F0C4F903480121F1
:10347C0004F0E8FA1837BD4680BD00BF00300140AB
:10348C0080B58CB002AF00F0E5FCFFF779FFFFF7D9
:10349C00D1FF002000F08AF9012000F087F91020FC
:1034AC00FFF7ECFEFEF712FE0020FFF7FBF800F032
:1034BC00AFF800F035F9002300932D201421394A80
:1034CC006FF07F43FDF78CF80320002100F0ECF93E
:1034DC000120002100F0E8F90220002100F0E4F9BD
:1034EC000120012102F090FD1C2387F820300023DD
:1034FC0087F82130012387F82230012387F8233005
:10350C0007F12003184601F0D3F86423BB80002395
:10351C00FB8040F60453BB600023BB813B1D4FF086
:10352C008040194604F06CFF4FF0804001210122CD
:10353C0005F092FE4FF08040012105F0C7F81A48C3
:10354C000521052202F072F817480621052202F027
:10355C006DF815480721052202F068F81348144944
:10356C00012207F0F7FE034687F827301148FFF7D2
:10357C004DFD114B0093142078211F224FF6FF7341
:10358C00FDF7DEFF0D4800F0EBFF0D4B1B78DBB2B7
:10359C00002B05D0FFF70EFE094B00221A70F4E742
:1035AC00F3E700BF2CC6020800000240A404002070
:1035BC0034C6020838C6020844C60208ECBE01082C
:1035CC00DD06002080B483B000AF78607A68064BCB
:1035DC001A6000BF044B1B68002BFBD10C37BD4697
:1035EC005DF8047B704700BFD806002080B400AFA4
:1035FC00064B1B68002B04D0044B1B685A1E034B54
:10360C001A60BD465DF8047B704700BFD8060020E9
:10361C0080B584B000AF4FF08050012102F0F4FC73
:10362C000120012102F0D2FC012002F053F84FF4EA
:10363C00803002F05BFC012002F07EFA00BF4920D2
:10364C0002F0D8FD0346002BF9D0012002F080FCDB
:10365C0002F068FF304B7F225A602F4BFF229A609A
:10366C002D4B00221A602C4802F0ACFE2B4B402252
:10367C00DA702A4B12221A70284B00225A70274BF0
:10368C0000229A700120254902F0E2FF0E23FB7004
:10369C0007237B700523BB7006233B703B46002041
:1036AC00194603F0D7F84FF4801001F0B9FD4FF430
:1036BC0080137B6000233B7208237B720123BB7257
:1036CC003B1D184601F0D4FC03233B7300237B7392
:1036DC000023BB730123FB7307F10C03184600F0A6
:1036EC00E7FF042003F064FB002003F081FB4FF4A0
:1036FC008040012103F03EFF4FF48070002103F065
:10370C00C3FA4FF40070002103F0BEFA012003F05D
:10371C0093FB1037BD4680BD500900205C0900208A
:10372C0080B588B000AF4FF4003001F079FD4FF454
:10373C000033BB6100233B7708237B770123BB77E6
:10374C0007F11803184601F093FC29233B7107235A
:10375C007B710023BB710123FB713B1D184600F0EC
:10376C00A7FF4FF08033FB6000233B6101233B75C7
:10377C0000233B7200237B720023BB7207F108030A
:10378C0001204FF480711A4603F058F94FF4807001
:10379C00FF214FF0A06203F0C5FA4FF480500121D5
:1037AC0003F0E8FE2037BD4680BD00BF80B584B075
:1037BC0000AF0346FB71FA79104B53F822301846D0
:1037CC00012102F0E5FBFA790D4B33F81230BB60A6
:1037DC0001233B730023BB730023FB7303237B7315
:1037EC00FA79084B53F8222007F1080310461946C2
:1037FC0001F0A2FD1037BD4680BD00BF54C60208C3
:10380C0050C602080000002080B483B000AF03460D
:10381C00FB71FA79064B53F82230F979054A32F8E4
:10382C0011201A830C37BD465DF8047B704700BF2E
:10383C000000002050C6020880B483B000AF0346DD
:10384C00FB71FA79064B53F82230F979054A32F8B4
:10385C0011205A830C37BD465DF8047B704700BFBE
:10386C000000002050C6020880B483B000AF0346AD
:10387C00FB71FA790A4B53F82230F979084A52F85D
:10388C002120928A91B2F879064A32F810204A40E7
:10389C0092B29A820C37BD465DF8047B704700BF2C
:1038AC000000002050C6020880B588B000AF024668
:1038BC000B46FA71BB71FA792C4B53F8223018462F
:1038CC00012102F065FB0120012102F07FFB0023A6
:1038DC003B77FB79002B02D10023FB7701E001231E
:1038EC00FB77FA79224B33F81230BB61FA79214B12
:1038FC0053F8222007F118031046194601F01CFD5D
:10390C00BB79012B2ED1FA791B4B33F81230DAB27A
:10391C00F9791A4B33F81130DBB21046194604F022
:10392C00FFFAFA79164B33F812303B6100233B75E2
:10393C000C237B750123BB7507F11003184601F0AE
:10394C0097FBFA790F4B33F81230DBB23B7307233A
:10395C007B730123BB730123FB7307F10C03184624
:10396C0000F0A6FE2037BD4680BD00BF64C602082D
:10397C005CC60208080000207CC6020884C6020847
:10398C0074C602088CC6020880B582B000AF03462C
:10399C00FB71FA79074B53F82220F979064B33F86F
:1039AC0011301046194601F097FD034618460837AA
:1039BC00BD4680BD080000205CC6020880B400AF84
:1039CC00BD465DF8047B704780B400AFFEE700BFD6
:1039DC0080B400AFFEE700BF80B400AFFEE700BFCD
:1039EC0080B400AFFEE700BF80B400AFBD465DF809
:1039FC00047B704780B400AFBD465DF8047B704714
:103A0C0080B400AFBD465DF8047B704780B500AF55
:103A1C0009F0B6FD80BD00BF80B500AF4FF480400B
:103A2C0003F020FE0346002B0AD04FF4804003F035
:103A3C0051FE4FF4801001F0F3FB024B01221A707F
:103A4C0080BD00BFDD06002080B500AF202001F056
:103A5C00B3FA0346002B53D0202001F0D7FA294BA0
:103A6C001B78DBB2002B03D00020FFF7CDFE02E069
:103A7C000020FFF7E1FE234B1B78DBB2002B0CBFC1
:103A8C0000230123DBB283F00103DBB203F001035B
:103A9C00DAB21C4B1A701C4B00221A601A4B4FF4F2
:103AAC0000725A60184B194A9A60174B184A1268E0
:103ABC00DA60174B1B6803F50072154B1A60154B37
:103ACC001B6803F5833303F5A073114A1268934204
:103ADC000CD80020002100F0F1FE0B48002101F071
:103AEC00D1F909480221002201F004FA064B42F2F6
:103AFC0093021A60084B20225A60084B01221A705C
:103B0C0080BD00BF180900201C60024010740040EA
:103B1C006C0900206409002000600240B80F0020EE
:103B2C0080B582B000AF4FF08040012105F0F2FB70
:103B3C000346002B00F089814FF08040012105F0F5
:103B4C0013FCAE4B1B785B00DBB203F00F03DAB255
:103B5C00AB4B1B8A9BB25B089BB2DBB203F001033D
:103B6C00DBB21343DBB2DAB2A44B1A70A34B1B7853
:103B7C00012B76D13B460120194602F009FEA14BE0
:103B8C001B78022B25D0032B44D0012B00D044E012
:103B9C003B78BB71BB791846FFF734FB0346BB710E
:103BAC00BB79591C984B81FB03230B445A11CB173F
:103BBC00D21A13461B019B1A9B00CA1A1346BB71DF
:103BCC00BB791846FFF738FB0346BB71BB793B70DA
:103BDC0023E07B78FB71FB791846FFF713FB034658
:103BEC00FB71FB79591C884B81FB03230B445A1145
:103BFC00CB17D21A13461B019B1A9B00CA1A1346E9
:103C0C00FB71FB791846FFF717FB0346FB71FB7939
:103C1C007B7002E00023BB7000BF3B4601201946BD
:103C2C0002F016FD794B01221A70794B1B78DBB22E
:103C3C00002B03D00020FFF7E7FD02E00020FFF788
:103C4C00FBFD734B1B78DBB2002B0CBF0023012355
:103C5C00DBB283F00103DBB203F00103DAB26C4B8D
:103C6C001A706C4B1B785B00DBB203F00F03DAB2FB
:103C7C00634B1B8A9BB29B089BB2DBB203F0010324
:103C8C00DBB21343DBB2DAB2624B1A70614B1B78B6
:103C9C00012B40F082803B460120194602F078FD52
:103CAC00584B1B78022B2AD0032B4FD0012B00D062
:103CBC004FE03B78BB71BB791846FFF7A3FA03467C
:103CCC00BB71FB79002B0FD0BB79591E524B83FB78
:103CDC0001039A10CB17D21A13465B001344DB0076
:103CEC00CA1A1346BB7101E01723BB71BB79184686
:103CFC00FFF7A2FA0346BB71BB793B7029E07B78D6
:103D0C00FB71FB791846FFF77DFA0346FB71FB79D3
:103D1C00002B10D0FB79591E3B4B81FB03230B442A
:103D2C005A11CB17D21A13461B019B1A9B00CA1AA5
:103D3C001346FB7101E03B23FB71FB791846FFF73F
:103D4C007BFA0346FB71FB797B7002E00023BB70AE
:103D5C0000BF3B460120194602F07AFC2B4B012296
:103D6C001A702B4B1B78DBB2002B03D00020FFF713
:103D7C004BFD02E00020FFF75FFD254B1B78DBB20B
:103D8C00002B0CBF00230123DBB283F00103DBB259
:103D9C0003F00103DAB21E4B1A70204B1B785B0048
:103DAC00DBB203F00F03DAB2154B1B8A9BB2DB08B4
:103DBC009BB2DBB203F00103DBB21343DBB2DAB22A
:103DCC00164B1A70154B1B78012B3ED10D4B1B78E3
:103DDC00591C134B83FB0102CB17D21A13465B0001
:103DEC001344CA1AD2B2074B1A70094B1B78DBB2B8
:103DFC00002B17D00120FFF707FD16E01909002052
:103E0C00000002409C04002089888888DD06002080
:103E1C00180900201A090020ABAAAA2A1B090020A5
:103E2C00565555550120FFF707FD094B1B78DBB2A2
:103E3C00002B0CBF00230123DBB283F00103DBB2A8
:103E4C0003F00103DAB2024B1A700837BD4680BD8D
:103E5C001809002080B500AF144B144A126842F4C4
:103E6C0080721A60114A114B9968114B0B40936088
:103E7C000E4A0E4B1B6823F0885323F0011313607A
:103E8C000A4B0A4A126822F480221A60074B074A2E
:103E9C00926822F47D029A60044B0022DA6000F0F2
:103EAC00B5F8044B4FF000629A6080BD00380240B8
:103EBC000CC0FF8800ED00E080B487B000AF002399
:103ECC007B6100233B610023FB600023BB6000236C
:103EDC007B60484B9B6803F00C037B617B690C2B6C
:103EEC0064D801A252F823F0293F0008B93F00081A
:103EFC00B93F0008B93F0008493F0008B93F000826
:103F0C00B93F0008B93F0008513F0008B93F00080D
:103F1C00B93F0008B93F0008593F0008354B5B68B2
:103F2C0003F460435B0B7B607B6801334FF400420E
:103F3C0002FA03F31A46304B1A6047E02E4B2F4A15
:103F4C001A6043E02C4B2E4A1A603FE0294B9B68C9
:103F5C0003F470133B61274B9B6803F44003FB6035
:103F6C003B699B0C274AD35CDBB23B61FB689B0D26
:103F7C000133FB601F4B9B6803F48033BB60BB6851
:103F8C00002B09D13B691D4A02FB03F2FB68B2FB13
:103F9C00F3F2194B1A6019E03B69194A02FB03F260
:103FAC00FB68B2FBF3F2144B1A600FE0114B5B6829
:103FBC0003F460435B0B7B607B6801334FF400427E
:103FCC0002FA03F31A460C4B1A6000BF094B9B68AC
:103FDC0003F0F0031B090C4AD35CDBB27B61064B8C
:103FEC001A687B69DA40044B1A601C37BD465DF8D1
:103FFC00047B704700380240180000200024F400B5
:10400C0000127A001C0000202800002080B483B02D
:10401C0000AF00237B6000233B60404B3F4A12689B
:10402C0042F001021A603D4B1B6803F002033B6037
:10403C003B68002B03D17B68B3F5A06FF3D1374BF2
:10404C001B6803F00203002B02D001233B6001E04C
:10405C0000233B603B68012B5AD1314B304A12682C
:10406C0042F004021A602E4B2D4A126842F00202F2
:10407C001A602B4B2A4A126842F001021A60274B35
:10408C00264A526A42F080525A62264B4FF4006222
:10409C001A6000BF234B5B6803F01003002BF9D1AF
:1040AC001E4B1E4A92689A601C4B1C4A92689A607E
:1040BC001A4B1A4A92689A60184B184A926822F462
:1040CC007D029A60154B154A926842F488029A60F8
:1040DC00124B124A126842F080721A6000BF0F4BEA
:1040EC001B6803F00073002BF9D00C4B0B4A926841
:1040FC0022F003029A60094B084A926842F00302CC
:10410C009A6000BF054B9B6803F00C030C2BF9D194
:10411C000C37BD465DF8047B704700BF0038024089
:10412C00003C02400070004080B582B000AF4FF000
:10413C008070012101F02CFF4FF00050012101F0A3
:10414C0063FF0120012101F023FF10233B600323B7
:10415C003B710023FB713B460348194601F0ECF818
:10416C000837BD4680BD00BF0000024080B485B05A
:10417C0000AF78600023FB8111E0FB895B007A685B
:10418C001344FA89520079680A44128812B202F573
:10419C000042121192B21A80FB890133FB81FB8918
:1041AC00B3F5007FE9D31437BD465DF8047B704747
:1041BC0080B586B000AF7860FFF7B6FF1020012104
:1041CC0001F022FF664804F08FF8654840F656313E
:1041DC0004F0BCF96248202105F0DCF960480121AB
:1041EC00012205F039F85E480121012205F034F86E
:1041FC005B48012104F06AFA00F00AFB594B0422D7
:10420C001A60584B00225A60564B0022DA6056480E
:10421C0000F014FD554B564A1A60564A534B5A60DF
:10422C00524B10229A60514B4FF40072DA604F4B94
:10423C0000221A614D4B80225A614C4B00229A612C
:10424C004A4B0022DA61494B00221A62474B4FF469
:10425C0000525A62454B00229A624348434900F08F
:10426C00A9FD41480221012200F044FE0C233B72BF
:10427C0001237B720323BB720123FB7200200121FB
:10428C0000F022FC3C487968012207F0A5F80346AF
:10429C00FB75394BDB683B613748002107F096FD15
:1042AC000346FB7507F10C03334832494FF4007297
:1042BC0007F0D6F90346FB7507F10C032E482F497E
:1042CC004FF4007207F0CCF90346FB7507F10803B5
:1042DC00184600F0EDF92448012100F0D3FD002030
:1042EC00204900F0A3FA0020012100F0E7FA244B4A
:1042FC0000221A70234B00221A70214B1B78002BC2
:10430C0017D0204B1B7883F00103DBB25A02194BF8
:10431C001A4407F10C03184811464FF4007207F0C9
:10432C009FF9174B00221A70FB68B3F5007F00D27F
:10433C0000E0E2E70020002100F0C0FA0A4800216A
:10434C0000F0A0FD08480221002200F0D3FD0A482D
:10435C0007F0DCFC0346FB751837BD4680BD00BF7B
:10436C0000100040A80B00201C600240BC0F002075
:10437C0010740040B80B002074090020B80D002008
:10438C00B80F00207009002080B586B000AF7860AF
:10439C007B687B61FFF7C8FE1020012101F034FE21
:1043AC00644803F0A1FF634840F6563104F0CEF8A0
:1043BC006048202105F0EEF85E480121012204F04E
:1043CC004BFF5C480121012204F046FF59480121B2
:1043DC0004F07CF900F01CFA574B04221A60564B7F
:1043EC0000225A60544B0022DA60544800F026FC3C
:1043FC00534B544A1A60544A514B5A60504B10223A
:10440C009A604F4B4FF40072DA604D4B00221A61E8
:10441C004B4B80225A614A4B00229A61484B002236
:10442C00DA61474B00221A62454B4FF400525A6234
:10443C00434B00229A624148414900F0BBFC3F4883
:10444C000221012200F056FD0C233B7301237B73E8
:10445C000323BB730123FB730020012100F034FB09
:10446C003A4BDB683B61384879694FF4007209F0CC
:10447C00B5F87B6903F500737B61354879694FF4B6
:10448C00007209F0ABF87B6903F500737B6107F1EF
:10449C000C03184600F00CF92848012100F0F2FC3E
:1044AC000020254900F0C2F90020012100F006FA95
:1044BC00284B00221A70284B00221A70274B1B78AD
:1044CC00002B04D0FEF776FE244B00221A70214BF1
:1044DC001B78002B1DD0204B1B7883F00103DBB223
:1044EC005A02194B1344184679694FF4007209F0BB
:1044FC0075F87B6903F500737B61164B00221A700B
:10450C007B6803F5833303F5A0737A69934200D873
:10451C0000E0D3E70020002100F0D0F9074800218B
:10452C0000F0B0FC05480221002200F0E3FC183733
:10453C00BD4680BD00100040A80B00201C6002404E
:10454C00BC0F002010740040B80B00207409002030
:10455C00B80D0020B80F002070090020DD060020E7
:10456C0080B584B000AF7860414B7A681A60404BDC
:10457C001A68404B1A60FFF7D7FD1020012101F09B
:10458C0043FD3D4803F0B0FE3B4840F6563103F086
:10459C00DDFF3948202104F0FDFF374801210122BD
:1045AC0004F05AFE34480121012204F055FE324831
:1045BC00012104F08BF800F02BF9304B04221A6027
:1045CC002E4B00225A602D4B0022DA602C4800F052
:1045DC0035FB2C4B2C4A1A60264B1B681A46294B70
:1045EC005A60284B10229A60264B4FF40072DA6006
:1045FC00244B00221A61234B80225A61214B00224A
:10460C009A61204B0022DA611E4B00221A621D4B6C
:10461C004FF400525A621B4B00229A6218481949F7
:10462C0000F0C8FB16480221012200F063FC0C23A9
:10463C003B7308237B730323BB730123FB730020A1
:10464C00012100F041FA07F10C03184600F030F894
:10465C000B48012100F016FC0020084900F0E6F898
:10466C000020012100F02AF91037BD4680BD00BFA3
:10467C00640900206C09002000100040A80B0020E9
:10468C001C600240BC0F00201074004080B483B04A
:10469C0000AF7860054A7B6843F0BF6343F4003396
:1046AC00D3600C37BD465DF8047B704700ED00E02D
:1046BC0080B485B000AF78600023FB730023BB731C
:1046CC000F237B737B68DB78002B37D0254BDB68A3
:1046DC00DB4303F4E0631B0AFB73FB7BC3F10403B2
:1046EC00BB737A7BFB7B42FA03F37B737B685B784F
:1046FC001A46BB7B02FA03F3FB737B689A787B7BCD
:10470C001340DAB2FB7B1343FB73FB7B1B01FB7384
:10471C00154A7B681B781344FA7B83F80023124BF1
:10472C007A6812785209D2B27968097801F01F01BF
:10473C00012000FA01F143F822100EE00A4B7A68CE
:10474C0012785209D2B27968097801F01F01012060
:10475C0000FA01F1203243F822101437BD465DF8FF
:10476C00047B704700ED00E000E100E080B483B012
:10477C0000AF78603960074A3B6823F0604323F050
:10478C007F0379680B4393600C37BD465DF8047B5F
:10479C00704700BF00ED00E080B483B000AF02466C
:1047AC000B46FA71BB71BB79002B06D0094B094A39
:1047BC001169FA790A431A6106E0064B054A116938
:1047CC00FA79D2430A401A610C37BD465DF8047B76
:1047DC00704700BF00ED00E080B483B000AF78609C
:1047EC007B68042B06D1094B084A126842F004027C
:1047FC001A6005E0054B054A126822F004021A60A3
:10480C000C37BD465DF8047B704700BF10E000E03C
:10481C0080B500AF4FF00050012101F04FFC4FF07C
:10482C000050002101F04AFC80BD00BF80B485B06F
:10483C0000AF786039600023FB600023BB60134B32
:10484C001B68FB607B6840F6FE7202FA03F3DB43E5
:10485C00FA681340FB603B681A683B685B681A4354
:10486C003B689B681A433B68DB681343BB607B68FF
:10487C00BA6802FA03F3FA681343FB60034BFA6855
:10488C001A601437BD465DF8047B70470074004015
:10489C0080B483B000AF78607B6800221A607B68BC
:1048AC0000225A607B6800229A607B680022DA60E2
:1048BC000C37BD465DF8047B704700BF80B483B0F5
:1048CC0000AF78600B46FB70FB78002B09D00C4BCB
:1048DC000B4A11687A68012000FA02F20A431A6046
:1048EC0009E0074B064A11687A68012000FA02F2C7
:1048FC00D2430A401A600C37BD465DF8047B704702
:10490C000074004080B483B000AF78600B46FB703D
:10491C00FB78002B0AD00D4B0C4A51687A681209AF
:10492C00012000FA02F20A435A600AE0074B074AD8
:10493C0051687A681209012000FA02F2D2430A4047
:10494C005A600C37BD465DF8047B7047007400401C
:10495C0080B483B000AF0346FB71FB79002B06D00B
:10496C00084B084A526842F003025A6005E0054BB6
:10497C00044A526822F003025A600C37BD465DF8B7
:10498C00047B70470074004080B485B000AFF860C1
:10499C00B9601346FB71FB79002B09D00C4B0C4A08
:1049AC001168FA68B86800FA02F20A431A6009E062
:1049BC00074B074A1168FA68B86800FA02F2D2434A
:1049CC000A401A601437BD465DF8047B704700BF7F
:1049DC000074004080B485B000AF78600B467B80DB
:1049EC000023FB60074BFB60FA687B6813440833B9
:1049FC00FB60FB687A881A601437BD465DF8047B4F
:104A0C00704700BF0074004080B485B000AF786080
:104A1C000B467B800023FB60074BFB60FA687B68CE
:104A2C0013441433FB60FB687A881A601437BD4654
:104A3C005DF8047B704700BF0074004080B485B003
:104A4C0000AF786013460A467A803B800023FB60F7
:104A5C000023BB607B68082B05D17B881A023B883E
:104A6C001343FB6004E07B881A043B881343FB6010
:104A7C00074BBB607A68BB6813442033BB60BB68D0
:104A8C00FA681A601437BD465DF8047B704700BFA6
:104A9C000074004080B485B000AF78600023FB60E8
:104AAC00084BFB607B689A08FB6813442C33FB6053
:104ABC00FB681B689BB218461437BD465DF8047B37
:104ACC00704700BF0074004080B483B000AF7860C2
:104ADC000B46FB70FB78002B0AD00D4B0C4A11686F
:104AEC007A684FF4805000FA02F20A431A600AE026
:104AFC00074B074A11687A684FF4805000FA02F2AB
:104B0C00D2430A401A600C37BD465DF8047B7047EF
:104B1C000074004080B485B000AFF860B9601346F3
:104B2C00FB71FB79002B09D00C4B0C4A1168FA680D
:104B3C00B86800FA02F20A431A6009E0074B074A08
:104B4C001168FA68B86800FA02F2D2430A401A6097
:104B5C001437BD465DF8047B704700BF00740040FD
:104B6C0080B485B000AF786039600023FB730A4BCA
:104B7C005A6B7B68396801FA03F31340002B02D09F
:104B8C000123FB7301E00023FB73FB7B18461437F6
:104B9C00BD465DF8047B70470074004080B483B060
:104BAC0000AF78603960054B7A68396801FA02F217
:104BBC005A630C37BD465DF8047B704700740040A7
:104BCC0080B485B000AF786039600023FB7300239C
:104BDC00BB60104B1A687B68396801FA03F3134009
:104BEC00BB600C4B5A6B7B68396801FA03F31340BA
:104BFC00002B05D0BB68002B02D00123FB7301E016
:104C0C000023FB73FB7B18461437BD465DF8047B11
:104C1C00704700BF0074004080B483B000AF786070
:104C2C003960054B7A68396801FA02F25A630C371D
:104C3C00BD465DF8047B70470074004080B483B0BF
:104C4C0000AF78607B681A684FF6FE7313407A6881
:104C5C0013607B6800221A607B6800225A607B68B4
:104C6C0000229A607B680022DA607A68434B9A4291
:104C7C0006D1434B424A526842F00F025A6077E029
:104C8C007A68404B9A4206D13D4B3D4A526842F0FD
:104C9C00F0025A606CE07A683B4B9A4206D1384B72
:104CAC00374A526842F470625A6061E07A68374B56
:104CBC009A4206D1324B324A526842F470425A60E0
:104CCC0056E07A68324B9A4206D12D4B2C4A5268E8
:104CDC0042F470225A604BE07A682E4B9A4206D10D
:104CEC00274B274A526842F470025A6040E07A68B7
:104CFC00294B9A4206D1224B214A526842F07062EB
:104D0C005A6035E07A68254B9A4206D1244B244AE6
:104D1C00526842F00F025A602AE07A68214B9A429C
:104D2C0006D11F4B1E4A526842F0F0025A601FE037
:104D3C007A681D4B9A4206D1194B194A526842F4B3
:104D4C0070625A6014E07A68184B9A4206D1144B80
:104D5C00134A526842F470425A6009E07A68144B64
:104D6C009A4205D10E4B0E4A526842F470225A6098
:104D7C000C37BD465DF8047B704700BF08600240ED
:104D8C00006002401C6002403060024044600240FF
:104D9C00586002406C60024080600240086402402F
:104DAC00006402401C6402403064024044640240CF
:104DBC005864024080B485B000AF7860396000233D
:104DCC00FB607B681B68FB60FB6823F4FF4323F0EC
:104DDC007003FB603B689A683B681B6A1A433B682C
:104DEC001B691A433B685B691A433B689B691A430E
:104DFC003B68DB691A433B685B6A1A433B689B6AF6
:104E0C001343FA681343FB607B68FA681A603B68CB
:104E1C00DA687B685A603B681A687B689A603B6802
:104E2C005A687B68DA601437BD465DF8047B7047BE
:104E3C0080B483B000AF78607B6800221A607B6816
:104E4C0000225A607B6800229A607B680022DA603C
:104E5C007B6800221A617B6800225A617B68002201
:104E6C009A617B680022DA617B6800221A627B6897
:104E7C0000225A627B6800229A620C37BD465DF8AC
:104E8C00047B704780B483B000AF78600B46FB7036
:104E9C00FB78002B06D07B681B6843F001027B6813
:104EAC001A6006E07B681A684FF6FE7313407A6846
:104EBC0013600C37BD465DF8047B704780B483B03B
:104ECC0000AF78600B467B807A887B685A600C3721
:104EDC00BD465DF8047B704780B483B000AF78604A
:104EEC007B685B689BB218460C37BD465DF8047B4B
:104EFC00704700BF80B485B000AFF860B96013464E
:104F0C00FB71FB79002B06D0FB681A68BB681A434F
:104F1C00FB681A6006E0FB681A68BB68DB431A4042
:104F2C00FB681A601437BD465DF8047B704700BF00
:104F3C0080B485B000AF78600023FB730023BB60A6
:104F4C007B6803F08053002B03D10C4B1B68BB60B8
:104F5C0002E00B4B1B68BB60BA687B681340002BEC
:104F6C0002D00123FB7301E00023FB73FB7B18468B
:104F7C001437BD465DF8047B704700BF00600240EB
:104F8C000064024080B483B000AF78607B6803F0AB
:104F9C008053002B03D1064B7A685A6002E0054B14
:104FAC007A685A600C37BD465DF8047B704700BFC9
:104FBC00006002400064024080B485B000AF7860AD
:104FCC000023FB730023BB607B6803F08053002B32
:104FDC0003D10C4B1B68BB6002E00B4B1B68BB6026
:104FEC00BA687B681340002B02D00123FB7301E0ED
:104FFC000023FB73FB7B18461437BD465DF8047B1E
:10500C00704700BF006002400064024080B483B06F
:10501C0000AF78607B6803F08053002B03D1064B04
:10502C007A685A6002E0054B7A685A600C37BD46C4
:10503C005DF8047B704700BF0060024000640240D2
:10504C0080B400AF094B00221A60084B00225A6052
:10505C00064B00229A60054B0022DA60034B6FF07E
:10506C007F425A61BD465DF8047B704700040140E5
:10507C0080B485B000AF78600023FB60324BFB60DE
:10508C007B689B79002B4DD02F4B2F4A11687A6887
:10509C001268D2430A401A602B4B2B4A51687A682B
:1050AC001268D2430A405A607B681B79FA68134431
:1050BC00FB60FB68FA6811687A6812680A431A6028
:1050CC00214B214A91687A681268D2430A409A604F
:1050DC001D4B1D4AD1687A681268D2430A40DA60C7
:1050EC007B685B79102B0ED1174B174A91687A6845
:1050FC0012680A439A60144B134AD1687A68126892
:10510C000A43DA601BE0104BFB607B685B79FA6842
:10511C001344FB60FB68FA6811687A6812680A43EA
:10512C001A600CE07B681B79FA681344FB60FB681F
:10513C00FA6811687A681268D2430A401A60143708
:10514C00BD465DF8047B70470004014080B483B019
:10515C0000AF78607B6800221A607B6800221A71AD
:10516C007B680C225A717B6800229A710C37BD4601
:10517C005DF8047B704700BF80B483B000AF7860EB
:10518C00054B054A11697A680A431A610C37BD460A
:10519C005DF8047B704700BF0004014080B485B00B
:1051AC0000AF78600023FB73084B5A697B6813408F
:1051BC00002B02D00123FB7301E00023FB73FB7B6C
:1051CC0018461437BD465DF8047B70470004014057
:1051DC0080B483B000AF7860034B7A685A610C37A7
:1051EC00BD465DF8047B70470004014080B485B077
:1051FC0000AF78600023FB73084B5A697B6813403F
:10520C00002B02D00123FB7301E00023FB73FB7B1B
:10521C0018461437BD465DF8047B70470004014006
:10522C0080B483B000AF7860034B7A685A610C3756
:10523C00BD465DF8047B70470004014080B582B028
:10524C0000AF78607A68344B9A4208D10120012172
:10525C0000F0F8FE0120002100F0F4FE59E07A681D
:10526C002E4B9A4208D10220012100F0EBFE0220C5
:10527C00002100F0E7FE4CE07A68294B9A4208D1F5
:10528C000420012100F0DEFE0420002100F0DAFEF3
:10529C003FE07A68234B9A4208D10820012100F0A4
:1052AC00D1FE0820002100F0CDFE32E07A681E4BC2
:1052BC009A4208D11020012100F0C4FE10200021D8
:1052CC0000F0C0FE25E07A68184B9A4208D14020C5
:1052DC00012100F0B7FE4020002100F0B3FE18E0E1
:1052EC007A68134B9A4208D18020012100F0AAFE63
:1052FC008020002100F0A6FE0BE07A680D4B9A424C
:10530C0007D12020012100F09DFE2020002100F07B
:10531C0099FE0837BD4680BD0000024000040240E3
:10532C0000080240000C024000100240001802402D
:10533C00001C02400014024080B487B000AF7860BB
:10534C00396000237B6100233B610023FB60002359
:10535C007B617CE07B69012202FA03F33B613B68D1
:10536C001A683B691340FB60FA683B699A426BD13F
:10537C007B681A687B695B00032101FA03F3DB434A
:10538C001A407B681A607B681A683B681B7919465F
:10539C007B695B0001FA03F31A437B681A603B6874
:1053AC001B79012B03D03B681B79022B34D17B6812
:1053BC009A687B695B00032101FA03F3DB431A4013
:1053CC007B689A607B689A683B685B7919467B6955
:1053DC005B0001FA03F31A437B689A607B689B8835
:1053EC009AB27B699BB2012101FA03F39BB2DB43B6
:1053FC009BB213409AB27B689A807B689B889AB266
:10540C003B689B7919467B699BB201FA03F39BB20B
:10541C0013439AB27B689A807B68DA687B699BB28B
:10542C005B00032101FA03F3DB431A407B68DA606B
:10543C007B68DA683B68DB7919467B695B0001FAAB
:10544C0003F31A437B68DA607B6901337B617B6908
:10545C000F2B7FF67FAF1C37BD465DF8047B704782
:10546C0080B483B000AF78607B684FF6FF721A602F
:10547C007B6800221A717B6800225A717B680022BB
:10548C009A717B680022DA710C37BD465DF8047B9B
:10549C00704700BF80B485B000AF78600B467B804E
:1054AC004FF48033FB607A88FB681343FB60FA6827
:1054BC007B68DA617A887B68DA61FA687B68DA6122
:1054CC007B68DB69FB607B68DB69FB601437BD467E
:1054DC005DF8047B704700BF80B485B000AF786086
:1054EC000B467B800023FB737B681B8A9AB27B88FC
:1054FC0013409BB2002B02D00123FB7301E000236D
:10550C00FB73FB7B18461437BD465DF8047B704774
:10551C0080B483B000AF78607B681B8A9BB218465E
:10552C000C37BD465DF8047B704700BF80B485B076
:10553C0000AF78600B467B800023FB737B689B8AF3
:10554C009AB27B8813409BB2002B02D00123FB73D1
:10555C0001E00023FB73FB7B18461437BD465DF856
:10556C00047B704780B483B000AF78607B689B8A03
:10557C009BB218460C37BD465DF8047B704700BFE4
:10558C0080B483B000AF78600B467B807B687A88F0
:10559C001A830C37BD465DF8047B704780B483B02A
:1055AC0000AF78600B467B807B687A885A830C3717
:1055BC00BD465DF8047B704780B483B000AF786063
:1055CC0013460A467A807B707B78002B03D07B686D
:1055DC007A881A8302E07B687A885A830C37BD4636
:1055EC005DF8047B704700BF80B483B000AF786077
:1055FC000B467B807B687A889A820C37BD465DF8B7
:10560C00047B704780B483B000AF78600B467B801E
:10561C007B689B8A9AB27B8853409AB27B689A8249
:10562C000C37BD465DF8047B704700BF80B485B075
:10563C0000AF786013460A467A807B700023FB60CB
:10564C000023BB607A787B8803F007039B0002FA87
:10565C0003F3FB607B88DB089BB21A467B88DB0874
:10566C009BB219467B68083153F821107B8803F0F4
:10567C0007039B000F2000FA03F3DB4319407B6800
:10568C00083243F822107B88DB089BB21A467B68F1
:10569C00083253F82220FB681343BB607B88DB087D
:1056AC009BB21A467B680832B96843F8221014374B
:1056BC00BD465DF8047B704780B500AF4FF080505D
:1056CC00012100F0FBFC4FF08050002100F0F6FCB3
:1056DC0080BD00BF80B483B000AF0346FB71044BA8
:1056EC00FA791A600C37BD465DF8047B704700BF31
:1056FC0020000E4280B485B000AF78600023FB60C0
:10570C00094B1B68FB60FB6823F0E003FB60FA6845
:10571C007B681343FB60044BFA681A601437BD4670
:10572C005DF8047B704700BF0070004080B483B00C
:10573C0000AF0346FB71044BFA791A600C37BD4677
:10574C005DF8047B704700BF10000E4280B485B03A
:10575C0000AF78600B46FB700023FB607A68054B4A
:10576C001344FB60FB68FA781A601437BD465DF889
:10577C00047B7047A0000E4280B483B000AF034698
:10578C00FB71044BFA791A600C37BD465DF8047B4B
:10579C00704700BF28000E4280B483B000AF0346B0
:1057AC00FB71044BFA791A600C37BD465DF8047B2B
:1057BC00704700BF24000E4280B485B000AF786003
:1057CC000023FB600A4B1B68FB60FB6823F4C0538F
:1057DC00FB60FA687B681343FB60054BFA6822F0A8
:1057EC000C021A601437BD465DF8047B704700BF8D
:1057FC000070004080B483B000AF0346FB71FB79AE
:10580C00002B0CD00E4B0E4A126842F001021A60AB
:10581C000B4B0B4A126842F480421A600BE0084BA7
:10582C00074A126822F480421A60054B044A126837
:10583C0022F001021A600C37BD465DF8047B7047FC
:10584C000070004080B485B000AF78600B46FB70F0
:10585C000023FB600F4B1B68FB60FB6823F003030A
:10586C00FB60FA687B681343FB600A4BFA681A60AA
:10587C00094B094A126922F004021A61FB78012BC8
:10588C0001D130BF00E020BF1437BD465DF8047B6A
:10589C00704700BF0070004000ED00E080B485B0A0
:1058AC0000AF78600B46FB700023FB60124B1B684B
:1058BC00FB60FB6823F00303FB60FA687B6813430F
:1058CC00FB600D4BFA681A600C4B0C4A126942F0E3
:1058DC0004021A61FB78012B01D130BF00E020BF1C
:1058EC00064B064A126922F004021A611437BD46AF
:1058FC005DF8047B704700BF0070004000ED00E0D5
:10590C0080B400AF0B4B0B4A126842F004021A60D1
:10591C00084B084A126842F002021A60064B064A0B
:10592C00126942F004021A6130BFBD465DF8047B77
:10593C00704700BF0070004000ED00E080B485B0FF
:10594C0000AF78600023FB73084B5A687B681340E8
:10595C00002B02D00123FB7301E00023FB73FB7BC4
:10596C0018461437BD465DF8047B70470070004044
:10597C0080B483B000AF7860054B054A11687A6833
:10598C0092000A431A600C37BD465DF8047B7047E1
:10599C000070004080B400AF134B134A126842F4FD
:1059AC0080721A60104A104B9968104B0B40936030
:1059BC000D4A0D4B1B6823F0885323F00113136021
:1059CC00094B094A126822F480221A60064B064AD7
:1059DC00926822F47D029A60034B0022DA60BD4685
:1059EC005DF8047B704700BF003802400CC0FF8894
:1059FC0080B483B000AF0346FB71054B00221A70D4
:105A0C00034BFA791A700C37BD465DF8047B70476E
:105A1C000238024080B582B000AF00233B60002307
:105A2C00FB710023BB71312000F0E4FB0346BB711A
:105A3C003B6801333B603B68B3F5A06F02D0BB7988
:105A4C00002BF0D0312000F0D5FB0346002B02D008
:105A5C000123FB7101E00023FB71FB791846083729
:105A6C00BD4680BD80B483B000AF0346FB71044BD0
:105A7C00FA791A700C37BD465DF8047B704700BF8D
:105A8C000738024080B485B000AF78600023FB601B
:105A9C00094B5B68FB60FB6823F46043FB60FA68AE
:105AAC007B681343FB60044BFA685A601437BD469D
:105ABC005DF8047B704700BF0038024080B483B0AF
:105ACC0000AF0346FB71044BFA791A600C37BD46E4
