:020000040800F2
:100000000040002031CD0008553600086136000858
:1000100069360008713600087936000800000000D3
:100020000000000000000000000000008136000811
:100030008D3600080000000099360008A53600083B
:1000400081CD000881CD000881CD0008B1360008BF
:1000500081CD000881CD000881CD000881CD000848
:1000600081CD000881CD000881CD000881CD000838
:10007000E136000881CD000881CD000881CD00085F
:1000800081CD000881CD000881CD000881CD000818
:1000900081CD000881CD000881CD000881CD000808
:1000A00081CD000881CD000881CD000881CD0008F8
:1000B0009537000881CD000881CD000881CD00086A
:1000C00081CD000881CD000881CD000881CD0008D8
:1000D00081CD000881CD000881CD000881CD0008C8
:1000E00081CD000881CD000881CD000881CD0008B8
:1000F00081CD00080000000081CD000881CD0008FE
:10010000000000000000000081CD000881CD000843
:1001100081CD000881CD000881CD000881CD000887
:1001200081CD000800000000000000000000000079
:0C01300000000000000000005FF808F173
:10013C0010B5054C237833B9044B13B10448AFF315
:10014C0000800123237010BD8004002000000000FB
:10015C003C01000808B5064B1BB106480649AFF335
:10016C0000800648036813B1054B03B1984708BDDE
:10017C00000000003C0100088404002080040020E2
:10018C000000000080B483B000AF78607B681A7800
:10019C000F4B1A707B685A780D4B5A707B689A78A3
:1001AC000B4B9A707B68DA78094BDA707B685A686B
:1001BC00074B5A607B689A68054B9A607B68DA68D3
:1001CC00034BDA600C37BD465DF8047B704700BF0B
:1001DC000407002080B584B000AF02460B46FA71CC
:1001EC00BB710023FB730EE0FB795BB2002B02DAD0
:1001FC0001F0B8F901E001F0C9F9FB795B00FB7182
:10020C00FB7B0133FB73FA7BBB799A42ECD310373F
:10021C00BD4680BD90B587B000AFF860B9607A601C
:10022C003B6000237B82FB6898B2BB6899B2FB6889
:10023C009AB2BB6A9BB213449BB2013B9AB2BB68A5
:10024C009CB23B689BB223449BB2013B9BB201F036
:10025C00AFFE26484FF4805104F044FD23484FF480
:10026C00806104F031FD0023FB7533E00023BB7586
:10027C0000237B7527E07B8A5A1C7A827A681344A8
:10028C001B787B747B7D0133DA00BB6A9A4205DCF8
:10029C007B7C18460821FFF79DFF0EE07B7D1A46FC
:1002AC005201D31ADB00DAB2BB6ADBB21344DBB205
:1002BC007A7C10461946FFF78DFFBB7D0833BB7562
:1002CC007B7D01337B75BA7DBB6A9A42D3DBFB7DA8
:1002DC000133FB75FA7D3B689A42C7DB03484FF448
:1002EC00805104F0F1FC1C37BD4690BD0004024067
:1002FC0090B58BB002AFF860B9607A603B603E4B52
:10030C005B787B773C4B9B68BB61386801F0BAF833
:10031C00386B01F0EFF8384B1B78FB75364B9B783C
:10032C00BB75354BDB787B7558E07B681B78202BD5
:10033C0026D9314B5A687B681B7819467B7FCB1AC0
:10034C009B0013441B783B752B4B5A687B681B78BE
:10035C0019467B7FCB1A9B0013445B88FB83FB8B7A
:10036C00BA691A44FB7D397D0091F868B968FFF7CA
:10037C0051FF3A7DFB681A44BB7D1344FB602AE0B5
:10038C00FB6898B2BB6899B27B7D9AB2FB689BB252
:10039C0013449BB2013B9AB2FB7D9CB2BB689BB2EF
:1003AC0023449BB2013B9BB201F002FE0023FB8372
:1003BC0006E001F0EBF801F0E9F8FB8B0133FB836D
:1003CC00FA8B7B7DF97D01FB03F39A42F1DB7B7D9C
:1003DC00FA681344FB607B6801337B607B681B7895
:1003EC00002BA2D1054BFA681A60054BBA681A604B
:1003FC002437BD4690BD00BF040700200007002035
:10040C00FC06002080B586B002AFF860B9607A6057
:10041C003B60084BDB68002B08D1BB690093F86884
:10042C00B9687A683B68FFF763FF00E000BF1037DC
:10043C00BD4680BD0407002090B58BB002AFF860BC
:10044C00B9607A603B603D4B5B787B773B4B9B683C
:10045C00BB61386801F016F8386B01F04BF8374B7C
:10046C001B78FB75354B9B78BB75344BDB787B75F8
:10047C0055E03B7D202B22D9304B5A68397D7B7F50
:10048C00CB1A9B0013441B78FB742C4B5A68397D98
:10049C007B7FCB1A9B0013445B88FB83FB8BBA6975
:1004AC001A44FB7DF97C0091F868B968FFF7B2FE3D
:1004BC00FA7CFB681A44BB7D1344FB602CE0FB68A0
:1004CC0098B2BB6899B27B7D9AB2FB689BB213441D
:1004DC009BB2013B9AB2FB7D9CB2BB689BB223449E
:1004EC009BB2013B9BB201F03BFD0023FB8308E078
:1004FC0001F04CF801F04AF801F048F8FB8B01339D
:10050C00FB83FA8B7B7DF97D01FB03F39A42EFDBD6
:10051C007B7DFA681344FB607B6801337B607B68EE
:10052C003B753B7D002BA4D1054BFA681A60054B3B
:10053C00BA681A602437BD4690BD00BF040700207E
:10054C0000070020FC06002080B487B000AF786064
:10055C0000237B611A4B5B78FB74194B1B78BB74C3
:10056C00174B9B787B74164BDB783B741CE07B68D9
:10057C001B78202B11D9124B5A687B681B781946B3
:10058C00FB7CCB1A9B0013441B78FB73FA7B7B69B7
:10059C001A447B7C13447B6103E03B7C7A691344F3
:1005AC007B617B6801337B607B681B78002BDED121
:1005BC007B6918461C37BD465DF8047B704700BF4D
:1005CC000407002080B487B000AF786000237B6103
:1005DC00194B5B78FB74184B1B78BB74164B9B78D0
:1005EC007B74154BDB783B7419E0FB7B202B0FD90C
:1005FC00114B5A68F97BFB7CCB1A9B0013441B787C
:10060C00BB73BA7B7B691A447B7C13447B6103E02C
:10061C003B7C7A6913447B617B6801337B607B682C
:10062C00FB73FB7B002BE0D17B6918461C37BD4666
:10063C005DF8047B704700BF0407002080B586B0CE
:10064C0002AFF860B9607A603B600B4B1B68BA680C
:10065C001344BB60094BDB68002B08D1BB690093CA
:10066C00F868B9687A683B68FFF7E6FE00E000BFFF
:10067C001037BD4680BD00BFF806002004070020DF
:10068C0080B485B000AF0346FB80FB8803F01F03EA
:10069C00FB81FB885B099BB203F03F03BB81FB88AA
:1006AC00DB0A7B81FB89DB029AB2BB895B019BB2C3
:1006BC0013449AB27B8913443B813B891846143707
:1006CC00BD465DF8047B704780B584B000AFF88000
:1006DC00B9807A803B800023FB817B88BB817A8840
:1006EC001346DB079B1A5B000333BB6087E0FA8879
:1006FC00FB89134499B2BA88BB8913449AB23B88DC
:10070C00084611461A4601F0BFFCFA88FB89D31A39
:10071C0099B2BA88BB8913449AB23B8808461146F1
:10072C001A4601F0B1FCFA88FB89134499B2BA88D5
:10073C00BB89D31A9AB23B88084611461A4601F077
:10074C00A3FCFA88FB89D31A99B2BA88BB89D31A4D
:10075C009AB23B88084611461A4601F095FCFA8875
:10076C00BB89134499B2BA88FB8913449AB23B886B
:10077C00084611461A4601F087FCFA88BB89D31A41
:10078C0099B2BA88FB8913449AB23B880846114641
:10079C001A4601F079FCFA88BB89134499B2BA88DD
:1007AC00FB89D31A9AB23B88084611461A4601F0C7
:1007BC006BFCFA88BB89D31A99B2BA88FB89D31A15
:1007CC009AB23B88084611461A4601F05DFCBB689C
:1007DC00002B06DAFB899A00BB6813440633BB6016
:1007EC000AE0FA89BB89D31A9A00BB6813440A330E
:1007FC00BB60BB89013BBB81FB890133FB81FA895F
:10080C00BB899A42FFF473AFFA89BB899A426FD1C4
:10081C00FA88FB89134499B2BA88BB8913449AB2FB
:10082C003B88084611461A4601F02EFCFA88FB89D3
:10083C00134499B2BA88BB8913449AB23B880846D0
:10084C0011461A4601F020FCFA88FB89134499B230
:10085C00BA88BB89D31A9AB23B88084611461A4605
:10086C0001F012FCFA88FB89D31A99B2BA88BB89B9
:10087C00D31A9AB23B88084611461A4601F004FC7A
:10088C00FA88BB89134499B2BA88FB8913449AB28B
:10089C003B88084611461A4601F0F6FBFA88BB89DC
:1008AC00D31A99B2BA88FB8913449AB23B8808468A
:1008BC0011461A4601F0E8FBFA88BB89134499B239
:1008CC00BA88FB89D31A9AB23B88084611461A4655
:1008DC0001F0DAFBFA88BB89D31A99B2BA88FB8982
:1008EC00D31A9AB23B88084611461A4601F0CCFB43
:1008FC001037BD4680BD00BF80B58AB000AFF88010
:10090C00B9807A803B80FA88BB881046194601F082
:10091C0093FB7A88FB88D31A7B623A88BB88D31AFC
:10092C003B627B6A002B02DB0123FB6105E04FF08D
:10093C00FF33FB617B6A5B427B623B6A002B02DB11
:10094C000123BB6105E04FF0FF33BB613B6A5B42A7
:10095C003B627B6A5B00FB603B6A5B00BB607A6A54
:10096C003B6A9A422BDDBA687B6AD31A7B610023FF
:10097C003B611FE0F988BA883B8E084611461A463F
:10098C0001F082FB7B69002B08DB7A69FB68D31AC8
:10099C007B61BB699AB2BB881344BB807A69BB6824
:1009AC0013447B61FB699AB2FB881344FB803B695F
:1009BC0001333B613A697B6A9A42DBDD2AE0FA68D3
:1009CC003B6AD31A7B6100233B611FE0F988BA882C
:1009DC003B8E084611461A4601F056FB7B69002BEC
:1009EC0008DB7A69BB68D31A7B61FB699AB2FB8816
:1009FC001344FB807A69FB6813447B61BB699AB230
:100A0C00BB881344BB803B6901333B613A693B6A49
:100A1C009A42DBDD2837BD4680BD00BF90B585B05E
:100A2C0002AFF880B9807A803B80FA887B881344C7
:100A3C009AB2F888B988BB884EF67D740094FFF79B
:100A4C005BFFFA887B8813449BB2013B98B2BB884E
:100A5C00013399B2FA887B8813449BB2013B9AB25A
:100A6C00BC883B8823449BB201339BB242F665148D
:100A7C000094FFF741FFBA883B88134499B2FA8877
:100A8C007B8813449AB2B8883B8803449BB2F8889D
:100A9C0042F665140094FFF72FFFBA883B88134485
:100AAC009BB2F888B988FA884EF67D740094FFF7EB
:100ABC0023FFFB88013398B2BB88013399B2FA88C3
:100ACC007B8813449BB2013B9AB2BC883B8823447D
:100ADC009BB2013B9BB23C8B0094FFF70DFF0C3794
:100AEC00BD4690BD90B585B002AFF880B9807A80D4
:100AFC003B803B7E002B43D1FA887B8813449AB20F
:100B0C00F888B988BB884EF67D740094FFF7F4FE24
:100B1C00FA887B8813449BB2013B98B2BB880133A3
:100B2C0099B2FA887B8813449BB2013B9AB2BC8879
:100B3C003B8823449BB201339BB242F6651400946C
:100B4C00FFF7DAFEBA883B88134499B2FA887B889F
:100B5C0013449AB2B8883B8803449BB2F88842F697
:100B6C0065140094FFF7C8FEBA883B8813449BB207
:100B7C00F888B988FA884EF67D740094FFF7BCFEAD
:100B8C003B7E012B43D1FA887B8813449AB2F888B8
:100B9C00B988BB8842F665140094FFF7ADFEFA885D
:100BAC007B8813449BB2013B98B2BB88013399B24A
:100BBC00FA887B8813449BB2013B9AB2BC883B8871
:100BCC0023449BB201339BB24EF67D740094FFF725
:100BDC0093FEBA883B88134499B2FA887B881344F5
:100BEC009AB2B8883B8803449BB2F8884EF67D7461
:100BFC000094FFF781FEBA883B8813449BB2F888B7
:100C0C00B988FA8842F665140094FFF775FE3B7EAE
:100C1C00022B43D1FA887B8813449AB2F888B9889E
:100C2C00BB884FF6FF740094FFF766FEFA887B884A
:100C3C0013449BB2013B98B2BB88013399B2FA883A
:100C4C007B8813449BB2013B9AB2BC883B882344FB
:100C5C009BB201339BB24FF6FF740094FFF74CFE2E
:100C6C00BA883B88134499B2FA887B8813449AB2A9
:100C7C00B8883B8803449BB2F8884FF6FF74009405
:100C8C00FFF73AFEBA883B8813449BB2F888B988C0
:100C9C00FA884FF6FF740094FFF72EFE0C37BD4612
:100CAC0090BD00BF90B585B002AFF880B9807A8056
:100CBC003B80F888B9887A88BB8844F20824009471
:100CCC00FFF71AFEFB88013398B2BB88013399B247
:100CDC00BB8801339BB27A8848F210440094FFF72A
:100CEC000BFEF888B988FA883B8844F208240094F3
:100CFC00FFF702FEFB88013398B2BB88013399B22F
:100D0C00FB8801339AB23B8848F210440094FFF7F9
:100D1C00F3FDF88839887A883B884FF6FF74009485
:100D2C00FFF7EAFD7888B9887A883B884FF6FF741C
:100D3C000094FFF7E1FD0C37BD4690BD90B585B032
:100D4C0002AFF880B9807A803B80F888B9887A88BD
:100D5C00BB884FF6FF740094FFF7CEFDF888B98876
:100D6C00FA883B884FF6FF740094FFF7C5FDFB88AB
:100D7C00013398B23B88013B99B23B88013B9BB253
:100D8C007A8848F210440094FFF7B6FDF888398849
:100D9C007A883B8844F208240094FFF7ADFD7B88E9
:100DAC00013B98B2BB88013399B27B88013B9AB264
:100DBC003B8848F210440094FFF79EFD7888B98870
:100DCC007A883B8844F208240094FFF795FD0C3791
:100DDC00BD4690BD80B584B000AFF880B9807A80F4
:100DEC003B80FB887B8123E1BB691B78DBB25BB268
:100DFC00002B60DBBB691B78BB81BB890D2B05D13C
:100E0C007B89FB80BB881033BB8050E0BB89202BD7
:100E1C0003D9BB89203BBB8101E00023BB810023AC
:100E2C00FB733EE00023BB7335E0BB891A01FB7BEF
:100E3C001344834AD35C1A46BB7B802141FA03F3EB
:100E4C001340002B10D0BB7B9AB2FB88134499B291
:100E5C00FB7B9AB2BB8813449AB27B880846114636
:100E6C001A4601F011F913E07A883B889A420FD0A8
:100E7C00BB7B9AB2FB88134499B2FB7B9AB2BB88BA
:100E8C0013449AB23B88084611461A4601F0FCF806
:100E9C00BB7B0133BB73BB7B072BC6D9FB7B0133FD
:100EAC00FB73FB7B0F2BBDD9FB880833FB80BB6925
:100EBC000133BB61BCE00023BB81AFE0BA8961495F
:100ECC0013461B0113445B000B441A78BB691B7857
:100EDC009A4240F0A080BA895A4913461B01134428
:100EEC005B000B4401331A78BB6901331B789A42BF
:100EFC0040F091800023FB7389E00023BB733AE040
:100F0C00BA89FB7B58004F4913461B0113445B0005
:100F1C0003440B449B781A46BB7B802141FA03F3B4
:100F2C001340002B10D0BB7B9AB2FB88134499B2B0
:100F3C00FB7B9AB2BB8813449AB27B880846114655
:100F4C001A4601F0A1F813E07A883B889A420FD038
:100F5C00BB7B9AB2FB88134499B2FB7B9AB2BB88D9
:100F6C0013449AB23B88084611461A4601F08CF895
:100F7C00BB7B0133BB73BB7B072BC1D90023BB737A
:100F8C003FE0BA89FB7B5B00581C2E4913461B01C2
:100F9C0013445B0003440B449B781A46BB7B8021B3
:100FAC0041FA03F31340002B12D0BB7B9AB2FB889F
:100FBC0013449BB2083399B2FB7B9AB2BB8813449F
:100FCC009AB27B88084611461A4601F05DF815E086
:100FDC007A883B889A4211D0BB7B9AB2FB88134427
:100FEC009BB2083399B2FB7B9AB2BB8813449AB27A
:100FFC003B88084611461A4601F046F8BB7B013384
:10100C00BB73BB7B072BBCD9FB7B0133FB73FB7B1B
:10101C000F2B7FF672AFBB890133BB81BB89312BA0
:10102C007FF64CAFBB690233BB61FB881033FB808E
:10103C00BB691B78002B7FF4D7AE1037BD4680BD43
:10104C00A09A010898A8010880B584B000AFF88078
:10105C00B9807A803B8065E1BB691B78DBB25BB2FF
:10106C00002B57DBBB691B78BB81BB89202B03D9B9
:10107C00BB89203BBB8101E00023BB810023FB73B8
:10108C003EE00023BB7335E0BB891A01FB7B1344A4
:10109C008A4AD35C1A46BB7B802141FA03F3134086
:1010AC00002B10D0BB7B9AB2FB88134499B2FB7B0C
:1010BC009AB2BB8813449AB27B88084611461A46EA
:1010CC0000F0E2FF13E07A883B889A420FD0BB7B9A
:1010DC009AB2FB88134499B2FB7B9AB2BB88134437
:1010EC009AB23B88084611461A4600F0CDFFBB7BEE
:1010FC000133BB73BB7B072BC6D9FB7B0133FB7363
:10110C00FB7B0F2BBDD9BB690133BB61FB8808335B
:10111C00FB8007E10023BB81FAE0BB89684A4A21C6
:10112C0001FB03F313441A78BB691B789A4240F015
:10113C00EC80BB89624A4A2101FB03F3134401335F
:10114C001A78BB6901331B789A4240F0DE80002389
:10115C00FB73D6E00023BB733BE0B989FA7B1346E3
:10116C005B001344564A4A2000FB01F10B44134424
:10117C009B781A46BB7B802141FA03F31340002B6A
:10118C0010D0BB7B9AB2FB88134499B2FB7B9AB20A
:10119C00BB8813449AB27B88084611461A4600F065
:1011AC0073FF13E07A883B889A420FD0BB7B9AB2CC
:1011BC00FB88134499B2FB7B9AB2BB8813449AB256
:1011CC003B88084611461A4600F05EFFBB7B013394
:1011DC00BB73BB7B072BC0D90023BB7340E0B98921
:1011EC00FA7B13465B0013440133354A4A2000FB5B
:1011FC0001F10B4413449B781A46BB7B802141FAC6
:10120C0003F31340002B12D0BB7B9AB2FB88134420
:10121C009BB2083399B2FB7B9AB2BB8813449AB247
:10122C007B88084611461A4600F02EFF15E07A8896
:10123C003B889A4211D0BB7B9AB2FB8813449BB279
:10124C00083399B2FB7B9AB2BB8813449AB23B88A1
:10125C00084611461A4600F017FFBB7B0133BB73DF
:10126C00BB7B072BBBD90023BB7344E0B989FA7B4A
:10127C0013465B0013440233114A4A2000FB01F170
:10128C000B4413449B781A46BB7B802141FA03F331
:10129C001340002B16D0BB7B9AB2FB8813449BB235
:1012AC00103399B2FB7B9AB2BB8813449AB27B88F9
:1012BC00084611461A4600F0E7FE19E0A09A01080C
:1012CC00A4AF01087A883B889A4211D0BB7B9AB2B2
:1012DC00FB8813449BB2103399B2FB7B9AB2BB8848
:1012EC0013449AB23B88084611461A4600F0CCFECD
:1012FC00BB7B0133BB73BB7B072BB7D9FB7B0133A8
:10130C00FB73FB7B172B7FF625AFBB890133BB81AE
:10131C00BB89132B7FF601AFBB690233BB61FB8822
:10132C001833FB80BB691B78002B7FF495AE10370C
:10133C00BD4680BD80B584B000AFF880B9807A809E
:10134C003B800023FB7359E00023BB7350E03B8BC5
:10135C00DB011A46FB7B9B001A44BB7B1A442A4BCD
:10136C0013441B783B7300237B733BE03A7B7B7B02
:10137C00802141FA03F31340002B16D0BB7B9BB2A8
:10138C00DB009AB2FB8813449AB27B7B9BB213446A
:10139C0099B2FB7B9AB2BB8813449AB27B880846FD
:1013AC0011461A4600F070FE19E07A883B889A4282
:1013BC0015D0BB7B9BB2DB009AB2FB8813449AB26C
:1013CC007B7B9BB2134499B2FB7B9AB2BB881344D0
:1013DC009AB23B88084611461A4600F055FE7B7BB4
:1013EC0001337B737B7B072BC0D9BB7B0133BB7376
:1013FC00BB7B032BABD9FB7B0133FB73FB7B1F2B21
:10140C00A2D91037BD4680BD94A0010880B584B028
:10141C0000AF13460246FA710A46BA717B71FB792A
:10142C001A04BB791B021A437B791343FB60F868DF
:10143C0001F0E0FA03469AB2024B1A801037BD460F
:10144C0080BD00BF1E07002080B584B000AF1346DE
:10145C000246FA710A46BA717B71FB791A04BB79A0
:10146C001B021A437B791343FB60F86801F0C2FA44
:10147C0003469AB2024B1A801037BD4680BD00BF9E
:10148C001607002080B584B000AF78607B681B0C19
:10149C00DBB223F00103DAB2124B1A707B681B0A21
:1014AC00DBB223F00103DAB20F4B1A707B68DBB2AC
:1014BC0023F00103DAB20D4B1A700A4B1B781A0495
:1014CC00094B1B781B021A43084B1B781343FB6018
:1014DC00F86801F08FFA03469AB2054B1A80103760
:1014EC00BD4680BD1A0700201C07002014070020F1
:1014FC001E07002080B584B000AF78607B681B0CA1
:10150C00DBB223F00103DAB2124B1A707B681B0AB0
:10151C00DBB223F00103DAB20F4B1A707B68DBB23B
:10152C0023F00103DAB20D4B1A700A4B1B781A0424
:10153C00094B1B781B021A43084B1B781343FB60A7
:10154C00F86801F057FA03469AB2054B1A80103727
:10155C00BD4680BD18070020190700201B0700207E
:10156C001607002080B500AF074B1B881B0A9BB2E7
:10157C00DBB2184600F0D2F9034B1B88DBB21846DD
:10158C0000F0CCF980BD00BF1E07002080B500AF75
:10159C00074B1B881B0A9BB2DBB2184600F0BEF946
:1015AC00034B1B88DBB2184600F0B8F980BD00BFB6
:1015BC001607002090B58BB000AFF860B9607A6068
:1015CC003B600023FB84FB6898B2BB6899B2FB6854
:1015DC009AB23B689BB213449BB2013B9AB2BB6874
:1015EC009CB2BB6B9BB223449BB2013B9BB200F001
:1015FC00B7FC29E0FB8C5A1CFA847A6813441B78DC
:10160C003B62FB8C5A1CFA847A6813441B78FB618E
:10161C00FB8C5A1CFA847A6813441B78BB613B6AB6
:10162C001A04FB691B021A43BB6913437B613B6AB7
:10163C00D9B2FB69DAB2BB69DBB2084611461A466D
:10164C00FFF7E4FEFFF78EFFF98C3B68BA6B02FBE9
:10165C0003F213465B0013449942CBDB2C37BD4697
:10166C0090BD00BF80B584B000AF0346FB7108236A
:10167C00FB731EE013484FF4005103F033FBFB796E
:10168C005BB2002B05DA0F484FF4004103F01CFB52
:10169C0004E00C484FF4004103F024FBFB795B00A1
:1016AC00FB7108484FF4005103F00EFBFB7B013B30
:1016BC00FB73FB7B002BDDD1BB7B18461037BD4683
:1016CC0080BD00BF0004024080B582B000AF022094
:1016DC00012104F001F800BF03F06EFE03460C2B51
:1016EC00FAD14FF48040012104F032F84FF400534A
:1016FC003B6002233B7103237B710023BB710123ED
:10170C00FB713B461348194603F0BAF94FF480437A
:10171C003B603B460F48194603F0B2F94FF40043C7
:10172C003B603B460B48194603F0AAF94FF4805333
:10173C003B6001233B710023BB710123FB7103232D
:10174C007B713B460348194603F09AF90837BD46AE
:10175C0080BD00BF0004024080B483B000AF78604D
:10176C000B46FB7000BF7B681B899BB203F0020326
:10177C00002BF8D0FB789AB27B689A8100BF7B680B
:10178C001B899BB203F00103002BF8D07B689B896B
:10179C009BB2DBB218460C37BD465DF8047B704734
:1017AC0080B483B000AF78600B46FB707B681B88FD
:1017BC009BB223F038039AB27B681A80FB78012B1A
:1017CC0008D17B681B889BB243F010039AB27B68EC
:1017DC001A8007E07B681B889BB243F020039AB207
:1017EC007B681A807B681B889BB243F040039AB2DB
:1017FC007B681A800C37BD465DF8047B704700BFD0
:10180C0080B588B000AF2B4B2A4AD26942F0020255
:10181C00DA61284B274A526A42F480425A62264BBC
:10182C00254A126842F028421A60234B224A9268D9
:10183C0042F07C429A60204B204A5A621E4B1E4A50
:10184C00126842F080721A601B4B1B4A926842F07D
:10185C0040729A60174B174A926942F480429A611F
:10186C000F2001F059FA134B124A926922F480426C
:10187C009A610023BB814FF48273FB8100233B826E
:10188C0002237B820123BB824FF40073FB82002373
:10189C003B8300237B830723BB8307F10C0308489E
:1018AC00194605F04BFB0648012105F06FFC20376B
:1018BC00BD4680BD00380240000402400000505577
:1018CC000038004080B584B000AF0346FB710023A4
:1018DC00FB7310484FF4805103F004FA0D484FF499
:1018EC00806103F0FFF90023FB7303E000BFFB7B77
:1018FC000133FB73FB7B042BF8D9FB7906481946A3
:10190C00FFF72AFF03484FF4805103F0DDF910373D
:10191C00BD4680BD000402400038004080B584B054
:10192C0000AF0346FB710023FB7310484FF480613A
:10193C0003F0CAF90D484FF4805103F0D3F900239A
:10194C00FB7303E000BFFB7B0133FB73FB7B042BBE
:10195C00F8D9FB7906481946FFF7FEFE03484FF409
:10196C00805103F0B1F91037BD4680BD0004024030
:10197C000038004080B582B000AF02460B46FA71C9
:10198C00BB71FB791846FFF7C9FFBB791846FFF707
:10199C00C5FF0837BD4680BD80B582B000AF02469A
:1019AC000B46FA71BB71FB791846FFF78BFFBB79BD
:1019BC001846FFF787FF0837BD4680BD80B500AFDE
:1019CC000748012103F08EF90A2001F0A5F904481B
:1019DC00012103F079F9322001F09EF980BD00BF9E
:1019EC000004024080B584B000AF0023FB720023DA
:1019FC00FB600220012103F06FFE01233B600123F9
:101A0C003B710023BB710123FB7103237B713B46AC
:101A1C00A048194603F034F84FF480533B6001237F
:101A2C003B710023BB710123FB7103237B713B468C
:101A3C009848194603F024F84FF480633B60012367
:101A4C003B710023BB710123FB7103237B713B466C
:101A5C009048194603F014F88E48012103F034F92C
:101A6C008C484FF4805103F02FF98A484FF4806171
:101A7C0003F02AF9FFF7C4FEFFF7A0FF0023FB6079
:101A8C0006E000F005FC0346FB72FB680133FB60CB
:101A9C00FB68022BF5DDCB20FFF714FF3920FFF795
:101AAC003DFF2C20FFF73AFF0020FFF737FF3420D3
:101ABC00FFF734FF0220FFF731FFCF20FFF702FFC3
:101ACC000020FFF72BFFC120FFF728FF3020FFF786
:101ADC0025FFE820FFF7F6FE8520FFF71FFF00200B
:101AEC00FFF71CFF7820FFF719FFEA20FFF7EAFE4B
:101AFC000020FFF713FF0020FFF710FFED20FFF78A
:101B0C00E1FE6420FFF70AFF0320FFF707FF122016
:101B1C00FFF704FF8120FFF701FFF720FFF7D2FE4C
:101B2C002020FFF7FBFEC020FFF7CCFE2320FFF7A1
:101B3C00F5FEC120FFF7C6FE1020FFF7EFFEC52013
:101B4C00FFF7C0FE3E20FFF7E9FE2820FFF7E6FE78
:101B5C00C720FFF7B7FE8620FFF7E0FE3620FFF721
:101B6C00B1FEE820FFF7DAFE3A20FFF7ABFE552076
:101B7C00FFF7D4FEB120FFF7A5FE0020FFF7CEFE45
:101B8C001820FFF7CBFEB620FFF79CFE0820FFF7CE
:101B9C00C5FE8220FFF7C2FE2720FFF7BFFEF22012
:101BAC00FFF790FE0020FFF7B9FE2620FFF78AFE14
:101BBC000120FFF7B3FEE020FFF784FE0F20FFF7B4
:101BCC00ADFE3120FFF7AAFE2B20FFF7A7FE0C205D
:101BDC00FFF7A4FE0E20FFF7A1FE0820FFF79EFEE4
:101BEC004E20FFF79BFEF120FFF798FE3720FFF702
:101BFC0095FE0720FFF792FE1020FFF78FFE0320C3
:101C0C00FFF78CFE0E20FFF789FE0920FFF786FEFA
:101C1C000020FFF783FEE120FFF754FE0020FFF7C2
:101C2C007DFE0E20FFF77AFE1420FFF777FE0320CF
:101C3C00FFF774FE1120FFF771FE0720FFF76EFE11
:101C4C003120FFF76BFEC120FFF768FE4820FFF73D
:101C5C0065FE0820FFF762FE0F20FFF75FFE0C20E9
:101C6C00FFF75CFE3120FFF759FE3620FFF756FEDA
:101C7C000F20FFF753FE1120FFF724FE782001F010
:101C8C004BF82920FFF71EFE2C20FFF71BFE103708
:101C9C00BD4680BD0004024080B584B000AF002377
:101CAC00FB720023FB600220012103F015FD0123D0
:101CBC003B6001233B710023BB710123FB710323A8
:101CCC007B713B46A548194602F0DAFE4FF480536F
:101CDC003B6001233B710023BB710123FB71032388
:101CEC007B713B469D48194602F0CAFE4FF4806357
:101CFC003B6001233B710023BB710123FB71032368
:101D0C007B713B469548194602F0BAFE9348012177
:101D1C0002F0DAFF91484FF4805102F0D5FF8F4862
:101D2C004FF4806102F0D0FFFFF76AFDFFF746FE2B
:101D3C000023FB6006E000F0ABFA0346FB72FB6885
:101D4C000133FB60FB68022BF5DDEF20FFF7BAFDDA
:101D5C000320FFF7E3FD8020FFF7E0FD0220FFF7F3
:101D6C00DDFDCF20FFF7AEFD0020FFF7D7FDC12032
:101D7C00FFF7D4FD3020FFF7D1FDED20FFF7A2FDDA
:101D8C006420FFF7CBFD0320FFF7C8FD1220FFF7FF
:101D9C00C5FD8120FFF7C2FDE820FFF793FD8520EC
:101DAC00FFF7BCFD0020FFF7B9FD7820FFF7B6FD6B
:101DBC00CB20FFF787FD3920FFF7B0FD2C20FFF774
:101DCC00ADFD0020FFF7AAFD3420FFF7A7FD022090
:101DDC00FFF7A4FDF720FFF775FD2020FFF79EFD10
:101DEC00EA20FFF76FFD0020FFF798FD0020FFF7BA
:101DFC0095FDC020FFF766FD2320FFF78FFDC12066
:101E0C00FFF760FD1020FFF789FDC520FFF75AFD95
:101E1C003E20FFF783FD2820FFF780FDC720FFF74A
:101E2C0051FD8620FFF77AFD3620FFF74BFDE820A9
:101E3C00FFF774FD3A20FFF745FD5520FFF76EFDC7
:101E4C00B120FFF73FFD0020FFF768FD1820FFF7DA
:101E5C0065FDB620FFF736FD0820FFF75FFD8220F9
:101E6C00FFF75CFD2720FFF759FDF220FFF72AFD55
:101E7C000020FFF753FD2620FFF724FD0120FFF77C
:101E8C004DFDE020FFF71EFD0F20FFF747FD312031
:101E9C00FFF744FD2B20FFF741FD0C20FFF73EFD23
:101EAC000E20FFF73BFD0820FFF738FD4E20FFF713
:101EBC0035FDF120FFF732FD3720FFF72FFD07200E
:101ECC00FFF72CFD1020FFF729FD0320FFF726FD5F
:101EDC000E20FFF723FD0920FFF720FD0020FFF760
:101EEC001DFDE120FFF7EEFC0020FFF717FD0E2093
:101EFC00FFF714FD1420FFF711FD0320FFF70EFD73
:101F0C001120FFF70BFD0720FFF708FD3120FFF72D
:101F1C0005FDC120FFF702FD4820FFF7FFFC08205C
:101F2C00FFF7FCFC0F20FFF7F9FC0C20FFF7F6FC89
:101F3C003120FFF7F3FC3620FFF7F0FC0F20FFF702
:101F4C00EDFC1120FFF7BEFC782000F0E5FE292007
:101F5C00FFF7B8FC1037BD4680BD00BF000402403F
:101F6C0080B582B000AFF880B9807A803B802A209F
:101F7C00FFF7A8FCFB881B0A9BB2DAB2FB88DBB22A
:101F8C0010461946FFF7F6FC2B20FFF79BFCBB888D
:101F9C001B0A9BB2DAB2BB88DBB210461946FFF7BC
:101FAC00E9FC2C20FFF78EFC0837BD4680BD00BF36
:101FBC0080B582B000AFF880B9807A803B802A204F
:101FCC00FFF780FCFB881B0A9BB2DBB21846FFF7BD
:101FDC00A5FCFB88DBB21846FFF7A0FC7B881B0A2C
:101FEC009BB2DBB21846FFF799FC7B88DBB2184634
:101FFC00FFF794FC2B20FFF765FCBB881B0A9BB2F8
:10200C00DBB21846FFF78AFCBB88DBB21846FFF739
:10201C0085FC3B881B0A9BB2DBB21846FFF77EFCA3
:10202C003B88DBB21846FFF779FC2C20FFF74AFC03
:10203C000837BD4680BD00BF80B582B000AF0246F8
:10204C000B46FA80BB802A20FFF73CFCFB881B0A5E
:10205C009BB2DAB2FB88DBB210461946FFF78AFC5A
:10206C002B20FFF72FFCBB881B0A9BB2DAB2BB8874
:10207C00DBB210461946FFF77DFC2C20FFF722FC43
:10208C000837BD4680BD00BF80B582B000AF134697
:10209C000246FA800A46BA807B80F888B988FA88AA
:1020AC00BB88FFF75DFF7B881B0A9BB2DBB218462F
:1020BC00FFF734FC7B88DBB21846FFF72FFC0837A0
:1020CC00BD4680BD80B584B000AF02460B46FA8099
:1020DC00BB80FA88BB8810461946FFF7ADFFFB683A
:1020EC00DBB21846FFF71AFCFB6818461037BD46E2
:1020FC0080BD00BF80B584B000AF0346FB800020DC
:10210C00002140F2072240F2B713FFF729FF1A48CB
:10211C004FF4805102F0E6FD17484FF4806102F055
:10212C00D3FD0023FB601AE00023BB6010E0FB88AA
:10213C001B0A9BB2DBB211481946FFF70DFBFB885B
:10214C00DBB20E481946FFF707FBBB680133BB60D7
:10215C00BB68B3F5027FEAD3FB680133FB60FB6815
:10216C00B3F5DC7FE0D304484FF4805102F0ACFDB2
:10217C001037BD4680BD00BF00040240003800404F
:10218C0090B585B000AFF880B9807A803B80B7F904
:10219C000630B3F5A07F03DAB7F90430EF2B00DD7E
:1021AC005DE0B7F90620B7F902301344013BB3F5F3
:1021BC00A07F04DBFB88C3F5A0739BB27B80B7F9CF
:1021CC000420B7F900301344013BEF2B04DDBB882E
:1021DC00C3F1F0039BB23B80F888B988FA887B88FE
:1021EC0013449BB2013B9AB2BC883B8823449BB2FC
:1021FC00013B9BB2FFF7DCFE3B8C1B0A9BB2FB73D3
:10220C003B8CBB7317484FF4805102F06BFD1548A3
:10221C004FF4806102F058FD3B88BB8016E07B8850
:10222C00FB800CE0FB7B10481946FFF795FABB7B53
:10223C000D481946FFF790FAFB88013BFB80B7F974
:10224C000630002BEEDCBB88013BBB80B7F90430B9
:10225C00002BE4DC03484FF4805102F035FD1437B9
:10226C00BD4690BD000402400038004080B584B0EB
:10227C0002AF0346FB80FB880093002000214FF443
:10228C00A072F023FFF77CFF0837BD4680BD00BF6E
:10229C0090B585B000AF0023FB73204A3B1D11881D
:1022AC00927819809A700123BB730023FB7321E091
:1022BC00FC7BFB7B0133DBB2D320194600F030F8FA
:1022CC0003461A4607F11003234403F8082CFB7B42
:1022DC0007F110010B4413F8082CFB7B07F11001DC
:1022EC000B4413F80C3C9A4201D00023BB73FB7BCC
:1022FC000133FB73FB7B022BDAD9BB7B002B08D1A0
:10230C000023FB7302E0FB7B0133FB73FB7B022B93
:10231C00F9D9BB7B18461437BD4690BD24B50108CE
:10232C0080B584B000AF02460B46FA71BB71002336
:10233C00FB720023BB72D920FFF7C4FABB791033B0
:10234C00DBB21846FFF7EAFA1E484FF4806102F040
:10235C00C9FC1C484FF4805102F0C4FC0023FB6004
:10236C0003E000BFFB680133FB60FB68042BF8DD66
:10237C00FB7915481946FFF7EFF90346BB72114874
:10238C004FF4806102F0A0FC0023FB6003E000BF6F
:10239C00FB680133FB60FB68012BF8DD0A4B9B8962
:1023AC009BB2BB720848002100F010F80346BB72C8
:1023BC0004484FF4805102F087FCBB7A1846103762
:1023CC00BD4680BD000402400038004080B483B09C
:1023DC0000AF78600B46FB7000BF0E4B1B899BB2A5
:1023EC0003F08003002BF8D10A4BFA7892B29A8151
:1023FC0000BF084B1B899BB203F00103002BF8D0E4
:10240C00044B9B899BB2DBB218460C37BD465DF87A
:10241C00047B70470038004080B584B000AF0346A1
:10242C003960FB80FB88BB600023FB60FB685A1C97
:10243C00FA603A68D018FA88174BA3FB0213D90834
:10244C000B469B000B445B00D31A9BB2DBB23033C0
:10245C00DBB2DBB20370FA880F4BA3FB0213DB0871
:10246C00FB80FB88002BE1D1BB68002B06DAFB68F4
:10247C005A1CFA603A6813442D221A70FB68012B1F
:10248C0004DCFB683A68134430221A70386800F098
:10249C0005F81037BD4680BDCDCCCCCC80B586B010
:1024AC0000AF786000237B6178680AF08DFC0346EE
:1024BC00013B3B6117E07B697A6813441B78FB7323
:1024CC007B697A6813443A6979680A4412781A70FD
:1024DC003B697A681344FA7B1A707B6901337B6120
:1024EC003B69013B3B617A693B699A42E3DB1837F4
:1024FC00BD4680BD80B586B002AF02460B46FA8061
:10250C00BB801E23FB81FA88BB886FF07F41009152
:10251C0010461946054A4FF47F03FDF773FFFA88FE
:10252C00FB891344FB801037BD4680BD28B50108DC
:10253C0080B58EB002AF0B463A600246FA80BB8083
:10254C000A23FB853B68DB7887F82D303B685B788A
:10255C0087F82C303B689B7887F82B303B681B78CE
:10256C0087F82A3097F82D309BB203F5FA639AB2AC
:10257C0007F1240310461946FFF74EFF97F82C304D
:10258C009AB207F11C0310461946FFF745FF97F85E
:10259C002B309AB207F1140310461946FFF73CFF93
:1025AC000E48FDF7EFFDFA88BB880021009110461C
:1025BC0019460B4A6FF07F43FDF724FFFA88BB885E
:1025CC0028330021009110461946064A6FF07F43CC
:1025DC00FDF718FF3037BD4680BD00BF909A01084B
:1025EC002CB5010838B5010880B58CB002AF0B468C
:1025FC003A600246FA80BB802F2387F827300E23DF
:10260C00BB8421237B8437233B843B681B78BB84AE
:10261C003B685B787B843B689B783B84BB8C1B0959
:10262C009BB2DBB23033DBB23B763B7E3B75BB8C73
:10263C00DBB203F00F03DBB23033DBB27B767B7E95
:10264C007B750023BB753B8C03F001039BB2002B05
:10265C0002D03A23BB6001E02023BB600023FB6067
:10266C007B8C1B099BB2DBB23033DBB2FB76FB7E7F
:10267C003B747B8CDBB203F00F03DBB23033DBB289
:10268C003B773B7F7B7400237B770023BB743848FC
:10269C00FDF778FD374B1B78DBB2012B19D13B8C46
:1026AC0003F001039BB2002B13D0FA88BB880021E6
:1026BC00009110461946304A6FF07F43FDF7A2FE99
:1026CC0097F827309BB25B009AB2FB881344FB80CF
:1026DC0014E0F988BA8807F114030020009008462A
:1026EC0011461A466FF07F43FDF78CFE97F82730A2
:1026FC009BB25B009AB2FB881344FB80F988BA88C2
:10270C0007F1080300200090084611461A466FF0A6
:10271C007F43FDF777FE97F827309AB2FB88134476
:10272C00FB80144B1B78DBB2022B11D13B8C03F0DA
:10273C0001039BB2002B0BD0FA88BB8800210091BF
:10274C00104619460C4A6FF07F43FDF75BFE0CE018
:10275C00F988BA8807F1100300200090084611464A
:10276C001A466FF07F43FDF74DFE2837BD4680BDFE
:10277C00147801089C04002040B5010880B588B08D
:10278C0002AF0B463A600246FA80BB801E23FB82E6
:10279C000E23BB8221237B8237233B823B681B7831
:1027AC00BB823B685B787B823B689B783B82BB8AB5
:1027BC001B099BB2DBB23033DBB23B72BB8ADBB2A0
:1027CC0003F00F03DBB23033DBB27B723A23BB7204
:1027DC007B8A1B099BB2DBB23033DBB2FB727B8A88
:1027EC00DBB203F00F03DBB23033DBB23B730023FD
:1027FC007B737E4B00221A707C4B1B78DBB2012B57
:10280C0026D13B8A03F001039BB2002B20D0FA881F
:10281C00BB886FF07F41009110461946744A4FF403
:10282C007F03FDF7EFFDFA88FB8A1344FB80FA88DF
:10283C00BB886FF07F410091104619466C4A4FF4EB
:10284C007F03FDF7DFFDFA88FB8A1344FB8011E060
:10285C00F988BA8807F108036FF07F4000900846AA
:10286C0011461A464FF47F03FDF7CCFDFA88FB8A1C
:10287C001344FB80FA88FB8A1344FB807B8A1B0978
:10288C009BB2DBB23B727B8ADBB203F00F03DBB291
:10289C007B72564B1B78DBB2022B26D13B8A03F0A2
:1028AC0001039BB2002B20D0FA88BB886FF07F41CC
:1028BC000091104619464E4A4FF47F03FDF7A2FDD6
:1028CC00FA88FB8A1344FB80FA88BB886FF07F413F
:1028DC00009110461946464A4FF47F03FDF792FDCE
:1028EC00FA88FB8A1344FB8023E0F988BA883B7A88
:1028FC0030336FF07F400090084611461A464FF473
:10290C007F03FDF77FFDFA88FB8A1344FB80F9886F
:10291C00BA887B7A30336FF07F40009008461146BE
:10292C001A464FF47F03FDF76DFDFA88FB8A1344BA
:10293C00FB80FA88FB8A1344FB803B8A1B099BB201
:10294C00DBB23B723B8ADBB203F00F03DBB27B7270
:10295C00264B1B78DBB2032B26D13B8A03F00103F9
:10296C009BB2002B20D0FA88BB880F210091104617
:10297C0019464FF478424EF67D73FEF7DBFCFA886D
:10298C00FB8A1344FB80FA88BB880F210091104608
:10299C0019464FF478424EF67D73FEF7CBFCFA885D
:1029AC00FB8A1344FB801DE03B7A1946FA88BB88EE
:1029BC000091104619464FF478424EF67D73FEF79F
:1029CC00B9FCFA88FB8A1344FB807B7A1946FA8897
:1029DC00BB880091104619464FF478424EF67D7331
:1029EC00FEF7A8FC1837BD4680BD00BF9C04002034
:1029FC0044B5010880B485B000AF78607B6803F4FF
:102A0C0078031A0A7B6803F47C435B091A437B68DE
:102A1C0003F0F803DB081343FB60FB68184614371C
:102A2C00BD465DF8047B704780B485B000AF78601C
:102A3C007B6803F478031A0A7B6803F47C435B0914
:102A4C001A437B6803F0F803DB081343FB60FB6855
:102A5C0018461437BD465DF8047B704780B5ADF55C
:102A6C00167D00AF3B1D18600023C7F83C320023D5
:102A7C00C7F854320023C7F850320023C7F8383255
:102A8C000023C7F84C3207F108023B1D10461968A9
:102A9C00012208F045F8034687F84B3207F108018C
:102AAC0007F50D7207F22E2308461146022208F094
:102ABC007BF9034687F84B3207F1080107F50E72D4
:102ACC0007F22E2308461146042208F06DF903463E
:102ADC0087F84B3207F1080107F50D7207F22E2328
:102AEC0008461146042208F05FF9034687F84B327A
:102AFC0007F1080107F50F7207F22E23084611465D
:102B0C00042208F051F9034687F84B320023C7F82A
:102B1C00543212E007F1080107F50D7207F22E236B
:102B2C0008461146012208F03FF9034687F84B325C
:102B3C00D7F854320133C7F85432D7F85432272B14
:102B4C00E8D9D7F83822D7F83C32D21A2C4BA3FB51
:102B5C0002135B08C7F85032002000214FF4A0721A
:102B6C00F023FFF725FA0023C7F844320023C7F8F7
:102B7C003C3233E007F1080107F50C7207F22E2303
:102B8C0008461146032208F00FF9034687F84B322A
:102B9C0097F832321A0497F831321B021A4497F81C
:102BAC0030321344C7F84C32D7F84C02FFF722FFEF
:102BBC000346A7F84232B7F842321B0A9BB2DBB28B
:102BCC001846FEF7ABFEB7F84232DBB21846FEF7FA
:102BDC00A5FED7F83C320133C7F83C32D7F83C227B
:102BEC00D7F850329A42C5D307F10803184608F0BB
:102BFC0031FC034687F84B3207F51677BD4680BD8E
:102C0C00ABAAAAAA80B582B000AF0023FB713B46E9
:102C1C000120194603F060F93B78FB713B462D20EF
:102C2C0014211A46FFF7E0FC0837BD4680BD00BFF3
:102C3C0080B582B000AF3B1D0020194603F054FA5A
:102C4C003B1D372064211A46FFF772FC0837BD463E
:102C5C0080BD00BF80B485B000AF0346FB71FB792B
:102C6C001B09FB73FB7B5B00DAB2FB7B1344DBB20F
:102C7C005B00DBB2FA79D31ADBB218461437BD46C7
:102C8C005DF8047B704700BF80B483B000AF03468F
:102C9C00FB71FA790C4BA3FB0213DB08DBB21B01B3
:102CAC00D8B2FA79084BA3FB0213D9080B469B0048
:102CBC000B445B00D31ADBB20344DBB218460C376F
:102CCC00BD465DF8047B7047CDCCCCCC80B483B0D2
:102CDC0000AF0346FB710D4B0C4A126822F0040244
:102CEC001A60FB799B08DAB2094B1A70084B1B78F7
:102CFC001A465201D21A92001344DB009AB2054BC9
:102D0C001A800C37BD465DF8047B704710E000E07C
:102D1C009E040020A004002080B485B000AF0346C0
:102D2C00FB80124BFA881249098801FB02F25A60A7
:102D3C000E4B00229A600D4B01221A600B4B1B6844
:102D4C00FB60FB6803F00103002B04D0FB6803F469
:102D5C008033002BF2D0054B00221A60034B00226B
:102D6C009A601437BD465DF8047B704710E000E0B4
:102D7C00A004002080B485B000AF7860124B134AD9
:102D8C001278796801FB02F25A600F4B00229A60AC
:102D9C000D4B01221A600C4B1B68FB60FB6803F0A7
:102DAC000103002B04D0FB6803F48033002BF2D01A
:102DBC00054B00221A60044B00229A601437BD4662
:102DCC005DF8047B704700BF10E000E09E0400201B
:102DDC0080B582B000AF0520012102F07DFC4FF4DC
:102DEC008050012102F096FC20233B6002233B71B2
:102DFC0003237B710023BB710123FB713B461F48EE
:102E0C00194601F03DFE40233B603B461B481946EA
:102E1C0001F036FE80233B603B461848194601F012
:102E2C002FFE10233B6001233B710023BB71012358
:102E3C00FB7103237B713B461148194601F020FEC0
:102E4C004FF400633B6000233B710123FB713B4655
:102E5C000A48194601F014FE08480521052201F024
:102E6C0089FF06480621052201F084FF034807214B
:102E7C00052201F07FFF0837BD4680BD00000240EF
:102E8C000008024080B586B000AF0023BB804FF431
:102E9C008273FB8000233B8102237B810123BB8156
:102EAC004FF40073FB8100233B8200237B820723BA
:102EBC00BB823B1D0548194604F040F8034801212C
:102ECC0004F064F91837BD4680BD00BF00300140E6
:102EDC0080B58EB002AF00F0F1FD002000F0ACFA2E
:102EEC00012000F0A9FA00F085FA1020012102F06F
:102EFC002FFCB44804F07AFEB24B80225A60B14BDE
:102F0C000A221A80AF4B00221A81AE4B00225A8043
:102F1C00AD48AC4904F018FEAB48202105F0DEFEAC
:102F2C00A9480121012205F03BFDA748012104F02D
:102F3C0071FF01F011F8A54B04221A60A34B00227B
:102F4C005A60A24B0022DA60A14801F01BFAA14B97
:102F5C00A14A1A60A14A9F4B5A609E4B10229A605C
:102F6C009C4B4FF40072DA609A4B00221A61994B19
:102F7C0080225A61974B4FF480729A61954B4FF4B3
:102F8C008062DA61934B00221A62924B4FF400522A
:102F9C005A62904B00229A628D488E4901F0AEFA2B
:102FAC008B480221012201F049FB0C2387F82030C9
:102FBC00012387F82130032387F82230012387F877
:102FCC0023300020012101F023F9FFF701FFFFF767
:102FDC0059FF83488349012207F060FD034687F8B7
:102FEC002F3081488149012207F09AFD034687F86A
:102FFC002F307D4BDB68BB627B48002108F08AFADE
:10300C00034687F82F3007F12403774873494FF4B0
:10301C00806207F0C9FE034687F82F306F4800F036
:10302C00B7FE07F12403704871494FF4806207F032
:10303C00BBFE034687F82F306D4800F0A9FE07F160
:10304C002003184600F0D8FE6148012101F0BEFAB9
:10305C0000205E4900F08EFF0020012100F0D2FF1D
:10306C00644B00221A70644B00221A70614B1B785F
:10307C00002B00F09980604B1B7883F00103DBB2CE
:10308C009A02564B1A4407F12403574811464FF441
:10309C00806207F089FE584B1B7883F00103DBB28A
:1030AC009A024E4B1344184600F072FE514B00220C
:1030BC001A707B6AB3F5806F76D200BF00200021B6
:1030CC0000F0A0FF4248002101F080FA40480221A4
:1030DC00002201F0B3FA444808F0BCF9034687F823
:1030EC002F301020FFF7F2FDFEF7D6FD0020FFF782
:1030FC00BDF800F0B1F800F037F9002300932D2053
:10310C0014213E4A6FF07F43FDF77CF90320002128
:10311C0000F010FA0120002100F00CFA022000212E
:10312C0000F008FA0120012102F012FB1C2387F8A1
:10313C002030002387F82130012387F82230012327
:10314C0087F8233007F12003184600F055FE64235E
:10315C00BB800023FB8040F60453BB600023BB8183
:10316C003B1D4FF08040194604F0EEFC4FF08040C0
:10317C000121012205F014FC4FF08040012104F0E4
:10318C0049FE1F480521052201F0F4FD1C480621CB
:10319C00052201F0EFFD1A480721052201F0EAFD96
:1031AC001848FFF75BFC00E060E7174B1B78DBB2BD
:1031BC00002B05D0FFF726FD134B00221A70F4E705
:1031CC00F3E700BF30070020001000403C07002050
:1031DC001C600240580F002008740040900F002023
:1031EC00AC04002090B501089017002094B501089C
:1031FC0090130020540F00208C0F0020A0B5010864
:10320C0000000240A8B50108A904002080B483B0D6
:10321C0000AF78607A68064B1A6000BF044B1B68DD
:10322C00002BFBD10C37BD465DF8047B704700BF0B
:10323C00A404002080B400AF064B1B68002B04D004
:10324C00044B1B685A1E034B1A60BD465DF8047B89
:10325C00704700BFA404002080B584B000AF4FF0CD
:10326C008050012102F074FA0120012102F052FA7F
:10327C00012001F0D3FD4FF4803002F0DBF9012086
:10328C0001F0FEFF00BF492002F058FB0346002B63
:10329C00F9D0012002F000FA02F0E8FC304B7F225A
:1032AC005A602F4BFF229A602D4B00221A602C483B
:1032BC0002F02CFC2B4B4022DA702A4B12221A7093
:1032CC00284B00225A70274B00229A700120254966
:1032DC0002F062FD0E23FB7007237B700523BB708D
:1032EC0006233B703B460020194602F057FE4FF474
:1032FC00801001F039FB4FF480137B6000233B728C
:10330C0008237B720123BB723B1D184601F054FA53
:10331C0003233B7300237B730023BB730123FB73D9
:10332C0007F10C03184600F067FD042003F0E4F8E5
:10333C00002003F001F94FF48040012103F0BEFCA2
:10334C004FF48070002103F043F84FF4007000211B
:10335C0003F03EF8012003F013F91037BD4680BD91
:10336C00200700202C07002080B588B000AF4FF458
:10337C00003001F0F9FA4FF40033BB6100233B77C6
:10338C0008237B770123BB7707F11803184601F05C
:10339C0013FA29233B7107237B710023BB71012393
:1033AC00FB713B1D184600F027FD4FF08033FB608E
:1033BC0000233B6101233B7500233B7200237B728E
:1033CC000023BB7207F1080301204FF480711A46E9
:1033DC0002F0D8FE4FF48070FF214FF0A06203F092
:1033EC0045F84FF48050012103F068FC2037BD46AE
:1033FC0080BD00BF80B582B000AF4FF0807001215E
:10340C0002F06AF94FF00050012102F0A1F90120FD
:10341C00012102F061F910233B6003233B7100236F
:10342C00FB713B460348194601F02AFB0837BD46A1
:10343C0080BD00BF0000024080B584B000AF0346E1
:10344C00FB71FA79104B53F822301846012102F027
:10345C0043F9FA790D4B33F81230BB6001233B73FF
:10346C000023BB730023FB7303237B73FA79084B94
:10347C0053F8222007F108031046194601F000FB0F
:10348C001037BD4680BD00BFB8B50108B4B5010802
:10349C000000002080B483B000AF0346FB71FA79C2
:1034AC00064B53F82230F979054A32F811201A8369
:1034BC000C37BD465DF8047B704700BF0000002050
:1034CC00B4B5010880B483B000AF0346FB71FA7940
:1034DC00064B53F82230F979054A32F811205A83F9
:1034EC000C37BD465DF8047B704700BF0000002020
:1034FC00B4B5010880B483B000AF0346FB71FA7910
:10350C000A4B53F82230F979084A52F82120928A52
:10351C0091B2F879064A32F810204A4092B29A8257
:10352C000C37BD465DF8047B704700BF00000020DF
:10353C00B4B5010880B588B000AF02460B46FA71ED
:10354C00BB71FA792C4B53F822301846012102F04A
:10355C00C3F80120012102F0DDF800233B77FB7951
:10356C00002B02D10023FB7701E00123FB77FA79D2
:10357C00224B33F81230BB61FA79214B53F82220DD
:10358C0007F118031046194601F07AFABB79012BA2
:10359C002ED1FA791B4B33F81230DAB2F9791A4B77
:1035AC0033F81130DBB21046194604F05DF8FA79A5
:1035BC00164B33F812303B6100233B750C237B75A3
:1035CC000123BB7507F11003184601F0F5F8FA79E1
:1035DC000F4B33F81230DBB23B7307237B730123A1
:1035EC00BB730123FB7307F10C03184600F004FCBA
:1035FC002037BD4680BD00BFC8B50108C0B5010865
:10360C0008000020E0B50108E8B50108D8B50108AC
:10361C00F0B5010880B582B000AF0346FB71FA79B2
:10362C00074B53F82220F979064B33F8113010462A
:10363C00194601F0F5FA034618460837BD4680BD19
:10364C0008000020C0B5010880B400AFBD465DF88D
:10365C00047B704780B400AFFEE700BF80B400AFBE
:10366C00FEE700BF80B400AFFEE700BF80B400AF40
:10367C00FEE700BF80B400AFBD465DF8047B704729
:10368C0080B400AFBD465DF8047B704780B400AFDA
:10369C00BD465DF8047B704780B500AF09F014FBA4
:1036AC0080BD00BF80B500AF4FF4804003F07EFBBF
:1036BC000346002B0AD04FF4804003F0AFFB4FF4CD
:1036CC00801001F051F9024B01221A7080BD00BF2D
:1036DC00A904002080B500AF202001F011F80346AA
:1036EC00002B42D0202001F035F8204B1B78DBB2A8
:1036FC00002B03D00020FFF7CDFE02E00020FFF7E7
:10370C00E1FE1A4B1B78DBB2002B0CBF002301230C
:10371C00DBB283F00103DBB203F00103DAB2134B2B
:10372C001A70134B00221A60114B4FF400725A603E
:10373C000F4B104A9A60104B1B78DBB283F00103DD
:10374C00DAB20D4B1A700A4B0B4A1278D2B29102B4
:10375C000A4A0A44DA60064B42F293521A60084B4A
:10376C0020225A60074B01221A7080BDE806002007
:10377C001C600240087400408C0F0020900F002049
:10378C0000600240540F002080B582B000AF4FF0B3
:10379C008040012105F062F90346002B00F089817D
:1037AC004FF08040012105F083F9AE4B1B785B0094
:1037BC00DBB203F00F03DAB2AB4B1B8A9BB25B0894
:1037CC009BB2DBB203F00103DBB21343DBB2DAB220
:1037DC00A44B1A70A34B1B78012B76D13B460120CE
:1037EC00194602F079FBA14B1B78022B25D0032B39
:1037FC0044D0012B00D044E03B78BB71BB79184618
:10380C00FFF728FA0346BB71BB79591C984B81FB17
:10381C0003230B445A11CB17D21A13461B019B1AC4
:10382C009B00CA1A1346BB71BB791846FFF72CFADA
:10383C000346BB71BB793B7023E07B78FB71FB7952
:10384C001846FFF707FA0346FB71FB79591C884BA6
:10385C0081FB03230B445A11CB17D21A13461B01BD
:10386C009B1A9B00CA1A1346FB71FB791846FFF78B
:10387C000BFA0346FB71FB797B7002E00023BB70F3
:10388C0000BF3B460120194602F086FA794B012213
:10389C001A70794B1B78DBB2002B03D00020FFF79A
:1038AC00F9FD02E00020FFF70DFE734B1B78DBB235
:1038BC00002B0CBF00230123DBB283F00103DBB22E
:1038CC0003F00103DAB26C4B1A706C4B1B785B0083
:1038DC00DBB203F00F03DAB2634B1B8A9BB29B087B
:1038EC009BB2DBB203F00103DBB21343DBB2DAB2FF
:1038FC00624B1A70614B1B78012B40F082803B4667
:10390C000120194602F0E8FA584B1B78022B2AD0FA
:10391C00032B4FD0012B00D04FE03B78BB71BB7910
:10392C001846FFF797F90346BB71FB79002B0FD0B4
:10393C00BB79591E524B83FB01039A10CB17D21A39
:10394C0013465B001344DB00CA1A1346BB7101E03B
:10395C001723BB71BB791846FFF796F90346BB7169
:10396C00BB793B7029E07B78FB71FB791846FFF73C
:10397C0071F90346FB71FB79002B10D0FB79591EB2
:10398C003B4B81FB03230B445A11CB17D21A134622
:10399C001B019B1A9B00CA1A1346FB7101E03B23C7
:1039AC00FB71FB791846FFF76FF90346FB71FB7946
:1039BC007B7002E00023BB7000BF3B460120194620
:1039CC0002F0EAF92B4B01221A702B4B1B78DBB25D
:1039DC00002B03D00020FFF75DFD02E00020FFF775
:1039EC0071FD254B1B78DBB2002B0CBF0023012390
:1039FC00DBB283F00103DBB203F00103DAB21E4B3E
:103A0C001A70204B1B785B00DBB203F00F03DAB2A9
:103A1C00154B1B8A9BB2DB089BB2DBB203F0010394
:103A2C00DBB21343DBB2DAB2164B1A70154B1B78B0
:103A3C00012B3ED10D4B1B78591C134B83FB010200
:103A4C00CB17D21A13465B001344CA1AD2B2074BD7
:103A5C001A70094B1B78DBB2002B17D00120FFF733
:103A6C0019FD16E0E9060020000002409C0400202D
:103A7C0089888888A9040020E8060020EA0600202E
:103A8C00ABAAAA2AEB060020565555550120FFF784
:103A9C0019FD094B1B78DBB2002B0CBF0023012353
:103AAC00DBB283F00103DBB203F00103DAB2024BA9
:103ABC001A700837BD4680BDE806002080B500AFFF
:103ACC00144B144A126842F480721A60114A114B5A
:103ADC009968114B0B4093600E4A0E4B1B6823F0F8
:103AEC00885323F0011313600A4B0A4A126822F41C
:103AFC0080221A60074B074A926822F47D029A6072
:103B0C00044B0022DA6000F0B5F8044B4FF0006271
:103B1C009A6080BD003802400CC0FF8800ED00E0C8
:103B2C0080B487B000AF00237B6100233B6100238E
:103B3C00FB600023BB6000237B60484B9B6803F059
:103B4C000C037B617B690C2B64D801A252F823F027
:103B5C00913B0008213C0008213C0008213C000856
:103B6C00B13B0008213C0008213C0008213C000826
:103B7C00B93B0008213C0008213C0008213C00080E
:103B8C00C13B0008354B5B6803F460435B0B7B6007
:103B9C007B6801334FF4004202FA03F31A46304BB0
:103BAC001A6047E02E4B2F4A1A6043E02C4B2E4AEA
:103BBC001A603FE0294B9B6803F470133B61274B61
:103BCC009B6803F44003FB603B699B0C274AD35C66
:103BDC00DBB23B61FB689B0D0133FB601F4B9B68A9
:103BEC0003F48033BB60BB68002B09D13B691D4AD1
:103BFC0002FB03F2FB68B2FBF3F2194B1A6019E0FB
:103C0C003B69194A02FB03F2FB68B2FBF3F2144B5B
:103C1C001A600FE0114B5B6803F460435B0B7B6035
:103C2C007B6801334FF4004202FA03F31A460C4B43
:103C3C001A6000BF094B9B6803F0F0031B090C4A88
:103C4C00D35CDBB27B61064B1A687B69DA40044BB0
:103C5C001A601C37BD465DF8047B70470038024083
:103C6C00180000200024F40000127A001C00002030
:103C7C002800002080B483B000AF00237B600023B9
:103C8C003B60404B3F4A126842F001021A603D4BC8
:103C9C001B6803F002033B603B68002B03D17B687D
:103CAC00B3F5A06FF3D1374B1B6803F00203002B65
:103CBC0002D001233B6001E000233B603B68012BF9
:103CCC005AD1314B304A126842F004021A602E4B22
:103CDC002D4A126842F002021A602B4B2A4A1268D3
:103CEC0042F001021A60274B264A526A42F0805277
:103CFC005A62264B4FF400621A6000BF234B5B687C
:103D0C0003F01003002BF9D11E4B1E4A92689A60E7
:103D1C001C4B1C4A92689A601A4B1A4A92689A6019
:103D2C00184B184A926822F47D029A60154B154A7A
:103D3C00926842F488029A60124B124A126842F05E
:103D4C0080721A6000BF0F4B1B6803F00073002BCE
:103D5C00F9D00C4B0B4A926822F003029A60094B83
:103D6C00084A926842F003029A6000BF054B9B68B8
:103D7C0003F00C030C2BF9D10C37BD465DF8047B1A
:103D8C00704700BF00380240003C02400070004009
:103D9C0080B485B000AF78600023FB8111E0FB8913
:103DAC005B007A681344FA89520079680A441288D5
:103DBC0012B202F50042121192B21A80FB89013341
:103DCC00FB81FB89B3F5007FE9D31437BD465DF861
:103DDC00047B704780B483B000AF7860054A7B6881
:103DEC0043F0BF6343F40033D3600C37BD465DF83A
:103DFC00047B704700ED00E080B485B000AF7860C4
:103E0C000023FB730023BB730F237B737B68DB786E
:103E1C00002B37D0254BDB68DB4303F4E0631B0A34
:103E2C00FB73FB7BC3F10403BB737A7BFB7B42FA12
:103E3C0003F37B737B685B781A46BB7B02FA03F354
:103E4C00FB737B689A787B7B1340DAB2FB7B134362
:103E5C00FB73FB7B1B01FB73154A7B681B781344BC
:103E6C00FA7B83F80023124B7A6812785209D2B28B
:103E7C007968097801F01F01012000FA01F143F87B
:103E8C0022100EE00A4B7A6812785209D2B2796885
:103E9C00097801F01F01012000FA01F1203243F8EA
:103EAC0022101437BD465DF8047B704700ED00E02E
:103EBC0000E100E080B483B000AF78603960074A5D
:103ECC003B6823F0604323F07F0379680B439360D6
:103EDC000C37BD465DF8047B704700BF00ED00E079
:103EEC0080B483B000AF02460B46FA71BB71BB794C
:103EFC00002B06D0094B094A1169FA790A431A6159
:103F0C0006E0064B054A1169FA79D2430A401A6158
:103F1C000C37BD465DF8047B704700BF00ED00E038
:103F2C0080B483B000AF78607B68042B06D1094B5A
:103F3C00084A126842F004021A6005E0054B054A73
:103F4C00126822F004021A600C37BD465DF8047B3F
:103F5C00704700BF10E000E080B500AF4FF000509C
:103F6C00012101F04FFC4FF00050002101F04AFC00
:103F7C0080BD00BF80B485B000AF7860396000238D
:103F8C00FB600023BB60134B1B68FB607B6840F637
:103F9C00FE7202FA03F3DB43FA681340FB603B68E2
:103FAC001A683B685B681A433B689B681A433B681A
:103FBC00DB681343BB607B68BA6802FA03F3FA68E8
:103FCC001343FB60034BFA681A601437BD465DF867
:103FDC00047B70470074004080B483B000AF7860FD
:103FEC007B6800221A607B6800225A607B68002282
:103FFC009A607B680022DA600C37BD465DF8047B62
:10400C00704700BF80B483B000AF78600B46FB7084
:10401C00FB78002B09D00C4B0B4A11687A680120F5
:10402C0000FA02F20A431A6009E0074B064A1168CB
:10403C007A68012000FA02F2D2430A401A600C3767
:10404C00BD465DF8047B70470074004080B483B0BB
:10405C0000AF78600B46FB70FB78002B0AD00D4B41
:10406C000C4A51687A681209012000FA02F20A43DC
:10407C005A600AE0074B074A51687A681209012016
:10408C0000FA02F2D2430A405A600C37BD465DF882
:10409C00047B70470074004080B483B000AF0346CB
:1040AC00FB71FB79002B06D0084B084A526842F092
:1040BC0003025A6005E0054B044A526822F00302E1
:1040CC005A600C37BD465DF8047B704700740040A5
:1040DC0080B485B000AFF860B9601346FB71FB7912
:1040EC00002B09D00C4B0C4A1168FA68B86800FA1E
:1040FC0002F20A431A6009E0074B074A1168FA6892
:10410C00B86800FA02F2D2430A401A601437BD466E
:10411C005DF8047B704700BF0074004080B485B02C
:10412C0000AF78600B467B800023FB60074BFB6085
:10413C00FA687B6813440833FB60FB687A881A6062
:10414C001437BD465DF8047B704700BF0074004017
:10415C0080B485B000AF78600B467B800023FB6099
:10416C00074BFB60FA687B6813441433FB60FB68F5
:10417C007A881A601437BD465DF8047B704700BF1F
:10418C000074004080B485B000AF786013460A46D6
:10419C007A803B800023FB600023BB607B68082B8C
:1041AC0005D17B881A023B881343FB6004E07B88B3
:1041BC001A043B881343FB60074BBB607A68BB68EF
:1041CC0013442033BB60BB68FA681A601437BD46D1
:1041DC005DF8047B704700BF0074004080B485B06C
:1041EC0000AF78600023FB60084BFB607B689A088B
:1041FC00FB6813442C33FB60FB681B689BB21846AE
:10420C001437BD465DF8047B704700BF0074004056
:10421C0080B483B000AF78600B46FB70FB78002B4A
:10422C000AD00D4B0C4A11687A684FF4805000FA92
:10423C0002F20A431A600AE0074B074A11687A68CF
:10424C004FF4805000FA02F2D2430A401A600C3745
:10425C00BD465DF8047B70470074004080B485B0A7
:10426C0000AFF860B9601346FB71FB79002B09D0E5
:10427C000C4B0C4A1168FA68B86800FA02F20A434F
:10428C001A6009E0074B074A1168FA68B86800FA27
:10429C0002F2D2430A401A601437BD465DF8047B23
:1042AC00704700BF0074004080B485B000AF7860E8
:1042BC0039600023FB730A4B5A6B7B68396801FA2F
:1042CC0003F31340002B02D00123FB7301E0002306
:1042DC00FB73FB7B18461437BD465DF8047B7047B7
:1042EC000074004080B483B000AF78603960054B37
:1042FC007A68396801FA02F25A630C37BD465DF8E8
:10430C00047B70470074004080B485B000AF7860C7
:10431C0039600023FB730023BB60104B1A687B6869
:10432C00396801FA03F31340BB600C4B5A6B7B6882
:10433C00396801FA03F31340002B05D0BB68002B3E
:10434C0002D00123FB7301E00023FB73FB7B1846B7
:10435C001437BD465DF8047B704700BF0074004005
:10436C0080B483B000AF78603960054B7A683968E7
:10437C0001FA02F25A630C37BD465DF8047B7047B4
:10438C000074004080B483B000AF78607B681A681A
:10439C004FF6FE7313407A6813607B6800221A6034
:1043AC007B6800225A607B6800229A607B6800223E
:1043BC00DA607A68434B9A4206D1434B424A5268C0
:1043CC0042F00F025A6077E07A68404B9A4206D16D
:1043DC003D4B3D4A526842F0F0025A606CE07A68FC
:1043EC003B4B9A4206D1384B374A526842F47062C2
:1043FC005A6061E07A68374B9A4206D1324B324AA6
:10440C00526842F470425A6056E07A68324B9A42D3
:10441C0006D12D4B2C4A526842F470225A604BE064
:10442C007A682E4B9A4206D1274B274A526842F49F
:10443C0070025A6040E07A68294B9A4206D1224BAE
:10444C00214A526842F070625A6035E07A68254B16
:10445C009A4206D1244B244A526842F00F025A6009
:10446C002AE07A68214B9A4206D11F4B1E4A5268A9
:10447C0042F0F0025A601FE07A681D4B9A4206D156
:10448C00194B194A526842F470625A6014E07A6807
:10449C00184B9A4206D1144B134A526842F470429C
:1044AC005A6009E07A68144B9A4205D10E4B0E4AB9
:1044BC00526842F470225A600C37BD465DF8047B9A
:1044CC00704700BF08600240006002401C60024060
:1044DC003060024044600240586002406C60024010
:1044EC008060024008640240006402401C64024088
:1044FC0030640240446402405864024080B485B089
:10450C0000AF786039600023FB607B681B68FB6040
:10451C00FB6823F4FF4323F07003FB603B689A684D
:10452C003B681B6A1A433B681B691A433B685B690F
:10453C001A433B689B691A433B68DB691A433B6827
:10454C005B6A1A433B689B6A1343FA681343FB602C
:10455C007B68FA681A603B68DA687B685A603B686B
:10456C001A687B689A603B685A687B68DA60143713
:10457C00BD465DF8047B704780B483B000AF7860B3
:10458C007B6800221A607B6800225A607B680022DC
:10459C009A607B680022DA607B6800221A617B6873
:1045AC0000225A617B6800229A617B680022DA61E2
:1045BC007B6800221A627B6800225A627B680022A8
:1045CC009A620C37BD465DF8047B704780B483B0AB
:1045DC0000AF78600B46FB70FB78002B06D07B6835
:1045EC001B6843F001027B681A6006E07B681A685E
:1045FC004FF6FE7313407A6813600C37BD465DF8B6
:10460C00047B704780B483B000AF78600B467B802E
:10461C007A887B685A600C37BD465DF8047B70471E
:10462C0080B483B000AF78607B685B689BB218463F
:10463C000C37BD465DF8047B704700BF80B485B075
:10464C0000AFF860B9601346FB71FB79002B06D004
:10465C00FB681A68BB681A43FB681A6006E0FB68C3
:10466C001A68BB68DB431A40FB681A601437BD46F6
:10467C005DF8047B704700BF80B485B000AF7860F4
:10468C000023FB730023BB607B6803F08053002B7B
:10469C0003D10C4B1B68BB6002E00B4B1B68BB606F
:1046AC00BA687B681340002B02D00123FB7301E036
:1046BC000023FB73FB7B18461437BD465DF8047B67
:1046CC00704700BF006002400064024080B483B0B9
:1046DC0000AF78607B6803F08053002B03D1064B4E
:1046EC007A685A6002E0054B7A685A600C37BD460E
:1046FC005DF8047B704700BF00600240006402401C
:10470C0080B485B000AF78600023FB730023BB60DE
:10471C007B6803F08053002B03D10C4B1B68BB60F0
:10472C0002E00B4B1B68BB60BA687B681340002B24
:10473C0002D00123FB7301E00023FB73FB7B1846C3
:10474C001437BD465DF8047B704700BF0060024023
:10475C000064024080B483B000AF78607B6803F0E3
:10476C008053002B03D1064B7A685A6002E0054B4C
:10477C007A685A600C37BD465DF8047B704700BF01
:10478C00006002400064024080B400AF094B00227C
:10479C001A60084B00225A60064B00229A60054BA7
:1047AC000022DA60034B6FF07F425A61BD465DF820
:1047BC00047B70470004014080B485B000AF786082
:1047CC000023FB60324BFB607B689B79002B4DD048
:1047DC002F4B2F4A11687A681268D2430A401A602C
:1047EC002B4B2B4A51687A681268D2430A405A60A4
:1047FC007B681B79FA681344FB60FB68FA681168E4
:10480C007A6812680A431A60214B214A91687A68C7
:10481C001268D2430A409A601D4B1D4AD1687A68CF
:10482C001268D2430A40DA607B685B79102B0ED198
:10483C00174B174A91687A6812680A439A60144BAE
:10484C00134AD1687A6812680A43DA601BE0104B8D
:10485C00FB607B685B79FA681344FB60FB68FA6861
:10486C0011687A6812680A431A600CE07B681B793D
:10487C00FA681344FB60FB68FA6811687A6812687E
:10488C00D2430A401A601437BD465DF8047B70476A
:10489C000004014080B483B000AF78607B680022D4
:1048AC001A607B6800221A717B680C225A717B6833
:1048BC0000229A710C37BD465DF8047B704700BF2F
:1048CC0080B483B000AF7860054B054A11697A68F3
:1048DC000A431A610C37BD465DF8047B704700BF74
:1048EC000004014080B485B000AF78600023FB73F6
:1048FC00084B5A697B681340002B02D00123FB73D1
:10490C0001E00023FB73FB7B18461437BD465DF8B2
:10491C00047B70470004014080B483B000AF786022
:10492C00034B7A685A610C37BD465DF8047B7047BF
:10493C000004014080B485B000AF78600023FB73A5
:10494C00084B5A697B681340002B02D00123FB7380
:10495C0001E00023FB73FB7B18461437BD465DF862
:10496C00047B70470004014080B483B000AF7860D2
:10497C00034B7A685A610C37BD465DF8047B70476F
:10498C000004014080B582B000AF78607A68344B87
:10499C009A4208D10120012100F0F8FE01200021EB
:1049AC0000F0F4FE59E07A682E4B9A4208D10220AE
:1049BC00012100F0EBFE0220002100F0E7FE4CE0AC
:1049CC007A68294B9A4208D10420012100F0DEFEBE
:1049DC000420002100F0DAFE3FE07A68234B9A4273
:1049EC0008D10820012100F0D1FE0820002100F0A0
:1049FC00CDFE32E07A681E4B9A4208D1102001217C
:104A0C0000F0C4FE1020002100F0C0FE25E07A6802
:104A1C00184B9A4208D14020012100F0B7FE4020EB
:104A2C00002100F0B3FE18E07A68134B9A4208D1CB
:104A3C008020012100F0AAFE8020002100F0A6FEBB
:104A4C000BE07A680D4B9A4207D12020012100F02F
:104A5C009DFE2020002100F099FE0837BD4680BD48
:104A6C00000002400004024000080240000C02401A
:104A7C000010024000180240001C024000140240CA
:104A8C0080B487B000AF7860396000237B6100236D
:104A9C003B610023FB6000237B617CE07B6901228E
:104AAC0002FA03F33B613B681A683B691340FB60F5
:104ABC00FA683B699A426BD17B681A687B695B0028
:104ACC00032101FA03F3DB431A407B681A607B680D
:104ADC001A683B681B7919467B695B0001FA03F382
:104AEC001A437B681A603B681B79012B03D03B6827
:104AFC001B79022B34D17B689A687B695B0003219C
:104B0C0001FA03F3DB431A407B689A607B689A686E
:104B1C003B685B7919467B695B0001FA03F31A4326
:104B2C007B689A607B689B889AB27B699BB20121F7
:104B3C0001FA03F39BB2DB439BB213409AB27B683E
:104B4C009A807B689B889AB23B689B7919467B69F3
:104B5C009BB201FA03F39BB213439AB27B689A801F
:104B6C007B68DA687B699BB25B00032101FA03F373
:104B7C00DB431A407B68DA607B68DA683B68DB7978
:104B8C0019467B695B0001FA03F31A437B68DA6010
:104B9C007B6901337B617B690F2B7FF67FAF1C3701
:104BAC00BD465DF8047B704780B483B000AF78607D
:104BBC007B684FF6FF721A607B6800221A717B6863
:104BCC0000225A717B6800229A717B680022DA718C
:104BDC000C37BD465DF8047B704700BF80B485B0D0
:104BEC0000AF78600B467B804FF48033FB607A8893
:104BFC00FB681343FB60FA687B68DA617A887B6830
:104C0C00DA61FA687B68DA617B68DB69FB607B6878
:104C1C00DB69FB601437BD465DF8047B704700BF51
:104C2C0080B485B000AF78600B467B800023FB73AB
:104C3C007B681B8A9AB27B8813409BB2002B02D0F4
:104C4C000123FB7301E00023FB73FB7B1846143735
:104C5C00BD465DF8047B704780B483B000AF7860CC
:104C6C007B681B8A9BB218460C37BD465DF8047BEB
:104C7C00704700BF80B485B000AF78600B467B8076
:104C8C000023FB737B689B8A9AB27B8813409BB290
:104C9C00002B02D00123FB7301E00023FB73FB7B91
:104CAC0018461437BD465DF8047B704780B483B05A
:104CBC0000AF78607B689B8A9BB218460C37BD4668
:104CCC005DF8047B704700BF80B483B000AF7860A0
:104CDC000B467B807B687A881A830C37BD465DF85F
:104CEC00047B704780B483B000AF78600B467B8048
:104CFC007B687A885A830C37BD465DF8047B704715
:104D0C0080B483B000AF786013460A467A807B701B
:104D1C007B78002B03D07B687A881A8302E07B684F
:104D2C007A885A830C37BD465DF8047B704700BF08
:104D3C0080B483B000AF78600B467B807B687A8848
:104D4C009A820C37BD465DF8047B704780B483B003
:104D5C0000AF78600B467B807B689B8A9AB27B881D
:104D6C0053409AB27B689A820C37BD465DF8047B3F
:104D7C00704700BF80B485B000AF786013460A4618
:104D8C007A807B700023FB600023BB607A787B8881
:104D9C0003F007039B0002FA03F3FB607B88DB083C
:104DAC009BB21A467B88DB089BB219467B6808319C
:104DBC0053F821107B8803F007039B000F2000FAA7
:104DCC0003F3DB4319407B68083243F822107B88DD
:104DDC00DB089BB21A467B68083253F82220FB682A
:104DEC001343BB607B88DB089BB21A467B68083296
:104DFC00B96843F822101437BD465DF8047B704740
:104E0C0080B500AF4FF08050012100F0FBFC4FF05B
:104E1C008050002100F0F6FC80BD00BF80B483B050
:104E2C0000AF0346FB71044BFA791A600C37BD4690
:104E3C005DF8047B704700BF20000E4280B485B043
:104E4C0000AF78600023FB60094B1B68FB60FB68BC
:104E5C0023F0E003FB60FA687B681343FB60044BB0
:104E6C00FA681A601437BD465DF8047B704700BFC2
:104E7C000070004080B483B000AF0346FB71044B5C
:104E8C00FA791A600C37BD465DF8047B704700BF99
:104E9C0010000E4280B485B000AF78600B46FB70FA
:104EAC000023FB607A68054B1344FB60FB68FA78BF
:104EBC001A601437BD465DF8047B7047A0000E42A3
:104ECC0080B483B000AF0346FB71044BFA791A60CF
:104EDC000C37BD465DF8047B704700BF28000E42BE
:104EEC0080B483B000AF0346FB71044BFA791A60AF
:104EFC000C37BD465DF8047B704700BF24000E42A2
:104F0C0080B485B000AF78600023FB600A4B1B684F
:104F1C00FB60FB6823F4C053FB60FA687B681343A7
:104F2C00FB60054BFA6822F00C021A601437BD4680
:104F3C005DF8047B704700BF0070004080B483B004
:104F4C0000AF0346FB71FB79002B0CD00E4B0E4AC5
:104F5C00126842F001021A600B4B0B4A126842F4C1
:104F6C0080421A600BE0084B074A126822F4804218
:104F7C001A60054B044A126822F001021A600C37C1
:104F8C00BD465DF8047B70470070004080B485B06E
:104F9C0000AF78600B46FB700023FB600F4B1B6867
:104FAC00FB60FB6823F00303FB60FA687B68134328
:104FBC00FB600A4BFA681A60094B094A126922F025
:104FCC0004021A61FB78012B01D130BF00E020BF35
:104FDC001437BD465DF8047B704700BF007000407D
:104FEC0000ED00E080B485B000AF78600B46FB703C
:104FFC000023FB60124B1B68FB60FB6823F0030370
:10500C00FB60FA687B681343FB600D4BFA681A600F
:10501C000C4B0C4A126942F004021A61FB78012B0A
:10502C0001D130BF00E020BF064B064A126922F0C6
:10503C0004021A611437BD465DF8047B704700BF4B
:10504C000070004000ED00E080B400AF0B4B0B4A49
:10505C00126842F004021A60084B084A126842F0C7
:10506C0002021A60064B064A126942F004021A61E7
:10507C0030BFBD465DF8047B704700BF0070004038
:10508C0000ED00E080B485B000AF78600023FB73C6
:10509C00084B5A687B681340002B02D00123FB732A
:1050AC0001E00023FB73FB7B18461437BD465DF80B
:1050BC00047B70470070004080B483B000AF786010
:1050CC00054B054A11687A6892000A431A600C373E
:1050DC00BD465DF8047B70470070004080B400AFA3
:1050EC00134B134A126842F480721A60104A104B28
:1050FC009968104B0B4093600D4A0D4B1B6823F0C5
:10510C00885323F001131360094B094A126822F4E7
:10511C0080221A60064B064A926822F47D029A603D
:10512C00034B0022DA60BD465DF8047B704700BF7C
:10513C00003802400CC0FF8880B483B000AF034637
:10514C00FB71054B00221A70034BFA791A700C375D
:10515C00BD465DF8047B70470238024080B582B0D2
:10516C0000AF00233B600023FB710023BB71312097
:10517C0000F0E4FB0346BB713B6801333B603B68CA
:10518C00B3F5A06F02D0BB79002BF0D0312000F02A
:10519C00D5FB0346002B02D00123FB7101E0002359
:1051AC00FB71FB7918460837BD4680BD80B483B0CF
:1051BC0000AF0346FB71044BFA791A700C37BD46ED
:1051CC005DF8047B704700BF0738024080B485B09F
:1051DC0000AF78600023FB60094B5B68FB60FB68E9
:1051EC0023F46043FB60FA687B681343FB60044B59
:1051FC00FA685A601437BD465DF8047B704700BFEF
:10520C000038024080B483B000AF0346FB71044BFE
:10521C00FA791A600C37BD465DF8047B704700BF05
:10522C002000474280B485B000AF0346FB710023D9
:10523C00FB600A4B5B68FB60FB6823F4F853FB6074
:10524C00FB791B02FA681343FB60044BFA685A6043
:10525C001437BD465DF8047B704700BF0038024030
:10526C0080B483B000AF0346FB71044BFA791A602B
:10527C000C37BD465DF8047B704700BF0000474209
:10528C0080B483B000AF0346FB71054B00221A704B
:10529C00034BFA791A700C37BD465DF8047B7047E6
:1052AC003538024080B483B000AF0346FB71044B29
:1052BC00FA791A600C37BD465DF8047B704700BF65
:1052CC008006474280B483B000AF13460246FA71A1
:1052DC000A46BA717B71074BB9797A790A43D1B214
:1052EC00FA790A43D2B21A700C37BD465DF8047BCA
:1052FC00704700BF0A38024080B483B000AF034649
:10530C00FB71044BFA791A600C37BD465DF8047BCF
:10531C00704700BF6000474280B483B000AF0346C3
:10532C00FB71044BFA791A600C37BD465DF8047BAF
:10533C00704700BF7000474280B483B000AF034693
:10534C00FB71044BFA791A600C37BD465DF8047B8F
:10535C00704700BFAC06474280B483B000AF024632
:10536C000B46FA71BB71054BF979BA790A43D2B283
:10537C001A700C37BD465DF8047B70470B38024041
:10538C0080B485B000AF78600023FB60094B9B684C
:10539C00FB60FB6823F00303FB60FA687B68134334
:1053AC00FB60044BFA689A601437BD465DF8047BC9
:1053BC00704700BF0038024080B400AF054B9B68BB
:1053CC00DBB203F00C03DBB21846BD465DF8047B80
:1053DC00704700BF0038024080B485B000AF7860E1
:1053EC000023FB60094B9B68FB60FB6823F0F00318
:1053FC00FB60FA687B681343FB60044BFA689A60A5
:10540C001437BD465DF8047B704700BF003802407E
:10541C0080B485B000AF78600023FB60094B9B68BB
:10542C00FB60FB6823F4E063FB60FA687B68134362
:10543C00FB60044BFA689A601437BD465DF8047B38
:10544C00704700BF0038024080B485B000AF786070
:10545C000023FB60094B9B68FB60FB6823F46053E3
:10546C00FB607B68DB00FA681343FB60034BFA6854
:10547C009A601437BD465DF8047B704700380240D3
:10548C0080B489B000AF78600023FB610023BB615E
:10549C0000237B6100233B610023FB600023BB6086
:1054AC005F4B9B6803F00C03FB61FB690C2B65D80D
:1054BC0001A252F823F000BFF954000889550008E6
:1054CC0089550008895500081955000889550008A8
:1054DC008955000889550008215500088955000890
:1054EC008955000889550008295500084C4B5B6804
:1054FC0003F460435B0BBB60BB6801334FF40042A9
:10550C0002FA03F31A467B681A6047E07B68454A47
:10551C001A6043E07B68444A1A603FE0404B9B684A
:10552C0003F47013BB613E4B9B6803F440037B6137
:10553C00BB699B0C3D4AD35CDBB2BB617B699B0DA9
:10554C0001337B61364B9B6803F480333B613B69D1
:10555C00002B09D1BB69334A02FB03F27B69B2FB16
:10556C00F3F27B681A6019E0BB692F4A02FB03F265
:10557C007B69B2FBF3F27B681A600FE0284B5B6827
:10558C0003F460435B0BBB60BB6801334FF4004218
:10559C0002FA03F31A467B681A6000BF204B9B6823
:1055AC0003F0F003FB61FB691B09FB61204AFB69FB
:1055BC0013441B78DBB2FB607B681A68FB68DA402B
:1055CC007B685A60164B9B6803F4E063FB61FB69D4
:1055DC001B0AFB61164AFB6913441B78DBB2FB60A8
:1055EC007B685A68FB68DA407B689A600C4B9B6856
:1055FC0003F46053FB61FB69DB0AFB610C4AFB693A
:10560C0013441B78DBB2FB607B685A68FB68DA409A
:10561C007B68DA602437BD465DF8047B704700BFB9
:10562C00003802400024F40000127A0038000020F8
:10563C004400002080B485B000AF78600023FB608C
:10564C007B6803F44033B3F5403F0FD1114B1B681B
:10565C00FB60FB6823F0C043FB607B6803F0C04336
:10566C00FA681343FB600B4BFA681A60094B094A42
:10567C00526B22F440325A63064B064A516B7A68DD
:10568C0002F440320A435A631437BD465DF8047B7A
:10569C00704700BF0038024080B483B000AF0346AF
:1056AC00FB71044BFA791A600C37BD465DF8047B2C
:1056BC00704700BFD806474280B483B000AF0346A2
:1056CC00FB71044BFA791A600C37BD465DF8047B0C
:1056DC00704700BFDC06474280B483B000AF7860EF
:1056EC000B46FB70FB78002B06D0094B084AD1699E
:1056FC007A680A43DA6106E0054B054AD1697A6893
:10570C00D2430A40DA610C37BD465DF8047B704722
:10571C000038024080B483B000AF78600B46FB7059
:10572C00FB78002B06D0094B084A116A7A680A43A9
:10573C001A6206E0054B054A116A7A68D2430A40A0
:10574C001A620C37BD465DF8047B70470038024086
:10575C0080B483B000AF78600B46FB70FB78002BF5
:10576C0006D0094B084A516A7A680A435A6206E025
:10577C00054B054A516A7A68D2430A405A620C3783
:10578C00BD465DF8047B70470038024080B483B09E
:10579C0000AF78600B46FB70FB78002B06D0094BF2
:1057AC00084A11697A680A431A6106E0054B054AF2
:1057BC0011697A68D2430A401A610C37BD465DF80C
:1057CC00047B70470038024080B483B000AF78602F
:1057DC000B46FB70FB78002B06D0094B084A51692D
:1057EC007A680A435A6106E0054B054A51697A68A2
:1057FC00D2430A405A610C37BD465DF8047B7047B2
:10580C000038024080B483B000AF78600B46FB7068
:10581C00FB78002B06D0094B084A91697A680A4339
:10582C009A6106E0054B054A91697A68D2430A40B1
:10583C009A610C37BD465DF8047B70470038024016
:10584C0080B483B000AF78600B46FB70FB78002B04
:10585C0006D0094B084A916A7A680A439A6206E0B4
:10586C00054B054A916A7A68D2430A409A620C3712
:10587C00BD465DF8047B70470038024080B483B0AD
:10588C0000AF78600B46FB70FB78002B06D0094B01
:10589C00084AD16A7A680A43DA6206E0054B054A7F
:1058AC00D16A7A68D2430A40DA620C37BD465DF899
:1058BC00047B70470038024080B483B000AF78603E
:1058CC000B46FB70FB78002B06D0094B084A116B7A
:1058DC007A680A431A6306E0054B054A116B7A682D
:1058EC00D2430A401A630C37BD465DF8047B7047FF
:1058FC000038024080B483B000AF02460B46FA7108
:10590C00BB71BB79002B08D00B4B0B4A1278D1B270
:10591C00FA790A43D2B21A7009E0074B064A127898
:10592C00D1B2FA79D243D2B20A40D2B21A700C3741
:10593C00BD465DF8047B70470D38024080B487B0DB
:10594C0000AF0346FB710023FB6000237B61002347
:10595C00FB74FB795B09DBB2FB60FB68012B03D1A9
:10596C000F4B1B687B6102E00D4B5B6B7B61FB7922
:10597C0003F01F03FB60FB687A6922FA03F303F060
:10598C000103002B02D00123FB7401E00023FB7404
:10599C00FB7C18461C37BD465DF8047B704700BF86
:1059AC000038024080B400AF044B044A526B42F002
:1059BC0080725A63BD465DF8047B70470038024024
:1059CC0080B485B000AF0346FB710023FB73094B19
:1059DC00DA68FB791340002B02D00123FB7301E042
:1059EC000023FB73FB7B18461437BD465DF8047B24
:1059FC00704700BF0038024080B483B000AF03464C
:105A0C00FB71044BFA791A700C37BD465DF8047BB8
:105A1C00704700BF0E38024080B584B000AF002341
:105A2C007B600023BB600023FB73364BCA225A6297
:105A3C00344B53225A6200F0D1F80346002B02D1AA
:105A4C000023FB7355E02F4B00221A602D4B42F2C2
:105A5C0001125A602B4B2B4A926802F007029A6093
:105A6C00284BDB6803F00403BB607B6801337B606D
:105A7C007B68B3F5005F02D0BB68002BF0D0214BE4
:105A8C00DB6803F00403002B02D10023FB7330E02E
:105A9C001C4B9B681B4B00229A601A4B4FF6FF72F3
:105AAC005A61184B184A1A61164B00229A61154B11
:105ABC000022DA61134B00221A62124B0022DA62C6
:105ACC00104B0022DA630F4B00225A640D4B00225C
