:020000040800F2
:100000000040002019D70008ED3E0008F93E000826
:10001000013F0008093F0008113F000800000000F0
:10002000000000000000000000000000193F000870
:10003000253F000800000000313F00083D3F000858
:1000400069D7000869D7000869D70008493F000848
:1000500069D7000869D7000869D7000869D7000880
:1000600069D7000869D7000869D7000869D7000870
:10007000893F000869D7000869D7000869D70008D8
:1000800069D7000869D7000869D7000869D7000850
:1000900069D7000869D7000869D7000869D7000840
:1000A00069D7000869D7000869D7000869D7000830
:1000B0006140000869D7000869D7000869D70008BF
:1000C00069D7000869D7000869D7000869D7000810
:1000D00069D7000869D7000869D7000869D7000800
:1000E00069D70008C544000869D7000869D7000827
:1000F00069D700080000000069D7000869D7000828
:10010000000000000000000069D7000869D700085F
:1001100069D7000869D7000869D7000869D70008BF
:1001200069D7000800000000000000000000000087
:0C01300000000000000000005FF808F173
:10013C0010B5054C237833B9044B13B10448AFF315
:10014C0000800123237010BD8004002000000000FB
:10015C003C01000808B5064B1BB106480649AFF335
:10016C0000800648036813B1054B03B1984708BDDE
:10017C00000000003C0100088404002080040020E2
:10018C000000000080B483B000AF78607B681A7800
:10019C000F4B1A707B685A780D4B5A707B689A78A3
:1001AC000B4B9A707B68DA78094BDA707B685A686B
:1001BC00074B5A607B689A68054B9A607B68DA68D3
:1001CC00034BDA600C37BD465DF8047B704700BF0B
:1001DC003409002080B584B000AF02460B46FA719A
:1001EC00BB710023FB730EE0FB795BB2002B02DAD0
:1001FC0001F002FC01E001F013FCFB795B00FB71E8
:10020C00FB7B0133FB73FA7BBB799A42ECD310373F
:10021C00BD4680BD80B584B000AFF880B980FA705F
:10022C00BB700023FB7316E0FB785BB2002B0CDA7F
:10023C00FB7B9AB2FB88134499B20A4B1B88BA8891
:10024C00084611461A4602F055F9FB785B00FB7024
:10025C00FB7B0133FB73FA7BBB789A42E4D31037F8
:10026C00BD4680BD6E09002090B587B000AFF86028
:10027C00B9607A603B6000237B82FB6898B2BB68F4
:10028C0099B2FB689AB2BB6A9BB213449BB2013B16
:10029C009AB2BB689CB23B689BB223449BB2013BB5
:1002AC009BB202F0BBF826484FF4805105F00EFAD1
:1002BC0023484FF4806105F0FBF90023FB7533E014
:1002CC000023BB7500237B7527E07B8A5A1C7A823E
:1002DC007A6813441B787B747B7D0133DA00BB6A2C
:1002EC009A4205DC7B7C18460821FFF773FF0EE071
:1002FC007B7D1A465201D31ADB00DAB2BB6ADBB241
:10030C001344DBB27A7C10461946FFF763FFBB7DC2
:10031C000833BB757B7D01337B75BA7DBB6A9A4212
:10032C00D3DBFB7D0133FB75FA7D3B689A42C7DB5F
:10033C0003484FF4805105F0BBF91C37BD4690BD06
:10034C000004024080B586B000AFF860B9607A60F6
:10035C003B6000237B820023FB754BE00023BB75C5
:10036C0000237B753FE07B8A5A1C7A827A6813449F
:10037C001B787B747B7D0133DA003B6A9A4213DC79
:10038C00BB7D9AB2FB689BB2134499B2FB7D9AB2C7
:10039C00BB689BB213449AB27B7C084611461A4642
:1003AC000823FFF737FF18E0BB7D9AB2FB689BB2BE
:1003BC00134498B2FB7D9AB2BB689BB2134499B2BA
:1003CC007B7D1A465201D31ADB00DAB23B6ADBB2F0
:1003DC001344DBB27A7CFFF71DFFBB7D0833BB7582
:1003EC007B7D01337B75BA7D3B6A9A42BBDBFB7D1F
:1003FC000133FB75FA7D3B689A42AFDB1837BD467B
:10040C0080BD00BF90B58BB002AFF860B9607A6068
:10041C003B60534B5B787B77514B9B68BB61386877
:10042C0001F07AFA386B01F0AFFA4D4B1B78FB7583
:10043C004B4B9B78BB754A4BDB787B7581E07B68BB
:10044C001B78202B51D9464B5A687B681B78194670
:10045C007B7FCB1A9B0013441B783B75404B5A682F
:10046C007B681B7819467B7FCB1A9B0013445B88F7
:10047C00FB83FB8BBA691A44FB7D397D0091F868CC
:10048C00B968FFF7F1FE3B7D9AB2FB689BB213444F
:10049C0098B2BB6899B23B7D9AB2FB689BB213448D
:1004AC009AB2BB7D9BB213449AB2FB7D9CB2BB68E3
:1004BC009BB223449BB2013B9BB201F0AFFF0023E4
:1004CC00FB8304E001F0ACFAFB8B0133FB83FA8B6A
:1004DC00BB7DF97D01FB03F39A42F3DB3A7DFB68AC
:1004EC001A44BB7D1344FB6028E0FB6898B2BB68E0
:1004FC0099B27B7D9AB2FB689BB213449BB2013BD1
:10050C009AB2FB7D9CB2BB689BB223449BB2013B6D
:10051C009BB201F083FF0023FB8304E001F080FA1F
:10052C00FB8B0133FB83FA8B7B7DF97D01FB03F3A2
:10053C009A42F3DB7B7DFA681344FB607B680133E2
:10054C007B607B681B78002B7FF479AF054BFA68D6
:10055C001A60054BBA681A602437BD4690BD00BFBF
:10056C0034090020300900202C09002080B58AB005
:10057C0002AFF860B9607A603B60294B5B78FB771F
:10058C00274B9B68BB61386801F0C6F9244B1B787C
:10059C00FB75234B9B78BB75214BDB787B7531E06E
:1005AC007B681B78202B26D91D4B5A687B681B78DF
:1005BC001946FB7FCB1A9B0013441B783B75184BD9
:1005CC005A687B681B781946FB7FCB1A9B00134437
:1005DC005B887B827B8ABA691A44FB7D397D0091EA
:1005EC00F868B968FFF7AEFE3A7DFB681A44BB7D2C
:1005FC001344FB6003E07B7DFA681344FB607B686B
:10060C0001337B607B681B78002BC9D1054BFA68E2
:10061C001A60054BBA681A602037BD4680BD00BF12
:10062C0034090020300900202C09002080B586B048
:10063C0002AFF860B9607A603B60084BDB68002B56
:10064C0008D1BB690093F868B9687A683B68FFF712
:10065C00D9FE00E000BF1037BD4680BD3409002034
:10066C0080B584B000AFF860B9607A603B60074B2E
:10067C00DB68002B06D1F868B9687A683B68FFF72D
:10068C0075FF00E000BF1037BD4680BD3409002067
:10069C0090B58BB002AFF860B9607A603B603D4BAF
:1006AC005B787B773B4B9B68BB61386801F034F916
:1006BC00386B01F069F9374B1B78FB75354B9B7820
:1006CC00BB75344BDB787B7555E03B7D202B22D9F9
:1006DC00304B5A68397D7B7FCB1A9B0013441B78B7
:1006EC00FB742C4B5A68397D7B7FCB1A9B001344CF
:1006FC005B88FB83FB8BBA691A44FB7DF97C009108
:10070C00F868B968FFF7B0FDFA7CFB681A44BB7D4A
:10071C001344FB602CE0FB6898B2BB6899B27B7DFC
:10072C009AB2FB689BB213449BB2013B9AB2FB7D1D
:10073C009CB2BB689BB223449BB2013B9BB201F0C1
:10074C0045FE0023FB8308E001F06AF901F068F92B
:10075C0001F066F9FB8B0133FB83FA8B7B7DF97D12
:10076C0001FB03F39A42EFDB7B7DFA681344FB60D9
:10077C007B6801337B607B683B753B7D002BA4D190
:10078C00054BFA681A60054BBA681A602437BD46E7
:10079C0090BD00BF34090020300900202C09002036
:1007AC0080B487B000AF786000237B611A4B5B7814
:1007BC00FB74194B1B78BB74174B9B787B74164BD3
:1007CC00DB783B741CE07B681B78202B11D9124B17
:1007DC005A687B681B781946FB7CCB1A9B00134428
:1007EC001B78FB73FA7B7B691A447B7C13447B611B
:1007FC0003E03B7C7A6913447B617B6801337B604B
:10080C007B681B78002BDED17B6918461C37BD46F4
:10081C005DF8047B704700BF3409002080B487B0BA
:10082C0000AF786000237B61194B5B78FB74184B2D
:10083C001B78BB74164B9B787B74154BDB783B7425
:10084C0019E0FB7B202B0FD9114B5A68F97BFB7CF1
:10085C00CB1A9B0013441B78BB73BA7B7B691A447D
:10086C007B7C13447B6103E03B7C7A6913447B61A2
:10087C007B6801337B607B68FB73FB7B002BE0D1D7
:10088C007B6918461C37BD465DF8047B704700BF7A
:10089C003409002080B586B002AFF860B9607A6088
:1008AC003B600B4B1B68BA681344BB60094BDB689D
:1008BC00002B08D1BB690093F868B9687A683B686B
:1008CC00FFF7E6FE00E000BF1037BD4680BD00BF5D
:1008DC00280900203409002080B485B000AF0346FD
:1008EC00FB80FB8803F01F03FB81FB885B099BB239
:1008FC0003F03F03BB81FB88DB0A7B81FB89DB02B6
:10090C009AB2BB895B019BB213449AB27B891344A4
:10091C003B813B8918461437BD465DF8047B704714
:10092C0080B584B000AFF880B9807A803B8000231A
:10093C00FB817B88BB817A881346DB079B1A5B00A3
:10094C000333BB6087E0FA88FB89134499B2BA88F9
:10095C00BB8913449AB23B88084611461A4601F0EB
:10096C00C9FDFA88FB89D31A99B2BA88BB8913449A
:10097C009AB23B88084611461A4601F0BBFDFA882C
:10098C00FB89134499B2BA88BB89D31A9AB23B88B3
:10099C00084611461A4601F0ADFDFA88FB89D31AB8
:1009AC0099B2BA88BB89D31A9AB23B8808461146C9
:1009BC001A4601F09FFDFA88BB89134499B2BA8894
:1009CC00FB8913449AB23B88084611461A4601F03B
:1009DC0091FDFA88BB89D31A99B2BA88FB89134462
:1009EC009AB23B88084611461A4601F083FDFA88F4
:1009FC00BB89134499B2BA88FB89D31A9AB23B8843
:100A0C00084611461A4601F075FDFA88BB89D31ABF
:100A1C0099B2BA88FB89D31A9AB23B880846114618
:100A2C001A4601F067FDBB68002B06DAFB899A00B9
:100A3C00BB6813440633BB600AE0FA89BB89D31A3E
:100A4C009A00BB6813440A33BB60BB89013BBB8172
:100A5C00FB890133FB81FA89BB899A42FFF473AF9E
:100A6C00FA89BB899A426FD1FA88FB89134499B2EF
:100A7C00BA88BB8913449AB23B88084611461A4679
:100A8C0001F038FDFA88FB89134499B2BA88BB8906
:100A9C0013449AB23B88084611461A4601F02AFDC7
:100AAC00FA88FB89134499B2BA88BB89D31A9AB2D3
:100ABC003B88084611461A4601F01CFDFA88FB8952
:100ACC00D31A99B2BA88BB89D31A9AB23B88084612
:100ADC0011461A4601F00EFDFA88BB89134499B2EF
:100AEC00BA88FB8913449AB23B88084611461A46C9
:100AFC0001F000FDFA88BB89D31A99B2BA88FB8938
:100B0C0013449AB23B88084611461A4601F0F2FC8F
:100B1C00FA88BB89134499B2BA88FB89D31A9AB262
:100B2C003B88084611461A4601F0E4FCFA88BB895A
:100B3C00D31A99B2BA88FB89D31A9AB23B88084661
:100B4C0011461A4601F0D6FC1037BD4680BD00BFD9
:100B5C0080B58AB000AFF880B9807A803B80FA8883
:100B6C00BB881046194601F09DFC7A88FB88D31A85
:100B7C007B623A88BB88D31A3B627B6A002B02DB10
:100B8C000123FB6105E04FF0FF33FB617B6A5B42A5
:100B9C007B623B6A002B02DB0123BB6105E04FF05B
:100BAC00FF33BB613B6A5B423B627B6A5B00FB6071
:100BBC003B6A5B00BB607A6A3B6A9A422BDDBA687F
:100BCC007B6AD31A7B6100233B611FE0F988BA88EA
:100BDC003B8E084611461A4601F08CFC7B69002BB3
:100BEC0008DB7A69FB68D31A7B61BB699AB2BB8854
:100BFC001344BB807A69BB6813447B61FB699AB26E
:100C0C00FB881344FB803B6901333B613A697B6A87
:100C1C009A42DBDD2AE0FA683B6AD31A7B61002337
:100C2C003B611FE0F988BA883B8E084611461A468C
:100C3C0001F060FC7B69002B08DB7A69BB68D31A76
:100C4C007B61FB699AB2FB881344FB807A69FB6871
:100C5C0013447B61BB699AB2BB881344BB803B696C
:100C6C0001333B613A693B6A9A42DBDD2837BD466A
:100C7C0080BD00BF90B585B002AFF880B9807A8096
:100C8C003B80FA887B8813449AB2F888B988BB8871
:100C9C004EF67D740094FFF75BFFFA887B88134453
:100CAC009BB2013B98B2BB88013399B2FA887B881E
:100CBC0013449BB2013B9AB2BC883B8823449BB241
:100CCC0001339BB242F665140094FFF741FFBA88DA
:100CDC003B88134499B2FA887B8813449AB2B8883B
:100CEC003B8803449BB2F88842F665140094FFF7E6
:100CFC002FFFBA883B8813449BB2F888B988FA88CE
:100D0C004EF67D740094FFF723FFFB88013398B2F5
:100D1C00BB88013399B2FA887B8813449BB2013BA0
:100D2C009AB2BC883B8823449BB2013B9BB23C8B60
:100D3C000094FFF70DFF0C37BD4690BD90B585B004
:100D4C0002AFF880B9807A803B803B7E002B43D188
:100D5C00FA887B8813449AB2F888B988BB884EF617
:100D6C007D740094FFF7F4FEFA887B8813449BB2E1
:100D7C00013B98B2BB88013399B2FA887B88134443
:100D8C009BB2013B9AB2BC883B8823449BB2013393
:100D9C009BB242F665140094FFF7DAFEBA883B88E2
:100DAC00134499B2FA887B8813449AB2B8883B886A
:100DBC0003449BB2F88842F665140094FFF7C8FE12
:100DCC00BA883B8813449BB2F888B988FA884EF6E7
:100DDC007D740094FFF7BCFE3B7E012B43D1FA8857
:100DEC007B8813449AB2F888B988BB8842F665149C
:100DFC000094FFF7ADFEFA887B8813449BB2013B4D
:100E0C0098B2BB88013399B2FA887B8813449BB2A1
:100E1C00013B9AB2BC883B8823449BB201339BB202
:100E2C004EF67D740094FFF793FEBA883B8813440A
:100E3C0099B2FA887B8813449AB2B8883B880344E9
:100E4C009BB2F8884EF67D740094FFF781FEBA8849
:100E5C003B8813449BB2F888B988FA8842F665142B
:100E6C000094FFF775FE3B7E022B43D1FA887B88FA
:100E7C0013449AB2F888B988BB884FF6FF74009473
:100E8C00FFF766FEFA887B8813449BB2013B98B24D
:100E9C00BB88013399B2FA887B8813449BB2013B1F
:100EAC009AB2BC883B8823449BB201339BB24FF669
:100EBC00FF740094FFF74CFEBA883B88134499B238
:100ECC00FA887B8813449AB2B8883B8803449BB257
:100EDC00F8884FF6FF740094FFF73AFEBA883B8807
:100EEC0013449BB2F888B988FA884FF6FF740094C3
:100EFC00FFF72EFE0C37BD4690BD00BF90B585B0F8
:100F0C0002AFF880B9807A803B80F888B9887A88FB
:100F1C00BB8844F208240094FFF71AFEFB880133C7
:100F2C0098B2BB88013399B2BB8801339BB27A88E3
:100F3C0048F210440094FFF70BFEF888B988FA8841
:100F4C003B8844F208240094FFF702FEFB8801332F
:100F5C0098B2BB88013399B2FB8801339AB23B88B3
:100F6C0048F210440094FFF7F3FDF88839887A882A
:100F7C003B884FF6FF740094FFF7EAFD7888B98838
:100F8C007A883B884FF6FF740094FFF7E1FD0C372D
:100F9C00BD4690BD90B585B002AFF880B9807A801F
:100FAC003B80F888B9887A88BB884FF6FF74009428
:100FBC00FFF7CEFDF888B988FA883B884FF6FF74A6
:100FCC000094FFF7C5FDFB88013398B23B88013BC9
:100FDC0099B23B88013B9BB27A8848F2104400944A
:100FEC00FFF7B6FDF88839887A883B8844F20824E4
:100FFC000094FFF7ADFD7B88013B98B2BB880133B1
:10100C0099B27B88013B9AB23B8848F21044009419
:10101C00FFF79EFD7888B9887A883B8844F20824CB
:10102C000094FFF795FD0C37BD4690BD80B584B09C
:10103C0000AFF880B9807A803B80FB887B8123E10C
:10104C00BB691B78DBB25BB2002B60DBBB691B7826
:10105C00BB81BB890D2B05D17B89FB80BB881033F1
:10106C00BB8050E0BB89202B03D9BB89203BBB81C3
:10107C0001E00023BB810023FB733EE00023BB7324
:10108C0035E0BB891A01FB7B1344834AD35C1A46B7
:10109C00BB7B802141FA03F31340002B10D0BB7BA8
:1010AC009AB2FB88134499B2FB7B9AB2BB88134467
:1010BC009AB27B88084611461A4601F01BFA13E0D7
:1010CC007A883B889A420FD0BB7B9AB2FB88134438
:1010DC0099B2FB7B9AB2BB8813449AB23B88084600
:1010EC0011461A4601F006FABB7B0133BB73BB7B7E
:1010FC00072BC6D9FB7B0133FB73FB7B0F2BBDD9B5
:10110C00FB880833FB80BB690133BB61BCE0002367
:10111C00BB81AFE0BA89614913461B0113445B00E4
:10112C000B441A78BB691B789A4240F0A080BA89AC
:10113C005A4913461B0113445B000B4401331A78C4
:10114C00BB6901331B789A4240F091800023FB73FA
:10115C0089E00023BB733AE0BA89FB7B58004F4906
:10116C0013461B0113445B0003440B449B781A4643
:10117C00BB7B802141FA03F31340002B10D0BB7BC7
:10118C009AB2FB88134499B2FB7B9AB2BB88134486
:10119C009AB27B88084611461A4601F0ABF913E067
:1011AC007A883B889A420FD0BB7B9AB2FB88134457
:1011BC0099B2FB7B9AB2BB8813449AB23B8808461F
:1011CC0011461A4601F096F9BB7B0133BB73BB7B0E
:1011DC00072BC1D90023BB733FE0BA89FB7B5B00B3
:1011EC00581C2E4913461B0113445B0003440B444B
:1011FC009B781A46BB7B802141FA03F31340002BEA
:10120C0012D0BB7B9AB2FB8813449BB2083399B2C1
:10121C00FB7B9AB2BB8813449AB27B880846114672
:10122C001A4601F067F915E07A883B889A4211D08A
:10123C00BB7B9AB2FB8813449BB2083399B2FB7BFD
:10124C009AB2BB8813449AB23B88084611461A4698
:10125C0001F050F9BB7B0133BB73BB7B072BBCD9B3
:10126C00FB7B0133FB73FB7B0F2B7FF672AFBB89D0
:10127C000133BB81BB89312B7FF64CAFBB69023389
:10128C00BB61FB881033FB80BB691B78002B7FF4A0
:10129C00D7AE1037BD4680BD88A4010880B20108C6
:1012AC0080B584B000AFF880B9807A803B8065E16E
:1012BC00BB691B78DBB25BB2002B57DBBB691B78BD
:1012CC00BB81BB89202B03D9BB89203BBB8101E0AF
:1012DC000023BB810023FB733EE00023BB7335E08E
:1012EC00BB891A01FB7B13448A4AD35C1A46BB7B2D
:1012FC00802141FA03F31340002B10D0BB7B9AB230
:10130C00FB88134499B2FB7B9AB2BB8813449AB204
:10131C007B88084611461A4601F0ECF813E07A88EF
:10132C003B889A420FD0BB7B9AB2FB88134499B28C
:10133C00FB7B9AB2BB8813449AB23B880846114691
:10134C001A4601F0D7F8BB7B0133BB73BB7B072B71
:10135C00C6D9FB7B0133FB73FB7B0F2BBDD9BB6960
:10136C000133BB61FB880833FB8007E10023BB81A1
:10137C00FAE0BB89684A4A2101FB03F313441A784B
:10138C00BB691B789A4240F0EC80BB89624A4A21C7
:10139C0001FB03F3134401331A78BB6901331B7847
:1013AC009A4240F0DE800023FB73D6E00023BB732F
:1013BC003BE0B989FA7B13465B001344564A4A203A
:1013CC0000FB01F10B4413449B781A46BB7B802134
:1013DC0041FA03F31340002B10D0BB7B9AB2FB886D
:1013EC00134499B2FB7B9AB2BB8813449AB27B88A4
:1013FC00084611461A4601F07DF813E07A883B88BE
:10140C009A420FD0BB7B9AB2FB88134499B2FB7BF8
:10141C009AB2BB8813449AB23B88084611461A46C6
:10142C0001F068F8BB7B0133BB73BB7B072BC0D9C6
:10143C000023BB7340E0B989FA7B13465B0013446D
:10144C000133354A4A2000FB01F10B4413449B78CD
:10145C001A46BB7B802141FA03F31340002B12D0B8
:10146C00BB7B9AB2FB8813449BB2083399B2FB7BCB
:10147C009AB2BB8813449AB27B88084611461A4626
:10148C0001F038F815E07A883B889A4211D0BB7B82
:10149C009AB2FB8813449BB2083399B2FB7B9AB285
:1014AC00BB8813449AB23B88084611461A4601F091
:1014BC0021F8BB7B0133BB73BB7B072BBBD9002350
:1014CC00BB7344E0B989FA7B13465B0013440233C7
:1014DC00114A4A2000FB01F10B4413449B781A4635
:1014EC00BB7B802141FA03F31340002B16D0BB7B4E
:1014FC009AB2FB8813449BB2103399B2FB7B9AB21D
:10150C00BB8813449AB27B88084611461A4600F0F1
:10151C00F1FF19E088A401088CB901087A883B888E
:10152C009A4211D0BB7B9AB2FB8813449BB2103306
:10153C0099B2FB7B9AB2BB8813449AB23B8808469B
:10154C0011461A4600F0D6FFBB7B0133BB73BB7B45
:10155C00072BB7D9FB7B0133FB73FB7B172B7FF678
:10156C0025AFBB890133BB81BB89132B7FF601AF40
:10157C00BB690233BB61FB881833FB80BB691B78EA
:10158C00002B7FF495AE1037BD4680BD80B584B07E
:10159C0000AFF880B9807A803B8009E1BB691B7889
:1015AC00DBB25BB2002B42DBBB691B78BB81BB8916
:1015BC00202B03D9BB89203BBB8101E00023BB81DD
:1015CC000023FB7329E00023BB7320E0BB891A01C5
:1015DC00FB7B13447A4AD35C1A46BB7B802141FACD
:1015EC0003F31340002B0FD0BB7B9AB2FB88134440
:1015FC0099B2FB7B9AB2BB8813449AB27B8808469B
:10160C0011461A4600F076FFBB7B0133BB73BB7BE4
:10161C00072BDBD9FB7B0133FB73FB7B0F2BD2D965
:10162C00BB690133BB61FB880833FB80C0E000233E
:10163C00BB81B3E0BB89634A4A2101FB03F313442A
:10164C001A78BB691B789A4240F0A580BB895D4A29
:10165C004A2101FB03F3134401331A78BB690133AC
:10166C001B789A4240F097800023FB738FE0002395
:10167C00BB7326E0B989FA7B13465B001344514ACD
:10168C004A2000FB01F10B4413449B781A46BB7BA8
:10169C00802141FA03F31340002B0FD0BB7B9AB28D
:1016AC00FB88134499B2FB7B9AB2BB8813449AB261
:1016BC007B88084611461A4600F01CFFBB7B0133A1
:1016CC00BB73BB7B072BD5D90023BB7329E0B9892E
:1016DC00FA7B13465B00134401333A4A4A2000FB61
:1016EC0001F10B4413449B781A46BB7B802141FAD1
:1016FC0003F31340002B11D0BB7B9AB2FB8813442D
:10170C009BB2083399B2FB7B9AB2BB8813449AB252
:10171C007B88084611461A4600F0ECFEBB7B013371
:10172C00BB73BB7B072BD2D90023BB7329E0B989D0
:10173C00FA7B13465B0013440233224A4A2000FB17
:10174C0001F10B4413449B781A46BB7B802141FA70
:10175C0003F31340002B11D0BB7B9AB2FB881344CC
:10176C009BB2103399B2FB7B9AB2BB8813449AB2EA
:10177C007B88084611461A4600F0BCFEBB7B013341
:10178C00BB73BB7B072BD2D9FB7B0133FB73FB7B7E
:10179C00172B7FF66CAFBB890133BB81BB89132B35
:1017AC007FF648AFBB690233BB61FB881833FB8003
:1017BC00BB691B78002B7FF4F1AE1037BD4680BDA2
:1017CC0088A401088CB9010880B584B000AFF880FA
:1017DC00B9807A803B800023FB7359E00023BB73F4
:1017EC0050E03B8BDB011A46FB7B9B001A44BB7B16
:1017FC001A442A4B13441B783B7300237B733BE046
:10180C003A7B7B7B802141FA03F31340002B16D0EB
:10181C00BB7B9BB2DB009AB2FB8813449AB27B7BF6
:10182C009BB2134499B2FB7B9AB2BB8813449AB215
:10183C007B88084611461A4600F05CFE19E07A884F
:10184C003B889A4215D0BB7B9BB2DB009AB2FB88DB
:10185C0013449AB27B7B9BB2134499B2FB7B9AB232
:10186C00BB8813449AB23B88084611461A4600F0CE
:10187C0041FE7B7B01337B737B7B072BC0D9BB7B0E
:10188C000133BB73BB7B032BABD9FB7B0133FB73EA
:10189C00FB7B1F2BA2D91037BD4680BD7CAA01084B
:1018AC0080B584B000AF13460246FA710A46BA718D
:1018BC007B71FB791A04BB791B021A437B791343A6
:1018CC00FB60F86801F0CEFE03469AB2024B1A8018
:1018DC001037BD4680BD00BF6E09002080B584B0B6
:1018EC0000AF13460246FA710A46BA717B71FB7956
:1018FC001A04BB791B021A437B791343FB60F8680B
:10190C0001F0B0FE03469AB2024B1A801037BD4666
:10191C0080BD00BF4A09002080B584B000AF78605C
:10192C007B681B0CDBB223F00103DAB2124B1A708A
:10193C007B681B0ADBB223F00103DAB20F4B1A707F
:10194C007B68DBB223F00103DAB20D4B1A700A4B41
:10195C001B781A04094B1B781B021A43084B1B7883
:10196C001343FB60F86801F07DFE03469AB2054B09
:10197C001A801037BD4680BD510900205409002043
:10198C00480900206E09002080B584B000AF786053
:10199C007B681B0CDBB223F00103DAB2124B1A701A
:1019AC007B681B0ADBB223F00103DAB20F4B1A700F
:1019BC007B68DBB223F00103DAB20D4B1A700A4BD1
:1019CC001B781A04094B1B781B021A43084B1B7813
:1019DC001343FB60F86801F045FE03469AB2054BD1
:1019EC001A801037BD4680BD4E09002050090020DA
:1019FC00530900204A09002080B500AF074B1B8813
:101A0C001B0A9BB2DBB2184600F0C8F9034B1B88CB
:101A1C00DBB2184600F0C2F980BD00BF6E09002091
:101A2C0080B500AF074B1B881B0A9BB2DBB2184674
:101A3C0000F0B4F9034B1B88DBB2184600F0AEF98A
:101A4C0080BD00BF4A09002090B58BB000AFF86094
:101A5C00B9607A603B600023FB84FB6898B2BB687A
:101A6C0099B2FB689AB23B689BB213449BB2013BA0
:101A7C009AB2BB689CB2BB6B9BB223449BB2013B3A
:101A8C009BB200F0A3FC29E0FB8C5A1CFA847A6808
:101A9C0013441B783B62FB8C5A1CFA847A681344FF
:101AAC001B78FB61FB8C5A1CFA847A6813441B78F4
:101ABC00BB613B6A1A04FB691B021A43BB691343E3
:101ACC007B613B6AD9B2FB69DAB2BB69DBB208460F
:101ADC0011461A46FFF7E4FEFFF78EFFF98C3B68C0
:101AEC00BA6B02FB03F213465B0013449942CBDB47
:101AFC002C37BD4690BD00BF80B584B000AF034607
:101B0C00FB710823FB731EE013484FF4005103F0E4
:101B1C00DDFDFB795BB2002B05DA0F484FF4004179
:101B2C0003F0C6FD04E00C484FF4004103F0CEFD79
:101B3C00FB795B00FB7108484FF4005103F0B8FDD2
:101B4C00FB7B013BFB73FB7B002BDDD1BB7B184686
:101B5C001037BD4680BD00BF0004024080B582B086
:101B6C0000AF0220012104F0ABFA00BF04F018F919
:101B7C0003460C2BFAD14FF48040012104F0DCFA1F
:101B8C004FF400533B6002233B7103237B71002312
:101B9C00BB710123FB713B461348194603F064FCEF
:101BAC004FF480433B603B460F48194603F05CFC06
:101BBC004FF400433B603B460B48194603F054FC82
:101BCC004FF480533B6001233B710023BB71012315
:101BDC00FB7103237B713B460348194603F044FC1D
:101BEC000837BD4680BD00BF0004024080B483B0FE
:101BFC0000AF78600B46FB7000BF7B681B899BB203
:101C0C0003F00203002BF8D0FB789AB27B689A8120
:101C1C0000BF7B681B899BB203F00103002BF8D03B
:101C2C007B689B899BB2DBB218460C37BD465DF8CE
:101C3C00047B704780B483B000AF78600B46FB70B8
:101C4C007B681B889BB223F038039AB27B681A809E
:101C5C00FB78012B08D17B681B889BB243F01003E7
:101C6C009AB27B681A8007E07B681B889BB243F0B2
:101C7C0020039AB27B681A807B681B889BB243F066
:101C8C0040039AB27B681A800C37BD465DF8047B22
:101C9C00704700BF80B588B000AF2B4B2A4AD26981
:101CAC0042F00202DA61284B274A526A42F480421F
:101CBC005A62264B254A126842F028421A60234B7E
:101CCC00224A926842F07C429A60204B204A5A6227
:101CDC001E4B1E4A126842F080721A601B4B1B4A44
:101CEC00926842F040729A60174B174A926942F41C
:101CFC0080429A610F2001F079FD134B124A9269D0
:101D0C0022F480429A610023BB814FF48273FB81E1
:101D1C0000233B8202237B820123BB824FF400739E
:101D2C00FB8200233B8300237B830723BB8307F1C8
:101D3C000C030848194605F0F5FD0648012105F08D
:101D4C0019FF2037BD4680BD003802400004024018
:101D5C00000050550038004080B584B000AF0346F9
:101D6C00FB710023FB730B484FF4805103F0AEFC66
:101D7C0008484FF4806103F0A9FCFB79064819462A
:101D8C00FFF734FF03484FF4805103F091FC1037F8
:101D9C00BD4680BD000402400038004080B584B0D0
:101DAC0000AF0346FB710023FB730B484FF48061BB
:101DBC0003F07EFC08484FF4805103F087FCFB795C
:101DCC0006481946FFF712FF03484FF4805103F001
:101DDC006FFC1037BD4680BD000402400038004047
:101DEC0080B582B000AF02460B46FA71BB71FB792D
:101DFC001846FFF7D3FFBB791846FFF7CFFF08371C
:101E0C00BD4680BD80B582B000AF02460B46FA716C
:101E1C00BB71FB791846FFF79FFFBB791846FFF79C
:101E2C009BFF0837BD4680BD80B500AF0748012138
:101E3C0003F04CFC0A2001F0D9FC0448012103F00A
:101E4C0037FC322001F0D2FC80BD00BF0004024000
:101E5C0080B584B000AF0023FB720023FB6002202E
:101E6C00012104F02DF901233B6001233B71002378
:101E7C00BB710123FB7103237B713B46A0481946C0
:101E8C0003F0F2FA4FF480533B6001233B710023C3
:101E9C00BB710123FB7103237B713B4698481946A8
:101EAC0003F0E2FA4FF480633B6001233B710023A3
:101EBC00BB710123FB7103237B713B469048194690
:101ECC0003F0D2FA8E48012103F0F2FB8C484FF458
:101EDC00805103F0EDFB8A484FF4806103F0E8FB7E
:101EEC00FFF7D8FEFFF7A0FF0023FB6006E000F031
:101EFC0007FC0346FB72FB680133FB60FB68022B9B
:101F0C00F5DDCB20FFF728FF3920FFF747FF2C200A
:101F1C00FFF744FF0020FFF741FF3420FFF73EFF9F
:101F2C000220FFF73BFFCF20FFF716FF0020FFF743
:101F3C0035FFC120FFF732FF3020FFF72FFFE820DD
:101F4C00FFF70AFF8520FFF729FF0020FFF726FF88
:101F5C007820FFF723FFEA20FFF7FEFE0020FFF7B3
:101F6C001DFF0020FFF71AFFED20FFF7F5FE6420A0
:101F7C00FFF714FF0320FFF711FF1220FFF70EFFEE
:101F8C008120FFF70BFFF720FFF7E6FE2020FFF77D
:101F9C0005FFC020FFF7E0FE2320FFF7FFFEC12066
:101FAC00FFF7DAFE1020FFF7F9FEC520FFF7D4FE8D
:101FBC003E20FFF7F3FE2820FFF7F0FEC720FFF7C7
:101FCC00CBFE8620FFF7EAFE3620FFF7C5FEE820A1
:101FDC00FFF7E4FE3A20FFF7BFFE5520FFF7DEFEC9
:101FEC00B120FFF7B9FE0020FFF7D8FE1820FFF74D
:101FFC00D5FEB620FFF7B0FE0820FFF7CFFE8220FB
:10200C00FFF7CCFE2720FFF7C9FEF220FFF7A4FE56
:10201C000020FFF7C3FE2620FFF79EFE0120FFF7EE
:10202C00BDFEE020FFF798FE0F20FFF7B7FE312032
:10203C00FFF7B4FE2B20FFF7B1FE0C20FFF7AEFE2E
:10204C000E20FFF7ABFE0820FFF7A8FE4E20FFF78F
:10205C00A5FEF120FFF7A2FE3720FFF79FFE072019
:10206C00FFF79CFE1020FFF799FE0320FFF796FE6A
:10207C000E20FFF793FE0920FFF790FE0020FFF7DC
:10208C008DFEE120FFF768FE0020FFF787FE0E2093
:10209C00FFF784FE1420FFF781FE0320FFF77EFE7E
:1020AC001120FFF77BFE0720FFF778FE3120FFF7AA
:1020BC0075FEC120FFF772FE4820FFF76FFE082067
:1020CC00FFF76CFE0F20FFF769FE0C20FFF766FE92
:1020DC003120FFF763FE3620FFF760FE0F20FFF77D
:1020EC005DFE1120FFF738FE782001F07FFB2920E0
:1020FC00FFF732FE2C20FFF72FFE1037BD4680BDB8
:10210C000004024080B584B000AF0023FB720023B2
:10211C00FB600220012103F0D3FF01233B6001236C
:10212C003B710023BB710123FB7103237B713B4685
:10213C00A548194603F098F94FF480533B600123EE
:10214C003B710023BB710123FB7103237B713B4665
:10215C009D48194603F088F94FF480633B600123D6
:10216C003B710023BB710123FB7103237B713B4645
:10217C009548194603F078F99348012103F098FA31
:10218C0091484FF4805103F093FA8F484FF48061DB
:10219C0003F08EFAFFF77EFDFFF746FE0023FB608F
:1021AC0006E000F0ADFA0346FB72FB680133FB60FE
:1021BC00FB68022BF5DDEF20FFF7CEFD0320FFF7C8
:1021CC00EDFD8020FFF7EAFD0220FFF7E7FDCF20B1
:1021DC00FFF7C2FD0020FFF7E1FDC120FFF7DEFD98
:1021EC003020FFF7DBFDED20FFF7B6FD6420FFF795
:1021FC00D5FD0320FFF7D2FD1220FFF7CFFD812084
:10220C00FFF7CCFDE820FFF7A7FD8520FFF7C6FD03
:10221C000020FFF7C3FD7820FFF7C0FDCB20FFF7B0
:10222C009BFD3920FFF7BAFD2C20FFF7B7FD0020EE
:10223C00FFF7B4FD3420FFF7B1FD0220FFF7AEFD30
:10224C00F720FFF789FD2020FFF7A8FDEA20FFF714
:10225C0083FD0020FFF7A2FD0020FFF79FFDC020AB
:10226C00FFF77AFD2320FFF799FDC120FFF774FDDE
:10227C001020FFF793FDC520FFF76EFD3E20FFF702
:10228C008DFD2820FFF78AFDC720FFF765FD86200E
:10229C00FFF784FD3620FFF75FFDE820FFF77EFD9A
:1022AC003A20FFF759FD5520FFF778FDB120FFF7D5
:1022BC0053FD0020FFF772FD1820FFF76FFDB620CD
:1022CC00FFF74AFD0820FFF769FD8220FFF766FD46
:1022DC002720FFF763FDF220FFF73EFD0020FFF7FC
:1022EC005DFD2620FFF738FD0120FFF757FDE020AC
:1022FC00FFF732FD0F20FFF751FD3120FFF74EFDA8
:10230C002B20FFF74BFD0C20FFF748FD0E20FFF7AD
:10231C0045FD0820FFF742FD4E20FFF73FFDF12061
:10232C00FFF73CFD3720FFF739FD0720FFF736FD9F
:10233C001020FFF733FD0320FFF730FD0E20FFF7D1
:10234C002DFD0920FFF72AFD0020FFF727FDE120D6
:10235C00FFF702FD0020FFF721FD0E20FFF71EFD09
:10236C001420FFF71BFD0320FFF718FD1120FFF7CA
:10237C0015FD0720FFF712FD3120FFF70FFDC120DF
:10238C00FFF70CFD4820FFF709FD0820FFF706FDBD
:10239C000F20FFF703FD0C20FFF700FD3120FFF7A6
:1023AC00FDFC3620FFF7FAFC0F20FFF7F7FC11209D
:1023BC00FFF7D2FC782001F019FA2920FFF7CCFCAA
:1023CC001037BD4680BD00BF0004024080B582B00E
:1023DC0000AFF880B9807A803B802A20FFF7BCFCE4
:1023EC00FB881B0A9BB2DAB2FB88DBB2104619469B
:1023FC00FFF7F6FC2B20FFF7AFFCBB881B0A9BB248
:10240C00DAB2BB88DBB210461946FFF7E9FC2C2088
:10241C00FFF7A2FC0837BD4680BD00BF80B582B077
:10242C0000AFF880B9807A803B802A20FFF794FCBB
:10243C00FB881B0A9BB2DBB21846FFF7AFFCFB888C
:10244C00DBB21846FFF7AAFC7B881B0A9BB2DBB2F7
:10245C001846FFF7A3FC7B88DBB21846FFF79EFCFF
:10246C002B20FFF779FCBB881B0A9BB2DBB218460A
:10247C00FFF794FCBB88DBB21846FFF78FFC3B8858
:10248C001B0A9BB2DBB21846FFF788FC3B88DBB219
:10249C001846FFF783FC2C20FFF75EFC0837BD467F
:1024AC0080BD00BF80B582B000AF02460B46FA80FB
:1024BC00BB802A20FFF750FCFB881B0A9BB2DAB2C8
:1024CC00FB88DBB210461946FFF78AFC2B20FFF77E
:1024DC0043FCBB881B0A9BB2DAB2BB88DBB210464A
:1024EC001946FFF77DFC2C20FFF736FC0837BD465C
:1024FC0080BD00BF80B582B000AF13460246FA80A3
:10250C000A46BA807B80F888B988FA88BB88FFF7BE
:10251C005DFF7B881B0A9BB2DBB21846FFF73EFCC3
:10252C007B88DBB21846FFF739FC0837BD4680BD07
:10253C0080B584B000AF02460B46FA80BB80002306
:10254C00FB60FA88BB8810461946FFF7ABFFFB68A7
:10255C00DBB21846FFF722FCFB6818461037BD4665
:10256C0080BD00BF80B584B000AF0346FB80002067
:10257C00002140F2072240F2B713FFF727FF1A4859
:10258C004FF4805103F0A2F817484FF4806103F028
:10259C008FF80023FB601AE00023BB6010E0FB887F
:1025AC001B0A9BB2DBB211481946FFF71FFBFB88D5
:1025BC00DBB20E481946FFF719FBBB680133BB6051
:1025CC00BB68B3F5027FEAD3FB680133FB60FB68A1
:1025DC00B3F5DC7FE0D304484FF4805103F068F886
:1025EC001037BD4680BD00BF0004024000380040DB
:1025FC0090B585B000AFF880B9807A803B80B7F990
:10260C000630B3F5A07F03DAB7F90430EF2B00DD09
:10261C005DE0B7F90620B7F902301344013BB3F57E
:10262C00A07F04DBFB88C3F5A0739BB27B80B7F95A
:10263C000420B7F900301344013BEF2B04DDBB88B9
:10264C00C3F1F0039BB23B80F888B988FA887B8889
:10265C0013449BB2013B9AB2BC883B8823449BB287
:10266C00013B9BB2FFF7DAFE3B8C1B0A9BB2FB7360
:10267C003B8CBB7317484FF4805103F027F8154877
:10268C004FF4806103F014F83B88BB8016E07B8824
:10269C00FB800CE0FB7B10481946FFF7A7FABB7BCD
:1026AC000D481946FFF7A2FAFB88013BFB80B7F9EE
:1026BC000630002BEEDCBB88013BBB80B7F9043045
:1026CC00002BE4DC03484FF4805102F0F1FF143787
:1026DC00BD4690BD000402400038004080B584B077
:1026EC0002AF0346FB80FB880093002000214FF4CF
:1026FC00A072F023FFF77CFF0837BD4680BD00BFFA
:10270C0090B585B000AF0023FB73204A3B1D1188A8
:10271C00927819809A700123BB730023FB7321E01C
:10272C00FC7BFB7B0133DBB2D320194600F030F885
:10273C0003461A4607F11003234403F8082CFB7BCD
:10274C0007F110010B4413F8082CFB7B07F1100167
:10275C000B4413F80C3C9A4201D00023BB73FB7B57
:10276C000133FB73FB7B022BDAD9BB7B002B08D12B
:10277C000023FB7302E0FB7B0133FB73FB7B022B1F
:10278C00F9D9BB7B18461437BD4690BD0CBF010868
:10279C0080B584B000AF02460B46FA71BB710023C2
:1027AC00FB720023BB72D920FFF7D6FABB7910332A
:1027BC00DBB21846FFF7F2FA1E484FF4806102F0C4
:1027CC0085FF1C484FF4805102F080FF0023FB6012
:1027DC0003E000BFFB680133FB60FB68042BF8DDF2
:1027EC00FB7915481946FFF701FA0346BB721148ED
:1027FC004FF4806102F05CFF0023FB6003E000BF3C
:10280C00FB680133FB60FB68012BF8DD0A4B9B89ED
:10281C009BB2BB720848002100F010F80346BB7253
:10282C0004484FF4805102F043FFBB7A184610372E
:10283C00BD4680BD000402400038004080B483B027
:10284C0000AF78600B46FB7000BF0E4B1B899BB230
:10285C0003F08003002BF8D10A4BFA7892B29A81DC
:10286C0000BF084B1B899BB203F00103002BF8D06F
:10287C00044B9B899BB2DBB218460C37BD465DF806
:10288C00047B70470038004080B584B000AF03462D
:10289C003960FB80FB88BB600023FB60FB685A1C23
:1028AC00FA603A68D018FA881A4BA3FB0213D908BD
:1028BC000B469B000B445B00D31A9BB2DBB230334C
:1028CC00DBB20370FA88134BA3FB0213DB08FB800B
:1028DC00FB88002BE2D1BB68002B06DAFB685A1C84
:1028EC00FA603A6813442D221A70FB68012B06DC3F
:1028FC00FB685A1CFA603A68134430221A70FB6861
:10290C003A68134400221A70386800F005F8103742
:10291C00BD4680BDCDCCCCCC80B586B000AF786048
:10292C0000237B6178680AF043FF0346013B3B615F
:10293C0017E07B697A6813441B78FB737B697A68B0
:10294C0013443A6979680A4412781A703B697A68B8
:10295C001344FA7B1A707B6901337B613B69013B41
:10296C003B617A693B699A42E3DB1837BD4680BD0F
:10297C0080B586B002AF02460B46FA80BB801E23A0
:10298C00FB81FA88BB886FF07F4100911046194695
:10299C00054A4FF47F03FDF749FEFA88FB8913447F
:1029AC00FB801037BD4680BD10BF010880B586B0D6
:1029BC0002AFBA600246FA810A46BA81FB80FB88F4
:1029CC00002B0BD1FA89BB890021009110461946C6
:1029DC003F4A6FF07F43FDF729FE75E0BB681B781B
:1029EC00013B062B64D801A252F823F0152A0008EB
:1029FC002D2A0008452A00085D2A0008752A0008BF
:102A0C008D2A0008A52A0008FA89BB8900210091AB
:102A1C00104619462F4A6FF07F43FDF707FE53E02F
:102A2C00FA89BB8900210091104619462A4A6FF099
:102A3C007F43FDF7FBFD47E0FA89BB89002100913C
:102A4C0010461946254A6FF07F43FDF7EFFD3BE03A
:102A5C00FA89BB890021009110461946204A6FF073
:102A6C007F43FDF7E3FD2FE0FA89BB89002100913C
:102A7C00104619461B4A6FF07F43FDF7D7FD23E044
:102A8C00FA89BB890021009110461946164A6FF04D
:102A9C007F43FDF7CBFD17E0FA89BB89002100913C
:102AAC0010461946114A6FF07F43FDF7BFFD0BE04E
:102ABC00FA89BB8900210091104619460C4A6FF027
:102ACC007F43FDF7B3FD00BF1037BD4680BD00BF8F
:102ADC0014BF010824BF010834BF010844BF01081A
:102AEC0054BF010864BF010874BF010884BF01080A
:102AFC0094BF010880B590B002AF0B463A60024615
:102B0C00FA80BB801623FB86FB88BB863B68DB7890
:102B1C0087F833303B685B7887F832303B689B78BA
:102B2C0087F831303B681B7887F8303097F83330B2
:102B3C009BB203F5FA639AB207F1280310461946C3
:102B4C00FFF7A2FE97F832309AB207F12003104635
:102B5C001946FFF799FE97F831309AB207F118032E
:102B6C0010461946FFF790FE9F48FDF70BFB9F4B55
:102B7C001B889BB203F00103FB859D4B1B78DBB2DA
:102B8C00062B00F2BE8101A252F823F0B52B0008EF
:102B9C00B52B0008B52B00086F2C0008312D000850
:102BAC000D2E0008CF2E0008F988BA8807F12803EB
:102BBC0000200090084611461A466FF07F43FDF73F
:102BCC0035FDFB8E9B009AB2FB881344FB80FA8880
:102BDC00BB880021009110461946864A6FF07F434E
:102BEC00FDF724FDFA88FB8E1344FB80F988BA8824
:102BFC0007F1200300200090084611461A466FF09A
:102C0C007F43FDF713FDFB8E5B009AB2FB881344E8
:102C1C00FB80FA88BB880021009110461946754A42
:102C2C006FF07F43FDF702FDFA88FB8E1344FB80A7
:102C3C00F988BA8807F1180300200090084611465D
:102C4C001A466FF07F43FDF7F1FCBB882033BB8045
:102C5C00BA8EBB88104619463A680123FFF7A6FEC8
:102C6C0050E1FB8D002B0DD0F988BA8807F12803B1
:102C7C0000200090084611461A466FF07F43FDF77E
:102C8C00D5FC0AE0FA88BB88002100911046194651
:102C9C00594A6FF07F43FDF7C9FCFB8E9B009AB23B
:102CAC00FB881344FB80FA88BB88002100911046F6
:102CBC001946504A6FF07F43FDF7B8FCFA88FB8E3B
:102CCC001344FB80F988BA8807F120030020009098
:102CDC00084611461A466FF07F43FDF7A7FCFB8EA2
:102CEC005B009AB2FB881344FB80FA88BB880021F6
:102CFC000091104619463F4A6FF07F43FDF796FC52
:102D0C00FA88FB8E1344FB80F988BA8807F1180304
:102D1C0000200090084611461A466FF07F43FDF7DD
:102D2C0085FCEFE0F988BA8807F1280300200090B1
:102D3C00084611461A466FF07F43FDF777FCFB8E71
:102D4C009B009AB2FB881344FB80FA88BB88002155
:102D5C00009110461946274A6FF07F43FDF766FC39
:102D6C00FA88FB8E1344FB80FB8D002B0DD0F98869
:102D7C00BA8807F1200300200090084611461A4635
:102D8C006FF07F43FDF752FC0AE0FA88BB88002104
:102D9C00009110461946194A6FF07F43FDF746FC27
:102DAC00FB8E5B009AB2FB881344FB80FA88BB88CD
:102DBC0000210091104619460E4A6FF07F43FDF733
:102DCC0035FCFA88FB8E1344FB80F988BA8807F12E
:102DDC00180300200090084611461A466FF07F43F6
:102DEC00FDF724FC8EE000BF78A401084609002002
:102DFC009C040020A4BF0108A8BF0108B0BF0108B3
:102E0C00F988BA8807F1280300200090084611467B
:102E1C001A466FF07F43FDF709FCFB8E9B009AB2BC
:102E2C00FB881344FB80FA88BB8800210091104674
:102E3C001946364A6FF07F43FDF7F8FBFA88FB8E94
:102E4C001344FB80F988BA8807F120030020009016
:102E5C00084611461A466FF07F43FDF7E7FBFB8EE1
:102E6C005B009AB2FB881344FB80FA88BB88002174
:102E7C00009110461946254A6FF07F43FDF7D6FBAB
:102E8C00FA88FB8E1344FB80FB8D002B0DD0F98848
:102E9C00BA8807F1180300200090084611461A461C
:102EAC006FF07F43FDF7C2FB2CE0FA88BB88002152
:102EBC00009110461946164A6FF07F43FDF7B6FB9A
:102ECC0020E0FB8E9B009AB2FB881344FB80FA88AF
:102EDC00FB8E1344FB80FB8E5B009AB2FB88134481
:102EEC00FB80FA88FB8E1344FB80BB882033BB80AD
:102EFC00B98EBA88FB8D084611463A68FFF756FD25
:102F0C0000E000BF3837BD4680BD00BFA4BF01083C
:102F1C00B0BF010880B58EB002AF0B463A600246D6
:102F2C00FA80BB802F2387F82F300E23BB852123FB
:102F3C007B8537233B856FF07F437B6200233B62AD
:102F4C003B681B78BB853B685B787B853B689B78D3
:102F5C003B85934B1B889BB203F00103FB83BB8D1A
:102F6C001B099BB2DBB23033DBB23B763B7E3B754D
:102F7C00BB8DDBB203F00F03DBB23033DBB27B76FD
:102F8C007B7E7B750023BB75FB8B002B02D03A2319
:102F9C00BB6001E02023BB600023FB607B8D1B0921
:102FAC009BB2DBB23033DBB2FB76FB7E3B747B8DAA
:102FBC00DBB203F00F03DBB23033DBB23B773B7F8A
:102FCC007B7400237B770023BB747648FDF7DAF81B
:102FDC00754B1B78DBB2062B00F2358101A252F83F
:102FEC0023F000BF0D30000897300008293100088D
:102FFC00C5310008C5310008C5310008C5310008CD
:10300C006A4B1B889BB2BA8D9A420BD0F988BA884E
:10301C0007F11403386A0090084611461A467B6A79
:10302C00FDF704FB97F82F309BB25B009AB2FB883C
:10303C001344FB80F988BA8807F10803386A0090BA
:10304C00084611461A467B6AFDF7F0FA97F82F30BE
:10305C009AB2FB881344FB80554B1B889BB27A8D2C
:10306C009A420BD0F988BA8807F11003386A00909D
:10307C00084611461A467B6AFDF7D8FA4B4BBA8DB7
:10308C001A804B4B7A8D1A80DEE0FB8B002B12D012
:10309C00FA88BB88396A009110461946454A7B6A02
:1030AC00FDF7C4FA97F82F309BB25B009AB2FB88FD
:1030BC001344FB8013E0F988BA8807F11403386ACB
:1030CC000090084611461A467B6AFDF7AFFA97F84E
:1030DC002F309BB25B009AB2FB881344FB80F988BB
:1030EC00BA8807F10803386A0090084611461A4658
:1030FC007B6AFDF79BFA97F82F309AB2FB88134442
:10310C00FB80F988BA8807F11003386A00900846EA
:10311C0011461A467B6AFDF789FA95E0F988BA8858
:10312C0007F11403386A0090084611461A467B6A68
:10313C00FDF77CFA97F82F309BB25B009AB2FB88B4
:10314C001344FB80F988BA8807F10803386A0090A9
:10315C00084611461A467B6AFDF768FA97F82F3035
:10316C009AB2FB881344FB80FB8B002B0AD0FA88A5
:10317C00BB88396A0091104619460E4A7B6AFDF7E6
:10318C0055FA61E0F988BA8807F11003386A0090A3
:10319C00084611461A467B6AFDF748FA54E000BF10
:1031AC0046090020FC8101089C04002064090020D1
:1031BC0044090020B0BF01082B4B1B889BB2BA8D71
:1031CC009A420BD0F988BA8807F11403386A009038
:1031DC00084611461A467B6AFDF728FA97F82F30F5
:1031EC009BB25B009AB2FB881344FB80F988BA88C7
:1031FC0007F10803386A0090084611461A467B6AA4
:10320C00FDF714FA97F82F309AB2FB881344FB8021
:10321C00164B1B889BB27A8D9A420BD0F988BA88D0
:10322C0007F11003386A0090084611461A467B6A6B
:10323C00FDF7FCF90C4BBA8D1A800C4B7A8D1A8069
:10324C0000F040FA00E000BFBB8D002B08D17B8D55
:10325C00002B05D13B8D002B02D1054B01221A709E
:10326C003037BD4680BD00BF6409002044090020F2
:10327C00DE06002080B58AB000AF0B463A600246ED
:10328C00FA80BB802F2387F827300E23BB842123A1
:10329C007B8437233B843B681B78BB843B685B781F
:1032AC007B843B689B783B84BB8C1B099BB2DBB259
:1032BC003033DBB23B763B7E3B75BB8CDBB203F031
:1032CC000F03DBB23033DBB27B767B7E7B75002366
:1032DC00BB753B8C03F001039BB2002B02D03A234D
:1032EC00BB6001E02023BB600023FB607B8C1B09CF
:1032FC009BB2DBB23033DBB2FB76FB7E3B747B8C58
:10330C00DBB203F00F03DBB23033DBB23B773B7F36
:10331C007B7400237B770023BB743148FCF732FFAE
:10332C00304B1B78DBB2012B16D13B8C03F0010325
:10333C009BB2002B10D0FA88BB88104619462A4A3B
:10334C00FF23FDF78DF997F827309BB25B009AB2FB
:10335C00FB881344FB8011E0F988BA8807F1140349
:10336C00084611461A46FF23FDF77AF997F82730DD
:10337C009BB25B009AB2FB881344FB80F988BA8835
:10338C0007F10803084611461A46FF23FDF768F9B2
:10339C0097F827309AB2FB881344FB80114B1B78AB
:1033AC00DBB2022B0ED13B8C03F001039BB2002B42
:1033BC0008D0FA88BB88104619460B4AFF23FDF744
:1033CC004FF909E0F988BA8807F11003084611464D
:1033DC001A46FF23FDF744F92837BD4680BD00BFD0
:1033EC00FC8101089C040020B0BF010880B588B0A6
:1033FC0002AF0B463A600246FA80BB801E23FB826A
:10340C000E23BB8221237B8237233B823B681B78B4
:10341C00BB823B685B787B823B689B783B82BB8A38
:10342C001B099BB2DBB23033DBB23B72BB8ADBB223
:10343C0003F00F03DBB23033DBB27B723A23BB7287
:10344C007B8A1B099BB2DBB23033DBB2FB727B8A0B
:10345C00DBB203F00F03DBB23033DBB23B73002380
:10346C007B737E4B00221A707C4B1B78DBB2012BDA
:10347C0026D13B8A03F001039BB2002B20D0FA88A3
:10348C00BB886FF07F41009110461946744A4FF487
:10349C007F03FDF7CBF8FA88FB8A1344FB80FA888C
:1034AC00BB886FF07F410091104619466C4A4FF46F
:1034BC007F03FDF7BBF8FA88FB8A1344FB8011E00D
:1034CC00F988BA8807F108036FF07F40009008462E
:1034DC0011461A464FF47F03FDF7A8F8FA88FB8AC9
:1034EC001344FB80FA88FB8A1344FB807B8A1B09FC
:1034FC009BB2DBB23B727B8ADBB203F00F03DBB215
:10350C007B72564B1B78DBB2022B26D13B8A03F025
:10351C0001039BB2002B20D0FA88BB886FF07F414F
:10352C000091104619464E4A4FF47F03FDF77EF882
:10353C00FA88FB8A1344FB80FA88BB886FF07F41C2
:10354C00009110461946464A4FF47F03FDF76EF87A
:10355C00FA88FB8A1344FB8023E0F988BA883B7A0B
:10356C0030336FF07F400090084611461A464FF4F6
:10357C007F03FDF75BF8FA88FB8A1344FB80F9881C
:10358C00BA887B7A30336FF07F4000900846114642
:10359C001A464FF47F03FDF749F8FA88FB8A134467
:1035AC00FB80FA88FB8A1344FB803B8A1B099BB285
:1035BC00DBB23B723B8ADBB203F00F03DBB27B72F4
:1035CC00264B1B78DBB2032B26D13B8A03F001037D
:1035DC009BB2002B20D0FA88BB880F21009110469B
:1035EC0019464FF478424EF67D73FEF7EDF8FA88E3
:1035FC00FB8A1344FB80FA88BB880F21009110468C
:10360C0019464FF478424EF67D73FEF7DDF8FA88D2
:10361C00FB8A1344FB801DE03B7A1946FA88BB8871
:10362C000091104619464FF478424EF67D73FEF722
:10363C00CBF8FA88FB8A1344FB807B7A1946FA880C
:10364C00BB880091104619464FF478424EF67D73B4
:10365C00FEF7BAF81837BD4680BD00BF9C040020A9
:10366C00B4BF010880B485B000AF78607B6803F408
:10367C0078031A0A7B6803F47C435B091A437B6862
:10368C0003F0F803DB081343FB60FB6818461437A0
:10369C00BD465DF8047B704780B582B000AF002357
:1036AC00FB713B460120194603F00AF93B78FB718C
:1036BC003B462D2000211A46FFF72CFC0837BD464F
:1036CC0080BD00BF80B582B000AF3B1D0020194605
:1036DC0003F0FEF9BA79054B1A703B1D37206421B3
:1036EC001A46FFF707FA0837BD4680BD9D04002037
:1036FC0080B582B000AF3B1D0020194603F0E8F9FD
:10370C00BA79084B1B78DBB29A42F4D0BA79054BE4
:10371C001A703B1D372064211A46FFF7EBF9083766
:10372C00BD4680BD9D04002080B485B000AF03462B
:10373C00FB71FB791B09FB73FB7B5B00DAB2FB7B38
:10374C001344DBB25B00DBB2FA79D31ADBB2184656
:10375C001437BD465DF8047B704700BF80B483B05E
:10376C0000AF0346FB71FA790C4BA3FB0213DB0889
:10377C00DBB21B01D8B2FA79084BA3FB0213D908B0
:10378C000B469B000B445B00D31ADBB20344DBB249
:10379C0018460C37BD465DF8047B7047CDCCCCCCBD
:1037AC0080B483B000AF0346FB710D4B0C4A12681A
:1037BC0022F004021A60FB791B09DAB2094B1A7069
:1037CC00084B1B781A465201D21A92001344DB00A4
:1037DC009AB2054B1A800C37BD465DF8047B7047D6
:1037EC0010E000E09E040020A004002080B485B00E
:1037FC0000AF0346FB80124BFA881249098801FB83
:10380C0002F25A600E4B00229A600D4B01221A6094
:10381C000B4B1B68FB60FB6803F00103002B04D00F
:10382C00FB6803F48033002BF2D0054B00221A60A6
:10383C00034B00229A601437BD465DF8047B704739
:10384C0010E000E0A004002080B485B000AF7860E8
:10385C00124B134A1278796801FB02F25A600F4B33
:10386C0000229A600D4B01221A600C4B1B68FB6006
:10387C00FB6803F00103002B04D0FB6803F48033D6
:10388C00002BF2D0054B00221A60044B00229A60E8
:10389C001437BD465DF8047B704700BF10E000E0B4
:1038AC009E04002080B582B000AF0520012102F0FB
:1038BC0007FC4FF48050012102F020FC20233B60D8
:1038CC0002233B7103237B710023BB710123FB712A
:1038DC003B462148194601F0C7FD40233B603B465F
:1038EC001D48194601F0C0FD80233B603B461A4839
:1038FC00194601F0B9FD10233B6001233B710023F5
:10390C00BB710123FB7103237B713B4613481946A2
:10391C0001F0AAFD4FF400633B6000233B710123CF
:10392C00FB713B460C48194601F09EFD0A480521E7
:10393C00052201F013FF08480621052201F00EFFB5
:10394C0005480721052201F009FF0120012102F0A1
:10395C00B7FB0837BD4680BD00000240000802409E
:10396C0080B586B000AF0023BB804FF48273FB8020
:10397C0000233B8102237B810123BB814FF4007325
:10398C00FB8100233B8200237B820723BB823B1DF0
:10399C000548194603F0C6FF0348012104F0EAF874
:1039AC001837BD4680BD00BF0030014080B58CB0DB
:1039BC0002AF00F097FDFFF775FFFFF7D1FF002076
:1039CC0000F086F9012000F083F91020FFF7E8FEE3
:1039DC00FEF798FB0020FEF781FE00F0A7F800F040
:1039EC002FF9002300932D201421374A6FF07F43C9
:1039FC00FCF71CFE0320002100F0E8F90120002157
:103A0C0000F0E4F90220002100F0E0F9012001218E
:103A1C0002F092FB1C2387F82030002387F821301A
:103A2C00012387F82230012387F8233007F1200384
:103A3C00184600F0D5FE4FF44863BB800023FB8092
:103A4C006423BB600023BB813B1D4FF080401946B3
:103A5C0004F06EFD4FF080400121012205F094FC32
:103A6C004FF08040012104F0C9FE184805210522C1
:103A7C0001F074FE15480621052201F06FFE134873
:103A8C000721052201F06AFE11481249012207F0B4
:103A9C00F9FC034687F82730FFF714FE0E4B1B7812
:103AAC00DBB2002B0FD0FFF7F7FD0B4B00221A7087
:103ABC000A4B1B78DBB2002B05D0FFF719FE074B26
:103ACC0000221A70EAE7E9E7F8C602080000024093
:103ADC00A404002000C70208DD060020DE0600203A
:103AEC0080B483B000AF78607A68064B1A6000BF70
:103AFC00044B1B68002BFBD10C37BD465DF8047BD7
:103B0C00704700BFD806002080B400AF064B1B687E
:103B1C00002B04D0044B1B685A1E034B1A60BD4685
:103B2C005DF8047B704700BFD806002080B584B0D8
:103B3C0000AF4FF08050012102F0FEFA012001216C
:103B4C0002F0DCFA01F050FE012001F05BFE4FF4B4
:103B5C00803002F063FA012002F086F800BF4920A1
:103B6C0002F0E0FB0346002BF9D0012002F088FAAA
:103B7C0002F070FD304B7F225A602F4BFF229A606F
:103B8C002D4B00221A602C4802F0B4FC2B4B402227
:103B9C00DA702A4B23221A70284B59225A70274B61
:103BAC0050229A700120254902F0EAFD0E23FB7089
:103BBC000A237B700423BB7006233B703B4600201A
:103BCC00194602F0DFFE4FF4801001F0C1FB4FF4F8
:103BDC0080137B6000233B7208237B720123BB7232
:103BEC003B1D184601F0DCFA03233B7300237B7367
:103BFC000023BB730123FB7307F10C03184600F081
:103C0C00EFFD042003F06CF9002003F089F94FF468
:103C1C008040012103F046FD4FF48070002103F039
:103C2C00CBF84FF40070002103F0C6F8012003F02C
:103C3C009BF91037BD4680BD58090020680900204B
:103C4C0080B588B000AF4FF48070002103F0B4F859
:103C5C004FF4003001F07CFB4FF40033BB610023C8
:103C6C003B7708237B770123BB7707F118031846B2
:103C7C0001F096FA29233B7107237B710023BB715A
:103C8C000123FB713B1D184600F0AAFD0023FB60CD
:103C9C004FF080433B6107233B7500233B720123AC
:103CAC007B720023BB7207F1080301204FF4807173
:103CBC001A4602F05BFF4FF48050012103F0F2FC36
:103CCC004FF48070012103F077F82037BD4680BD9A
:103CDC0080B584B000AF0346FB71FA79104B53F8F2
:103CEC0022301846012102F0EBF9FA790D4B33F82A
:103CFC001230BB6001233B730023BB730023FB73A7
:103D0C0003237B73FA79084B53F8222007F108033D
:103D1C001046194601F0A8FB1037BD4680BD00BF08
:103D2C0008C7020804C702080000002080B483B052
:103D3C0000AF0346FB71FA79064B53F82230F97940
:103D4C00054A32F811201A830C37BD465DF8047B06
:103D5C00704700BF0000002004C7020880B483B085
:103D6C0000AF0346FB71FA79064B53F82230F97910
:103D7C00054A32F811205A830C37BD465DF8047B96
:103D8C00704700BF0000002004C7020880B483B055
:103D9C0000AF0346FB71FA790A4B53F82230F979DC
:103DAC00084A52F82120928A91B2F879064A32F8E0
:103DBC0010204A4092B29A820C37BD465DF8047BC3
:103DCC00704700BF0000002004C7020880B588B00F
:103DDC0000AF02460B46FA71BB71FA792C4B53F8C3
:103DEC0022301846012102F06BF90120012102F06A
:103DFC0085F900233B77FB79002B02D10023FB775D
:103E0C0001E00123FB77FA79224B33F81230BB61C6
:103E1C00FA79214B53F8222007F118031046194662
:103E2C0001F022FBBB79012B2ED1FA791B4B33F815
:103E3C001230DAB2F9791A4B33F81130DBB2104682
:103E4C00194604F005F9FA79164B33F812303B6138
:103E5C0000233B750C237B750123BB7507F1100305
:103E6C00184601F09DF9FA790F4B33F81230DBB29A
:103E7C003B7307237B730123BB730123FB7307F194
:103E8C000C03184600F0ACFC2037BD4680BD00BFCB
:103E9C0018C7020810C702080800002030C7020823
:103EAC0038C7020828C7020840C7020880B582B08C
:103EBC0000AF0346FB71FA79074B53F82220F979CE
:103ECC00064B33F811301046194601F09DFB0346A2
:103EDC0018460837BD4680BD0800002010C70208F0
:103EEC0080B400AFBD465DF8047B704780B400AF72
:103EFC00FEE700BF80B400AFFEE700BF80B400AFA8
:103F0C00FEE700BF80B400AFFEE700BF80B400AF97
:103F1C00BD465DF8047B704780B400AFBD465DF8CC
:103F2C00047B704780B400AFBD465DF8047B7047DE
:103F3C0080B500AF09F0BCFB80BD00BF80B500AF01
:103F4C004FF4804003F026FC0346002B10D04FF4B6
:103F5C00804003F057FC4FF4801001F0F9F9054B49
:103F6C0001221A70044B1B8801339AB2024B1A803F
:103F7C0080BD00BFDD0600204609002080B500AFE3
:103F8C00202001F0B1F80346002B53D0202001F083
:103F9C00D5F8294B1B78DBB2002B03D00020FFF7A0
:103FAC00C5FE02E00020FFF7D9FE234B1B78DBB2E5
:103FBC00002B0CBF00230123DBB283F00103DBB227
:103FCC0003F00103DAB21C4B1A701C4B00221A606E
:103FDC001A4B4FF400725A60184B194A9A60174BDF
:103FEC00184A1268DA60174B1B6803F50072154B00
:103FFC001A60154B1B6803F5833303F5A073114A44
:10400C00126893420CD80020002100F0EFFC0B4802
:10401C00002100F0CFFF09480221002201F002F834
:10402C00064B42F293021A60084B20225A60084B4E
:10403C0001221A7080BD00BF180900201C600240CC
:10404C00107400407C0900207409002000600240BC
:10405C00C80F002080B588B000AF4FF08040012120
:10406C0005F0F0F90346002B00F017824FF080406A
:10407C00012105F011FAB04B1B785B00DBB203F0A9
:10408C000F03DAB2AD4B1B8A9BB25B089BB2DBB25F
:10409C0003F00103DBB21343DBB2DAB2A64B1A70A6
:1040AC00A54B1B78012B40F0D080A54B1B78022B25
:1040BC0005D807F108030120194602F001FCA04BBA
:1040CC001B78022B04D93B1D0020194602F000FD81
:1040DC009B4B1B78013B052B00F29A8001A151F8F8
:1040EC0023F000BF09410008494100088B4100083A
:1040FC00AD410008DD410008FD4100083B7ABB776B
:10410C00BB7F1846FFF710FB0346BB77BB7F591CE0
:10411C008C4B83FB01239A10CB17D21A13465B00EE
:10412C001344DB00CA1A1346BB77BB7F1846FFF754
:10413C0015FB0346BB77BB7F3B726AE07B7AFB7750
:10414C00FB7F1846FFF7F0FA0346FB77FB7F591C01
:10415C007D4B81FB03230B445A11CB17D21A134608
:10416C001B019B1A9B00CA1A1346FB77FB7F184650
:10417C00FFF7F4FA0346FB77FB7F7B7249E0FB7990
:10418C00FB60FB680133714AA2FB031252096421E4
:10419C0001FB02F29B1AFB60FB68DBB2FB7138E09F
:1041AC007B79BB61BB69591C694BA3FB01239A0842
:1041BC0013465B0013449B001344CB1ABB61BB69D1
:1041CC00002B01D10123BB61BB69DBB27B7120E009
:1041DC00BB797B617B69013303F01F037B617B69D6
:1041EC00002B01D101237B617B69DBB2BB7110E039
:1041FC003B793B613B69013303F007033B613B694E
:10420C00002B01D101233B613B69DBB23B7100E028
:10421C0000BF4B4B1B78022B04D93B1D00201946C9
:10422C0002F0B0FB464B1B78012B03D0444B1B78A0
:10423C00022B09D107F108030120194602F0A0FA5C
:10424C00444B01221A7028E127E1434B1B785B0099
:10425C00DBB203F00F03DAB2384B1B8A9BB29B081C
:10426C009BB2DBB203F00103DBB21343DBB2DAB275
:10427C00394B1A70384B1B78012B40F0BD80304BFA
:10428C001B78022B05D807F108030120194602F010
:10429C0017FB2B4B1B78022B04D93B1D0020194616
:1042AC0002F016FC264B1B78013B052B00F2878095
:1042BC0001A151F823F000BFDD42000811430008B2
:1042CC00694300087B43000897430008AF4300088C
:1042DC003B7ABB77BB7F1846FFF726FA0346BB77C2
:1042EC00BB7F002B03D0BB7F013BBB7701E01723C7
:1042FC00BB77BB7F1846FFF731FA0346BB77BB7F12
:10430C003B725DE07B7AFB77FB7F1846FFF70CFA7C
:10431C000346FB77FB7F002B03D0FB7F013BFB7736
:10432C0001E03B23FB77FB7F1846FFF717FA0346A8
:10433C00FB77FB7F7B7243E01909002000000240F1
:10434C009C040020ABAAAA2A898888881F85EB5177
:10435C004FECC44EDD0600201A090020FB79FB60EF
:10436C00FB68013BFB60FB68DBB2FB7128E07B79EF
:10437C00BB61BB69013BBB61BB69002B01D10C2349
:10438C00BB61BB69DBB27B711AE0BB797B617B697A
:10439C00022B02D97B69013B7B617B69DBB2BB7170
:1043AC000EE03B793B613B69013B3B617B69002B38
:1043BC0001D101237B613B69DBB23B7100E000BFA3
:1043CC00374B1B78022B04D93B1D0020194602F0F9
:1043DC00D9FA334B1B78012B03D0314B1B78022BB2
:1043EC0009D107F108030120194602F0C9F92D4B38
:1043FC0001221A7051E050E02B4B1B785B00DBB2B2
:10440C0003F00F03DAB2294B1B8A9BB2DB089BB279
:10441C00DBB203F00103DBB21343DBB2DAB2224BA3
:10442C001A70214B1B78012B37D11D4B1B78591C53
:10443C001F4B81FB03230B449A10CB17D21A134644
:10444C00DB009B1ACA1AD2B2154B1A70144B1B788C
:10445C00002B03D0124B1B78062B01D1FFF732F93E
:10446C00144B1B78DBB2002B03D00120FFF75EFC52
:10447C0002E00120FFF772FC0E4B1B78DBB2002B25
:10448C000CBF00230123DBB283F00103DBB203F08A
:10449C000103DAB2074B1A70FFE72037BD4680BD27
:1044AC009C040020DD0600201B09002000000240B7
:1044BC00932449921809002080B500AF4FF4805026
:1044CC0003F068F90346002B0AD00020FFF75EFCCE
:1044DC004FF4805003F096F94FF4003000F038FFA1
:1044EC0080BD00BF80B500AF144B144A126842F473
:1044FC0080721A60114A114B9968114B0B409360F2
:10450C000E4A0E4B1B6823F0885323F001131360E3
:10451C000A4B0A4A126822F480221A60074B074A97
:10452C00926822F47D029A60044B0022DA6000F05B
:10453C00B5F8044B4FF000629A6080BD0038024021
:10454C000CC0FF8800ED00E080B487B000AF002302
:10455C007B6100233B610023FB600023BB600023D5
:10456C007B60484B9B6803F00C037B617B690C2BD5
:10457C0064D801A252F823F0B94500084946000856
:10458C004946000849460008D94500084946000834
:10459C004946000849460008E1450008494600081C
:1045AC004946000849460008E9450008354B5B6858
:1045BC0003F460435B0B7B607B6801334FF4004278
:1045CC0002FA03F31A46304B1A6047E02E4B2F4A7F
:1045DC001A6043E02C4B2E4A1A603FE0294B9B6833
:1045EC0003F470133B61274B9B6803F44003FB609F
:1045FC003B699B0C274AD35CDBB23B61FB689B0D90
:10460C000133FB601F4B9B6803F48033BB60BB68BA
:10461C00002B09D13B691D4A02FB03F2FB68B2FB7C
:10462C00F3F2194B1A6019E03B69194A02FB03F2C9
:10463C00FB68B2FBF3F2144B1A600FE0114B5B6892
:10464C0003F460435B0B7B607B6801334FF40042E7
:10465C0002FA03F31A460C4B1A6000BF094B9B6815
:10466C0003F0F0031B090C4AD35CDBB27B61064BF5
:10467C001A687B69DA40044B1A601C37BD465DF83A
:10468C00047B704700380240180000200024F4001E
:10469C0000127A001C0000202800002080B483B097
:1046AC0000AF00237B6000233B60414B404A126803
:1046BC0042F4A0221A603E4B1B6803F400333B60AB
:1046CC007B6801337B603B68002B03D17B68B3F5BF
:1046DC00A06FF0D1364B1B6803F40033002B02D0D3
:1046EC0001233B6001E000233B603B68012B5AD166
:1046FC00304B304A126842F004021A602D4B2D4A9E
:10470C00126842F002021A602A4B2A4A126842F0DE
:10471C0001021A60264B264A526A42F080525A62B3
:10472C00254B4FF400621A6000BF234B5B6803F00B
:10473C001003002BF9D11E4B1D4A92689A601C4B3A
:10474C001B4A92689A601A4B194A92689A60184BE5
:10475C00174A926822F47D029A60154B144A9268AB
:10476C0042F411029A60124B114A126842F08072A4
:10477C001A6000BF0E4B1B6803F00073002BF9D0BE
:10478C000B4B0B4A926822F003029A60084B084AC2
:10479C00926842F003029A6000BF054B9B6803F0DD
:1047AC000C030C2BF9D10C37BD465DF8047B70471C
:1047BC0000380240003C02400070004080B483B0DE
:1047CC0000AF7860054A7B6843F0BF6343F4003365
:1047DC00D3600C37BD465DF8047B704700ED00E0FC
:1047EC0080B485B000AF78600023FB730023BB73EB
:1047FC000F237B737B68DB78002B37D0254BDB6872
:10480C00DB4303F4E0631B0AFB73FB7BC3F1040380
:10481C00BB737A7BFB7B42FA03F37B737B685B781D
:10482C001A46BB7B02FA03F3FB737B689A787B7B9B
:10483C001340DAB2FB7B1343FB73FB7B1B01FB7353
:10484C00154A7B681B781344FA7B83F80023124BC0
:10485C007A6812785209D2B27968097801F01F018E
:10486C00012000FA01F143F822100EE00A4B7A689D
:10487C0012785209D2B27968097801F01F0101202F
:10488C0000FA01F1203243F822101437BD465DF8CE
:10489C00047B704700ED00E000E100E080B483B0E1
:1048AC0000AF78603960074A3B6823F0604323F01F
:1048BC007F0379680B4393600C37BD465DF8047B2E
:1048CC00704700BF00ED00E080B483B000AF02463B
:1048DC000B46FA71BB71BB79002B06D0094B094A08
:1048EC001169FA790A431A6106E0064B054A116907
:1048FC00FA79D2430A401A610C37BD465DF8047B45
:10490C00704700BF00ED00E080B483B000AF78606A
:10491C007B68042B06D1094B084A126842F004024A
:10492C001A6005E0054B054A126822F004021A6071
:10493C000C37BD465DF8047B704700BF10E000E00B
:10494C0080B500AF4FF00050012101F04FFC4FF04B
:10495C000050002101F04AFC80BD00BF80B485B03E
:10496C0000AF786039600023FB600023BB60134B01
:10497C001B68FB607B6840F6FE7202FA03F3DB43B4
:10498C00FA681340FB603B681A683B685B681A4323
:10499C003B689B681A433B68DB681343BB607B68CE
:1049AC00BA6802FA03F3FA681343FB60034BFA6824
:1049BC001A601437BD465DF8047B704700740040E4
:1049CC0080B483B000AF78607B6800221A607B688B
:1049DC0000225A607B6800229A607B680022DA60B1
:1049EC000C37BD465DF8047B704700BF80B483B0C4
:1049FC0000AF78600B46FB70FB78002B09D00C4B9A
:104A0C000B4A11687A68012000FA02F20A431A6014
:104A1C0009E0074B064A11687A68012000FA02F295
:104A2C00D2430A401A600C37BD465DF8047B7047D0
:104A3C000074004080B483B000AF78600B46FB700C
:104A4C00FB78002B0AD00D4B0C4A51687A6812097E
:104A5C00012000FA02F20A435A600AE0074B074AA7
:104A6C0051687A681209012000FA02F2D2430A4016
:104A7C005A600C37BD465DF8047B704700740040EB
:104A8C0080B483B000AF0346FB71FB79002B06D0DA
:104A9C00084B084A526842F003025A6005E0054B85
:104AAC00044A526822F003025A600C37BD465DF886
:104ABC00047B70470074004080B485B000AFF86090
:104ACC00B9601346FB71FB79002B09D00C4B0C4AD7
:104ADC001168FA68B86800FA02F20A431A6009E031
:104AEC00074B074A1168FA68B86800FA02F2D24319
:104AFC000A401A601437BD465DF8047B704700BF4E
:104B0C000074004080B485B000AF78600B467B80A9
:104B1C000023FB60074BFB60FA687B681344083387
:104B2C00FB60FB687A881A601437BD465DF8047B1D
:104B3C00704700BF0074004080B485B000AF78604F
:104B4C000B467B800023FB60074BFB60FA687B689D
:104B5C0013441433FB60FB687A881A601437BD4623
:104B6C005DF8047B704700BF0074004080B485B0D2
:104B7C0000AF786013460A467A803B800023FB60C6
:104B8C000023BB607B68082B05D17B881A023B880D
:104B9C001343FB6004E07B881A043B881343FB60DF
:104BAC00074BBB607A68BB6813442033BB60BB689F
:104BBC00FA681A601437BD465DF8047B704700BF75
:104BCC000074004080B485B000AF78600023FB60B7
:104BDC00084BFB607B689A08FB6813442C33FB6022
:104BEC00FB681B689BB218461437BD465DF8047B06
:104BFC00704700BF0074004080B483B000AF786091
:104C0C000B46FB70FB78002B0AD00D4B0C4A11683D
:104C1C007A684FF4805000FA02F20A431A600AE0F4
:104C2C00074B074A11687A684FF4805000FA02F279
:104C3C00D2430A401A600C37BD465DF8047B7047BE
:104C4C000074004080B485B000AFF860B9601346C2
:104C5C00FB71FB79002B09D00C4B0C4A1168FA68DC
:104C6C00B86800FA02F20A431A6009E0074B074AD7
:104C7C001168FA68B86800FA02F2D2430A401A6066
:104C8C001437BD465DF8047B704700BF00740040CC
:104C9C0080B485B000AF786039600023FB730A4B99
:104CAC005A6B7B68396801FA03F31340002B02D06E
:104CBC000123FB7301E00023FB73FB7B18461437C5
:104CCC00BD465DF8047B70470074004080B483B02F
:104CDC0000AF78603960054B7A68396801FA02F2E6
:104CEC005A630C37BD465DF8047B70470074004076
:104CFC0080B485B000AF786039600023FB7300236B
:104D0C00BB60104B1A687B68396801FA03F31340D7
:104D1C00BB600C4B5A6B7B68396801FA03F3134088
:104D2C00002B05D0BB68002B02D00123FB7301E0E4
:104D3C000023FB73FB7B18461437BD465DF8047BE0
:104D4C00704700BF0074004080B483B000AF78603F
:104D5C003960054B7A68396801FA02F25A630C37EC
:104D6C00BD465DF8047B70470074004080B483B08E
:104D7C0000AF78607B681A684FF6FE7313407A6850
:104D8C0013607B6800221A607B6800225A607B6883
:104D9C0000229A607B680022DA607A68434B9A4260
:104DAC0006D1434B424A526842F00F025A6077E0F8
:104DBC007A68404B9A4206D13D4B3D4A526842F0CC
:104DCC00F0025A606CE07A683B4B9A4206D1384B41
:104DDC00374A526842F470625A6061E07A68374B25
:104DEC009A4206D1324B324A526842F470425A60AF
:104DFC0056E07A68324B9A4206D12D4B2C4A5268B7
:104E0C0042F470225A604BE07A682E4B9A4206D1DB
:104E1C00274B274A526842F470025A6040E07A6885
:104E2C00294B9A4206D1224B214A526842F07062B9
:104E3C005A6035E07A68254B9A4206D1244B244AB5
:104E4C00526842F00F025A602AE07A68214B9A426B
:104E5C0006D11F4B1E4A526842F0F0025A601FE006
:104E6C007A681D4B9A4206D1194B194A526842F482
:104E7C0070625A6014E07A68184B9A4206D1144B4F
:104E8C00134A526842F470425A6009E07A68144B33
:104E9C009A4205D10E4B0E4A526842F470225A6067
:104EAC000C37BD465DF8047B704700BF08600240BC
:104EBC00006002401C6002403060024044600240CE
:104ECC00586002406C6002408060024008640240FE
:104EDC00006402401C64024030640240446402409E
:104EEC005864024080B485B000AF7860396000230C
:104EFC00FB607B681B68FB60FB6823F4FF4323F0BB
:104F0C007003FB603B689A683B681B6A1A433B68FA
:104F1C001B691A433B685B691A433B689B691A43DC
:104F2C003B68DB691A433B685B6A1A433B689B6AC4
:104F3C001343FA681343FB607B68FA681A603B689A
:104F4C00DA687B685A603B681A687B689A603B68D1
:104F5C005A687B68DA601437BD465DF8047B70478D
:104F6C0080B483B000AF78607B6800221A607B68E5
:104F7C0000225A607B6800229A607B680022DA600B
:104F8C007B6800221A617B6800225A617B680022D0
:104F9C009A617B680022DA617B6800221A627B6866
:104FAC0000225A627B6800229A620C37BD465DF87B
:104FBC00047B704780B483B000AF78600B46FB7005
:104FCC00FB78002B06D07B681B6843F001027B68E2
:104FDC001A6006E07B681A684FF6FE7313407A6815
:104FEC0013600C37BD465DF8047B704780B483B00A
:104FFC0000AF78600B467B807A887B685A600C37F0
:10500C00BD465DF8047B704780B483B000AF786018
:10501C007B685B689BB218460C37BD465DF8047B19
:10502C00704700BF80B485B000AFF860B96013461C
:10503C00FB71FB79002B06D0FB681A68BB681A431E
:10504C00FB681A6006E0FB681A68BB68DB431A4011
:10505C00FB681A601437BD465DF8047B704700BFCF
:10506C0080B485B000AF78600023FB730023BB6075
:10507C007B6803F08053002B03D10C4B1B68BB6087
:10508C0002E00B4B1B68BB60BA687B681340002BBB
:10509C0002D00123FB7301E00023FB73FB7B18465A
:1050AC001437BD465DF8047B704700BF00600240BA
:1050BC000064024080B483B000AF78607B6803F07A
:1050CC008053002B03D1064B7A685A6002E0054BE3
:1050DC007A685A600C37BD465DF8047B704700BF98
:1050EC00006002400064024080B485B000AF78607C
:1050FC000023FB730023BB607B6803F08053002B01
:10510C0003D10C4B1B68BB6002E00B4B1B68BB60F4
:10511C00BA687B681340002B02D00123FB7301E0BB
:10512C000023FB73FB7B18461437BD465DF8047BEC
:10513C00704700BF006002400064024080B483B03E
:10514C0000AF78607B6803F08053002B03D1064BD3
:10515C007A685A6002E0054B7A685A600C37BD4693
:10516C005DF8047B704700BF0060024000640240A1
:10517C0080B400AF094B00221A60084B00225A6021
:10518C00064B00229A60054B0022DA60034B6FF04D
:10519C007F425A61BD465DF8047B704700040140B4
:1051AC0080B485B000AF78600023FB60324BFB60AD
:1051BC007B689B79002B4DD02F4B2F4A11687A6856
:1051CC001268D2430A401A602B4B2B4A51687A68FA
:1051DC001268D2430A405A607B681B79FA68134400
:1051EC00FB60FB68FA6811687A6812680A431A60F7
:1051FC00214B214A91687A681268D2430A409A601E
:10520C001D4B1D4AD1687A681268D2430A40DA6095
:10521C007B685B79102B0ED1174B174A91687A6813
:10522C0012680A439A60144B134AD1687A68126860
:10523C000A43DA601BE0104BFB607B685B79FA6811
:10524C001344FB60FB68FA6811687A6812680A43B9
:10525C001A600CE07B681B79FA681344FB60FB68EE
:10526C00FA6811687A681268D2430A401A601437D7
:10527C00BD465DF8047B70470004014080B483B0E8
:10528C0000AF78607B6800221A607B6800221A717C
:10529C007B680C225A717B6800229A710C37BD46D0
:1052AC005DF8047B704700BF80B483B000AF7860BA
:1052BC00054B054A11697A680A431A610C37BD46D9
:1052CC005DF8047B704700BF0004014080B485B0DA
:1052DC0000AF78600023FB73084B5A697B6813405E
:1052EC00002B02D00123FB7301E00023FB73FB7B3B
:1052FC0018461437BD465DF8047B70470004014026
:10530C0080B483B000AF7860034B7A685A610C3775
:10531C00BD465DF8047B70470004014080B485B045
:10532C0000AF78600023FB73084B5A697B6813400D
:10533C00002B02D00123FB7301E00023FB73FB7BEA
:10534C0018461437BD465DF8047B704700040140D5
:10535C0080B483B000AF7860034B7A685A610C3725
:10536C00BD465DF8047B70470004014080B582B0F7
:10537C0000AF78607A68344B9A4208D10120012141
:10538C0000F0F8FE0120002100F0F4FE59E07A68EC
:10539C002E4B9A4208D10220012100F0EBFE022094
:1053AC00002100F0E7FE4CE07A68294B9A4208D1C4
:1053BC000420012100F0DEFE0420002100F0DAFEC2
:1053CC003FE07A68234B9A4208D10820012100F073
:1053DC00D1FE0820002100F0CDFE32E07A681E4B91
:1053EC009A4208D11020012100F0C4FE10200021A7
:1053FC0000F0C0FE25E07A68184B9A4208D1402094
:10540C00012100F0B7FE4020002100F0B3FE18E0AF
:10541C007A68134B9A4208D18020012100F0AAFE31
:10542C008020002100F0A6FE0BE07A680D4B9A421A
:10543C0007D12020012100F09DFE2020002100F04A
:10544C0099FE0837BD4680BD0000024000040240B2
:10545C0000080240000C02400010024000180240FC
:10546C00001C02400014024080B487B000AF78608A
:10547C00396000237B6100233B610023FB60002328
:10548C007B617CE07B69012202FA03F33B613B68A0
:10549C001A683B691340FB60FA683B699A426BD10E
:1054AC007B681A687B695B00032101FA03F3DB4319
:1054BC001A407B681A607B681A683B681B7919462E
:1054CC007B695B0001FA03F31A437B681A603B6843
:1054DC001B79012B03D03B681B79022B34D17B68E1
:1054EC009A687B695B00032101FA03F3DB431A40E2
:1054FC007B689A607B689A683B685B7919467B6924
:10550C005B0001FA03F31A437B689A607B689B8803
:10551C009AB27B699BB2012101FA03F39BB2DB4384
:10552C009BB213409AB27B689A807B689B889AB234
:10553C003B689B7919467B699BB201FA03F39BB2DA
:10554C0013439AB27B689A807B68DA687B699BB25A
:10555C005B00032101FA03F3DB431A407B68DA603A
:10556C007B68DA683B68DB7919467B695B0001FA7A
:10557C0003F31A437B68DA607B6901337B617B69D7
:10558C000F2B7FF67FAF1C37BD465DF8047B704751
:10559C0080B483B000AF78607B684FF6FF721A60FE
:1055AC007B6800221A717B6800225A717B6800228A
:1055BC009A717B680022DA710C37BD465DF8047B6A
:1055CC00704700BF80B485B000AF78600B467B801D
:1055DC004FF48033FB607A88FB681343FB60FA68F6
:1055EC007B68DA617A887B68DA61FA687B68DA61F1
:1055FC007B68DB69FB607B68DB69FB601437BD464D
:10560C005DF8047B704700BF80B485B000AF786054
:10561C000B467B800023FB737B681B8A9AB27B88CA
:10562C0013409BB2002B02D00123FB7301E000233B
:10563C00FB73FB7B18461437BD465DF8047B704743
:10564C0080B483B000AF78607B681B8A9BB218462D
:10565C000C37BD465DF8047B704700BF80B485B045
:10566C0000AF78600B467B800023FB737B689B8AC2
:10567C009AB27B8813409BB2002B02D00123FB73A0
:10568C0001E00023FB73FB7B18461437BD465DF825
:10569C00047B704780B483B000AF78607B689B8AD2
:1056AC009BB218460C37BD465DF8047B704700BFB3
:1056BC0080B483B000AF78600B467B807B687A88BF
:1056CC001A830C37BD465DF8047B704780B483B0F9
:1056DC0000AF78600B467B807B687A885A830C37E6
:1056EC00BD465DF8047B704780B483B000AF786032
:1056FC0013460A467A807B707B78002B03D07B683C
:10570C007A881A8302E07B687A885A830C37BD4604
:10571C005DF8047B704700BF80B483B000AF786045
:10572C000B467B807B687A889A820C37BD465DF885
:10573C00047B704780B483B000AF78600B467B80ED
:10574C007B689B8A9AB27B8853409AB27B689A8218
:10575C000C37BD465DF8047B704700BF80B485B044
:10576C0000AF786013460A467A807B700023FB609A
:10577C000023BB607A787B8803F007039B0002FA56
:10578C0003F3FB607B88DB089BB21A467B88DB0843
:10579C009BB219467B68083153F821107B8803F0C3
:1057AC0007039B000F2000FA03F3DB4319407B68CF
:1057BC00083243F822107B88DB089BB21A467B68C0
:1057CC00083253F82220FB681343BB607B88DB084C
:1057DC009BB21A467B680832B96843F8221014371A
:1057EC00BD465DF8047B704780B500AF4FF080502C
:1057FC00012100F0FBFC4FF08050002100F0F6FC82
:10580C0080BD00BF80B483B000AF0346FB71044B76
:10581C00FA791A600C37BD465DF8047B704700BFFF
:10582C0020000E4280B485B000AF78600023FB608E
:10583C00094B1B68FB60FB6823F0E003FB60FA6814
:10584C007B681343FB60044BFA681A601437BD463F
:10585C005DF8047B704700BF0070004080B483B0DB
:10586C0000AF0346FB71044BFA791A600C37BD4646
:10587C005DF8047B704700BF10000E4280B485B009
:10588C0000AF78600B46FB700023FB607A68054B19
:10589C001344FB60FB68FA781A601437BD465DF858
:1058AC00047B7047A0000E4280B483B000AF034667
:1058BC00FB71044BFA791A600C37BD465DF8047B1A
:1058CC00704700BF28000E4280B483B000AF03467F
:1058DC00FB71044BFA791A600C37BD465DF8047BFA
:1058EC00704700BF24000E4280B485B000AF7860D2
:1058FC000023FB600A4B1B68FB60FB6823F4C0535E
:10590C00FB60FA687B681343FB60054BFA6822F076
:10591C000C021A601437BD465DF8047B704700BF5B
:10592C000070004080B483B000AF0346FB71FB797C
:10593C00002B0CD00E4B0E4A126842F001021A607A
:10594C000B4B0B4A126842F480421A600BE0084B76
:10595C00074A126822F480421A60054B044A126806
:10596C0022F001021A600C37BD465DF8047B7047CB
:10597C000070004080B485B000AF78600B46FB70BF
:10598C000023FB600F4B1B68FB60FB6823F00303D9
:10599C00FB60FA687B681343FB600A4BFA681A6079
:1059AC00094B094A126922F004021A61FB78012B97
:1059BC0001D130BF00E020BF1437BD465DF8047B39
:1059CC00704700BF0070004000ED00E080B485B06F
:1059DC0000AF78600B46FB700023FB60124B1B681A
:1059EC00FB60FB6823F00303FB60FA687B681343DE
:1059FC00FB600D4BFA681A600C4B0C4A126942F0B2
:105A0C0004021A61FB78012B01D130BF00E020BFEA
:105A1C00064B064A126922F004021A611437BD467D
:105A2C005DF8047B704700BF0070004000ED00E0A3
:105A3C0080B400AF0B4B0B4A126842F004021A60A0
:105A4C00084B084A126842F002021A60064B064ADA
:105A5C00126942F004021A6130BFBD465DF8047B46
:105A6C00704700BF0070004000ED00E080B485B0CE
:105A7C0000AF78600023FB73084B5A687B681340B7
:105A8C00002B02D00123FB7301E00023FB73FB7B93
:105A9C0018461437BD465DF8047B70470070004013
:105AAC0080B483B000AF7860054B054A11687A6802
:105ABC0092000A431A600C37BD465DF8047B7047B0
:105ACC000070004080B400AF134B134A126842F4CC
