:020000040800F2
:1000000000400020EDD50008A13E0008AD3E0008EC
:10001000B53E0008BD3E0008C53E000800000000D7
:10002000000000000000000000000000CD3E0008BD
:10003000D93E000800000000E53E0008F13E00083F
:100040003DD600083DD600083DD60008FD3E00081C
:100050003DD600083DD600083DD600083DD6000834
:100060003DD600083DD600083DD600083DD6000824
:100070002D3F00083DD600083DD600083DD60008BB
:100080003DD600083DD600083DD600083DD6000804
:100090003DD600083DD600083DD600083DD60008F4
:1000A0003DD600083DD600083DD600083DD60008E4
:1000B000054000083DD600083DD600083DD60008A2
:1000C0003DD600083DD600083DD600083DD60008C4
:1000D0003DD600083DD600083DD600083DD60008B4
:1000E0003DD600083DD600083DD600083DD60008A4
:1000F0003DD60008000000003DD600083DD60008AF
:1001000000000000000000003DD600083DD60008B9
:100110003DD600083DD600083DD600083DD6000873
:100120003DD60008000000000000000000000000B4
:0C01300000000000000000005FF808F173
:10013C0010B5054C237833B9044B13B10448AFF315
:10014C0000800123237010BD8004002000000000FB
:10015C003C01000808B5064B1BB106480649AFF335
:10016C0000800648036813B1054B03B1984708BDDE
:10017C00000000003C0100088404002080040020E2
:10018C000000000080B483B000AF78607B681A7800
:10019C000F4B1A707B685A780D4B5A707B689A78A3
:1001AC000B4B9A707B68DA78094BDA707B685A686B
:1001BC00074B5A607B689A68054B9A607B68DA68D3
:1001CC00034BDA600C37BD465DF8047B704700BF0B
:1001DC003409002080B584B000AF02460B46FA719A
:1001EC00BB710023FB730EE0FB795BB2002B02DAD0
:1001FC0001F002FC01E001F013FCFB795B00FB71E8
:10020C00FB7B0133FB73FA7BBB799A42ECD310373F
:10021C00BD4680BD80B584B000AFF880B980FA705F
:10022C00BB700023FB7316E0FB785BB2002B0CDA7F
:10023C00FB7B9AB2FB88134499B20A4B1B88BA8891
:10024C00084611461A4602F05FF9FB785B00FB701A
:10025C00FB7B0133FB73FA7BBB789A42E4D31037F8
:10026C00BD4680BD6E09002090B587B000AFF86028
:10027C00B9607A603B6000237B82FB6898B2BB68F4
:10028C0099B2FB689AB2BB6A9BB213449BB2013B16
:10029C009AB2BB689CB23B689BB223449BB2013BB5
:1002AC009BB202F0C5F826484FF4805105F078F95E
:1002BC0023484FF4806105F065F90023FB7533E0AA
:1002CC000023BB7500237B7527E07B8A5A1C7A823E
:1002DC007A6813441B787B747B7D0133DA00BB6A2C
:1002EC009A4205DC7B7C18460821FFF773FF0EE071
:1002FC007B7D1A465201D31ADB00DAB2BB6ADBB241
:10030C001344DBB27A7C10461946FFF763FFBB7DC2
:10031C000833BB757B7D01337B75BA7DBB6A9A4212
:10032C00D3DBFB7D0133FB75FA7D3B689A42C7DB5F
:10033C0003484FF4805105F025F91C37BD4690BD9C
:10034C000004024080B586B000AFF860B9607A60F6
:10035C003B6000237B820023FB754BE00023BB75C5
:10036C0000237B753FE07B8A5A1C7A827A6813449F
:10037C001B787B747B7D0133DA003B6A9A4213DC79
:10038C00BB7D9AB2FB689BB2134499B2FB7D9AB2C7
:10039C00BB689BB213449AB27B7C084611461A4642
:1003AC000823FFF737FF18E0BB7D9AB2FB689BB2BE
:1003BC00134498B2FB7D9AB2BB689BB2134499B2BA
:1003CC007B7D1A465201D31ADB00DAB23B6ADBB2F0
:1003DC001344DBB27A7CFFF71DFFBB7D0833BB7582
:1003EC007B7D01337B75BA7D3B6A9A42BBDBFB7D1F
:1003FC000133FB75FA7D3B689A42AFDB1837BD467B
:10040C0080BD00BF90B58BB002AFF860B9607A6068
:10041C003B60534B5B787B77514B9B68BB61386877
:10042C0001F07AFA386B01F0AFFA4D4B1B78FB7583
:10043C004B4B9B78BB754A4BDB787B7581E07B68BB
:10044C001B78202B51D9464B5A687B681B78194670
:10045C007B7FCB1A9B0013441B783B75404B5A682F
:10046C007B681B7819467B7FCB1A9B0013445B88F7
:10047C00FB83FB8BBA691A44FB7D397D0091F868CC
:10048C00B968FFF7F1FE3B7D9AB2FB689BB213444F
:10049C0098B2BB6899B23B7D9AB2FB689BB213448D
:1004AC009AB2BB7D9BB213449AB2FB7D9CB2BB68E3
:1004BC009BB223449BB2013B9BB201F0B9FF0023DA
:1004CC00FB8304E001F0ACFAFB8B0133FB83FA8B6A
:1004DC00BB7DF97D01FB03F39A42F3DB3A7DFB68AC
:1004EC001A44BB7D1344FB6028E0FB6898B2BB68E0
:1004FC0099B27B7D9AB2FB689BB213449BB2013BD1
:10050C009AB2FB7D9CB2BB689BB223449BB2013B6D
:10051C009BB201F08DFF0023FB8304E001F080FA15
:10052C00FB8B0133FB83FA8B7B7DF97D01FB03F3A2
:10053C009A42F3DB7B7DFA681344FB607B680133E2
:10054C007B607B681B78002B7FF479AF054BFA68D6
:10055C001A60054BBA681A602437BD4690BD00BFBF
:10056C0034090020300900202C09002080B58AB005
:10057C0002AFF860B9607A603B60294B5B78FB771F
:10058C00274B9B68BB61386801F0C6F9244B1B787C
:10059C00FB75234B9B78BB75214BDB787B7531E06E
:1005AC007B681B78202B26D91D4B5A687B681B78DF
:1005BC001946FB7FCB1A9B0013441B783B75184BD9
:1005CC005A687B681B781946FB7FCB1A9B00134437
:1005DC005B887B827B8ABA691A44FB7D397D0091EA
:1005EC00F868B968FFF7AEFE3A7DFB681A44BB7D2C
:1005FC001344FB6003E07B7DFA681344FB607B686B
:10060C0001337B607B681B78002BC9D1054BFA68E2
:10061C001A60054BBA681A602037BD4680BD00BF12
:10062C0034090020300900202C09002080B586B048
:10063C0002AFF860B9607A603B60084BDB68002B56
:10064C0008D1BB690093F868B9687A683B68FFF712
:10065C00D9FE00E000BF1037BD4680BD3409002034
:10066C0080B584B000AFF860B9607A603B60074B2E
:10067C00DB68002B06D1F868B9687A683B68FFF72D
:10068C0075FF00E000BF1037BD4680BD3409002067
:10069C0090B58BB002AFF860B9607A603B603D4BAF
:1006AC005B787B773B4B9B68BB61386801F034F916
:1006BC00386B01F069F9374B1B78FB75354B9B7820
:1006CC00BB75344BDB787B7555E03B7D202B22D9F9
:1006DC00304B5A68397D7B7FCB1A9B0013441B78B7
:1006EC00FB742C4B5A68397D7B7FCB1A9B001344CF
:1006FC005B88FB83FB8BBA691A44FB7DF97C009108
:10070C00F868B968FFF7B0FDFA7CFB681A44BB7D4A
:10071C001344FB602CE0FB6898B2BB6899B27B7DFC
:10072C009AB2FB689BB213449BB2013B9AB2FB7D1D
:10073C009CB2BB689BB223449BB2013B9BB201F0C1
:10074C004FFE0023FB8308E001F06AF901F068F921
:10075C0001F066F9FB8B0133FB83FA8B7B7DF97D12
:10076C0001FB03F39A42EFDB7B7DFA681344FB60D9
:10077C007B6801337B607B683B753B7D002BA4D190
:10078C00054BFA681A60054BBA681A602437BD46E7
:10079C0090BD00BF34090020300900202C09002036
:1007AC0080B487B000AF786000237B611A4B5B7814
:1007BC00FB74194B1B78BB74174B9B787B74164BD3
:1007CC00DB783B741CE07B681B78202B11D9124B17
:1007DC005A687B681B781946FB7CCB1A9B00134428
:1007EC001B78FB73FA7B7B691A447B7C13447B611B
:1007FC0003E03B7C7A6913447B617B6801337B604B
:10080C007B681B78002BDED17B6918461C37BD46F4
:10081C005DF8047B704700BF3409002080B487B0BA
:10082C0000AF786000237B61194B5B78FB74184B2D
:10083C001B78BB74164B9B787B74154BDB783B7425
:10084C0019E0FB7B202B0FD9114B5A68F97BFB7CF1
:10085C00CB1A9B0013441B78BB73BA7B7B691A447D
:10086C007B7C13447B6103E03B7C7A6913447B61A2
:10087C007B6801337B607B68FB73FB7B002BE0D1D7
:10088C007B6918461C37BD465DF8047B704700BF7A
:10089C003409002080B586B002AFF860B9607A6088
:1008AC003B600B4B1B68BA681344BB60094BDB689D
:1008BC00002B08D1BB690093F868B9687A683B686B
:1008CC00FFF7E6FE00E000BF1037BD4680BD00BF5D
:1008DC00280900203409002080B485B000AF0346FD
:1008EC00FB80FB8803F01F03FB81FB885B099BB239
:1008FC0003F03F03BB81FB88DB0A7B81FB89DB02B6
:10090C009AB2BB895B019BB213449AB27B891344A4
:10091C003B813B8918461437BD465DF8047B704714
:10092C0080B584B000AFF880B9807A803B8000231A
:10093C00FB817B88BB817A881346DB079B1A5B00A3
:10094C000333BB6087E0FA88FB89134499B2BA88F9
:10095C00BB8913449AB23B88084611461A4601F0EB
:10096C00D3FDFA88FB89D31A99B2BA88BB89134490
:10097C009AB23B88084611461A4601F0C5FDFA8822
:10098C00FB89134499B2BA88BB89D31A9AB23B88B3
:10099C00084611461A4601F0B7FDFA88FB89D31AAE
:1009AC0099B2BA88BB89D31A9AB23B8808461146C9
:1009BC001A4601F0A9FDFA88BB89134499B2BA888A
:1009CC00FB8913449AB23B88084611461A4601F03B
:1009DC009BFDFA88BB89D31A99B2BA88FB89134458
:1009EC009AB23B88084611461A4601F08DFDFA88EA
:1009FC00BB89134499B2BA88FB89D31A9AB23B8843
:100A0C00084611461A4601F07FFDFA88BB89D31AB5
:100A1C0099B2BA88FB89D31A9AB23B880846114618
:100A2C001A4601F071FDBB68002B06DAFB899A00AF
:100A3C00BB6813440633BB600AE0FA89BB89D31A3E
:100A4C009A00BB6813440A33BB60BB89013BBB8172
:100A5C00FB890133FB81FA89BB899A42FFF473AF9E
:100A6C00FA89BB899A426FD1FA88FB89134499B2EF
:100A7C00BA88BB8913449AB23B88084611461A4679
:100A8C0001F042FDFA88FB89134499B2BA88BB89FC
:100A9C0013449AB23B88084611461A4601F034FDBD
:100AAC00FA88FB89134499B2BA88BB89D31A9AB2D3
:100ABC003B88084611461A4601F026FDFA88FB8948
:100ACC00D31A99B2BA88BB89D31A9AB23B88084612
:100ADC0011461A4601F018FDFA88BB89134499B2E5
:100AEC00BA88FB8913449AB23B88084611461A46C9
:100AFC0001F00AFDFA88BB89D31A99B2BA88FB892E
:100B0C0013449AB23B88084611461A4601F0FCFC85
:100B1C00FA88BB89134499B2BA88FB89D31A9AB262
:100B2C003B88084611461A4601F0EEFCFA88BB8950
:100B3C00D31A99B2BA88FB89D31A9AB23B88084661
:100B4C0011461A4601F0E0FC1037BD4680BD00BFCF
:100B5C0080B58AB000AFF880B9807A803B80FA8883
:100B6C00BB881046194601F0A7FC7A88FB88D31A7B
:100B7C007B623A88BB88D31A3B627B6A002B02DB10
:100B8C000123FB6105E04FF0FF33FB617B6A5B42A5
:100B9C007B623B6A002B02DB0123BB6105E04FF05B
:100BAC00FF33BB613B6A5B423B627B6A5B00FB6071
:100BBC003B6A5B00BB607A6A3B6A9A422BDDBA687F
:100BCC007B6AD31A7B6100233B611FE0F988BA88EA
:100BDC003B8E084611461A4601F096FC7B69002BA9
:100BEC0008DB7A69FB68D31A7B61BB699AB2BB8854
:100BFC001344BB807A69BB6813447B61FB699AB26E
:100C0C00FB881344FB803B6901333B613A697B6A87
:100C1C009A42DBDD2AE0FA683B6AD31A7B61002337
:100C2C003B611FE0F988BA883B8E084611461A468C
:100C3C0001F06AFC7B69002B08DB7A69BB68D31A6C
:100C4C007B61FB699AB2FB881344FB807A69FB6871
:100C5C0013447B61BB699AB2BB881344BB803B696C
:100C6C0001333B613A693B6A9A42DBDD2837BD466A
:100C7C0080BD00BF90B585B002AFF880B9807A8096
:100C8C003B80FA887B8813449AB2F888B988BB8871
:100C9C004EF67D740094FFF75BFFFA887B88134453
:100CAC009BB2013B98B2BB88013399B2FA887B881E
:100CBC0013449BB2013B9AB2BC883B8823449BB241
:100CCC0001339BB242F665140094FFF741FFBA88DA
:100CDC003B88134499B2FA887B8813449AB2B8883B
:100CEC003B8803449BB2F88842F665140094FFF7E6
:100CFC002FFFBA883B8813449BB2F888B988FA88CE
:100D0C004EF67D740094FFF723FFFB88013398B2F5
:100D1C00BB88013399B2FA887B8813449BB2013BA0
:100D2C009AB2BC883B8823449BB2013B9BB23C8B60
:100D3C000094FFF70DFF0C37BD4690BD90B585B004
:100D4C0002AFF880B9807A803B803B7E002B43D188
:100D5C00FA887B8813449AB2F888B988BB884EF617
:100D6C007D740094FFF7F4FEFA887B8813449BB2E1
:100D7C00013B98B2BB88013399B2FA887B88134443
:100D8C009BB2013B9AB2BC883B8823449BB2013393
:100D9C009BB242F665140094FFF7DAFEBA883B88E2
:100DAC00134499B2FA887B8813449AB2B8883B886A
:100DBC0003449BB2F88842F665140094FFF7C8FE12
:100DCC00BA883B8813449BB2F888B988FA884EF6E7
:100DDC007D740094FFF7BCFE3B7E012B43D1FA8857
:100DEC007B8813449AB2F888B988BB8842F665149C
:100DFC000094FFF7ADFEFA887B8813449BB2013B4D
:100E0C0098B2BB88013399B2FA887B8813449BB2A1
:100E1C00013B9AB2BC883B8823449BB201339BB202
:100E2C004EF67D740094FFF793FEBA883B8813440A
:100E3C0099B2FA887B8813449AB2B8883B880344E9
:100E4C009BB2F8884EF67D740094FFF781FEBA8849
:100E5C003B8813449BB2F888B988FA8842F665142B
:100E6C000094FFF775FE3B7E022B43D1FA887B88FA
:100E7C0013449AB2F888B988BB884FF6FF74009473
:100E8C00FFF766FEFA887B8813449BB2013B98B24D
:100E9C00BB88013399B2FA887B8813449BB2013B1F
:100EAC009AB2BC883B8823449BB201339BB24FF669
:100EBC00FF740094FFF74CFEBA883B88134499B238
:100ECC00FA887B8813449AB2B8883B8803449BB257
:100EDC00F8884FF6FF740094FFF73AFEBA883B8807
:100EEC0013449BB2F888B988FA884FF6FF740094C3
:100EFC00FFF72EFE0C37BD4690BD00BF90B585B0F8
:100F0C0002AFF880B9807A803B80F888B9887A88FB
:100F1C00BB8844F208240094FFF71AFEFB880133C7
:100F2C0098B2BB88013399B2BB8801339BB27A88E3
:100F3C0048F210440094FFF70BFEF888B988FA8841
:100F4C003B8844F208240094FFF702FEFB8801332F
:100F5C0098B2BB88013399B2FB8801339AB23B88B3
:100F6C0048F210440094FFF7F3FDF88839887A882A
:100F7C003B884FF6FF740094FFF7EAFD7888B98838
:100F8C007A883B884FF6FF740094FFF7E1FD0C372D
:100F9C00BD4690BD90B585B002AFF880B9807A801F
:100FAC003B80F888B9887A88BB884FF6FF74009428
:100FBC00FFF7CEFDF888B988FA883B884FF6FF74A6
:100FCC000094FFF7C5FDFB88013398B23B88013BC9
:100FDC0099B23B88013B9BB27A8848F2104400944A
:100FEC00FFF7B6FDF88839887A883B8844F20824E4
:100FFC000094FFF7ADFD7B88013B98B2BB880133B1
:10100C0099B27B88013B9AB23B8848F21044009419
:10101C00FFF79EFD7888B9887A883B8844F20824CB
:10102C000094FFF795FD0C37BD4690BD80B584B09C
:10103C0000AFF880B9807A803B80FB887B8123E10C
:10104C00BB691B78DBB25BB2002B60DBBB691B7826
:10105C00BB81BB890D2B05D17B89FB80BB881033F1
:10106C00BB8050E0BB89202B03D9BB89203BBB81C3
:10107C0001E00023BB810023FB733EE00023BB7324
:10108C0035E0BB891A01FB7B1344834AD35C1A46B7
:10109C00BB7B802141FA03F31340002B10D0BB7BA8
:1010AC009AB2FB88134499B2FB7B9AB2BB88134467
:1010BC009AB27B88084611461A4601F025FA13E0CD
:1010CC007A883B889A420FD0BB7B9AB2FB88134438
:1010DC0099B2FB7B9AB2BB8813449AB23B88084600
:1010EC0011461A4601F010FABB7B0133BB73BB7B74
:1010FC00072BC6D9FB7B0133FB73FB7B0F2BBDD9B5
:10110C00FB880833FB80BB690133BB61BCE0002367
:10111C00BB81AFE0BA89614913461B0113445B00E4
:10112C000B441A78BB691B789A4240F0A080BA89AC
:10113C005A4913461B0113445B000B4401331A78C4
:10114C00BB6901331B789A4240F091800023FB73FA
:10115C0089E00023BB733AE0BA89FB7B58004F4906
:10116C0013461B0113445B0003440B449B781A4643
:10117C00BB7B802141FA03F31340002B10D0BB7BC7
:10118C009AB2FB88134499B2FB7B9AB2BB88134486
:10119C009AB27B88084611461A4601F0B5F913E05D
:1011AC007A883B889A420FD0BB7B9AB2FB88134457
:1011BC0099B2FB7B9AB2BB8813449AB23B8808461F
:1011CC0011461A4601F0A0F9BB7B0133BB73BB7B04
:1011DC00072BC1D90023BB733FE0BA89FB7B5B00B3
:1011EC00581C2E4913461B0113445B0003440B444B
:1011FC009B781A46BB7B802141FA03F31340002BEA
:10120C0012D0BB7B9AB2FB8813449BB2083399B2C1
:10121C00FB7B9AB2BB8813449AB27B880846114672
:10122C001A4601F071F915E07A883B889A4211D080
:10123C00BB7B9AB2FB8813449BB2083399B2FB7BFD
:10124C009AB2BB8813449AB23B88084611461A4698
:10125C0001F05AF9BB7B0133BB73BB7B072BBCD9A9
:10126C00FB7B0133FB73FB7B0F2B7FF672AFBB89D0
:10127C000133BB81BB89312B7FF64CAFBB69023389
:10128C00BB61FB881033FB80BB691B78002B7FF4A0
:10129C00D7AE1037BD4680BD5CA3010854B1010820
:1012AC0080B584B000AFF880B9807A803B8065E16E
:1012BC00BB691B78DBB25BB2002B57DBBB691B78BD
:1012CC00BB81BB89202B03D9BB89203BBB8101E0AF
:1012DC000023BB810023FB733EE00023BB7335E08E
:1012EC00BB891A01FB7B13448A4AD35C1A46BB7B2D
:1012FC00802141FA03F31340002B10D0BB7B9AB230
:10130C00FB88134499B2FB7B9AB2BB8813449AB204
:10131C007B88084611461A4601F0F6F813E07A88E5
:10132C003B889A420FD0BB7B9AB2FB88134499B28C
:10133C00FB7B9AB2BB8813449AB23B880846114691
:10134C001A4601F0E1F8BB7B0133BB73BB7B072B67
:10135C00C6D9FB7B0133FB73FB7B0F2BBDD9BB6960
:10136C000133BB61FB880833FB8007E10023BB81A1
:10137C00FAE0BB89684A4A2101FB03F313441A784B
:10138C00BB691B789A4240F0EC80BB89624A4A21C7
:10139C0001FB03F3134401331A78BB6901331B7847
:1013AC009A4240F0DE800023FB73D6E00023BB732F
:1013BC003BE0B989FA7B13465B001344564A4A203A
:1013CC0000FB01F10B4413449B781A46BB7B802134
:1013DC0041FA03F31340002B10D0BB7B9AB2FB886D
:1013EC00134499B2FB7B9AB2BB8813449AB27B88A4
:1013FC00084611461A4601F087F813E07A883B88B4
:10140C009A420FD0BB7B9AB2FB88134499B2FB7BF8
:10141C009AB2BB8813449AB23B88084611461A46C6
:10142C0001F072F8BB7B0133BB73BB7B072BC0D9BC
:10143C000023BB7340E0B989FA7B13465B0013446D
:10144C000133354A4A2000FB01F10B4413449B78CD
:10145C001A46BB7B802141FA03F31340002B12D0B8
:10146C00BB7B9AB2FB8813449BB2083399B2FB7BCB
:10147C009AB2BB8813449AB27B88084611461A4626
:10148C0001F042F815E07A883B889A4211D0BB7B78
:10149C009AB2FB8813449BB2083399B2FB7B9AB285
:1014AC00BB8813449AB23B88084611461A4601F091
:1014BC002BF8BB7B0133BB73BB7B072BBBD9002346
:1014CC00BB7344E0B989FA7B13465B0013440233C7
:1014DC00114A4A2000FB01F10B4413449B781A4635
:1014EC00BB7B802141FA03F31340002B16D0BB7B4E
:1014FC009AB2FB8813449BB2103399B2FB7B9AB21D
:10150C00BB8813449AB27B88084611461A4600F0F1
:10151C00FBFF19E05CA3010860B801087A883B88DE
:10152C009A4211D0BB7B9AB2FB8813449BB2103306
:10153C0099B2FB7B9AB2BB8813449AB23B8808469B
:10154C0011461A4600F0E0FFBB7B0133BB73BB7B3B
:10155C00072BB7D9FB7B0133FB73FB7B172B7FF678
:10156C0025AFBB890133BB81BB89132B7FF601AF40
:10157C00BB690233BB61FB881833FB80BB691B78EA
:10158C00002B7FF495AE1037BD4680BD80B584B07E
:10159C0000AFF880B9807A803B8009E1BB691B7889
:1015AC00DBB25BB2002B42DBBB691B78BB81BB8916
:1015BC00202B03D9BB89203BBB8101E00023BB81DD
:1015CC000023FB7329E00023BB7320E0BB891A01C5
:1015DC00FB7B13447A4AD35C1A46BB7B802141FACD
:1015EC0003F31340002B0FD0BB7B9AB2FB88134440
:1015FC0099B2FB7B9AB2BB8813449AB27B8808469B
:10160C0011461A4600F080FFBB7B0133BB73BB7BDA
:10161C00072BDBD9FB7B0133FB73FB7B0F2BD2D965
:10162C00BB690133BB61FB880833FB80C0E000233E
:10163C00BB81B3E0BB89634A4A2101FB03F313442A
:10164C001A78BB691B789A4240F0A580BB895D4A29
:10165C004A2101FB03F3134401331A78BB690133AC
:10166C001B789A4240F097800023FB738FE0002395
:10167C00BB7326E0B989FA7B13465B001344514ACD
:10168C004A2000FB01F10B4413449B781A46BB7BA8
:10169C00802141FA03F31340002B0FD0BB7B9AB28D
:1016AC00FB88134499B2FB7B9AB2BB8813449AB261
:1016BC007B88084611461A4600F026FFBB7B013397
:1016CC00BB73BB7B072BD5D90023BB7329E0B9892E
:1016DC00FA7B13465B00134401333A4A4A2000FB61
:1016EC0001F10B4413449B781A46BB7B802141FAD1
:1016FC0003F31340002B11D0BB7B9AB2FB8813442D
:10170C009BB2083399B2FB7B9AB2BB8813449AB252
:10171C007B88084611461A4600F0F6FEBB7B013367
:10172C00BB73BB7B072BD2D90023BB7329E0B989D0
:10173C00FA7B13465B0013440233224A4A2000FB17
:10174C0001F10B4413449B781A46BB7B802141FA70
:10175C0003F31340002B11D0BB7B9AB2FB881344CC
:10176C009BB2103399B2FB7B9AB2BB8813449AB2EA
:10177C007B88084611461A4600F0C6FEBB7B013337
:10178C00BB73BB7B072BD2D9FB7B0133FB73FB7B7E
:10179C00172B7FF66CAFBB890133BB81BB89132B35
:1017AC007FF648AFBB690233BB61FB881833FB8003
:1017BC00BB691B78002B7FF4F1AE1037BD4680BDA2
:1017CC005CA3010860B8010880B584B000AFF88054
:1017DC00B9807A803B800023FB7359E00023BB73F4
:1017EC0050E03B8BDB011A46FB7B9B001A44BB7B16
:1017FC001A442A4B13441B783B7300237B733BE046
:10180C003A7B7B7B802141FA03F31340002B16D0EB
:10181C00BB7B9BB2DB009AB2FB8813449AB27B7BF6
:10182C009BB2134499B2FB7B9AB2BB8813449AB215
:10183C007B88084611461A4600F066FE19E07A8845
:10184C003B889A4215D0BB7B9BB2DB009AB2FB88DB
:10185C0013449AB27B7B9BB2134499B2FB7B9AB232
:10186C00BB8813449AB23B88084611461A4600F0CE
:10187C004BFE7B7B01337B737B7B072BC0D9BB7B04
:10188C000133BB73BB7B032BABD9FB7B0133FB73EA
:10189C00FB7B1F2BA2D91037BD4680BD50A9010878
:1018AC0080B584B000AF13460246FA710A46BA718D
:1018BC007B71FB791A04BB791B021A437B791343A6
:1018CC00FB60F86801F0B0FE03469AB2024B1A8036
:1018DC001037BD4680BD00BF6E09002080B584B0B6
:1018EC0000AF13460246FA710A46BA717B71FB7956
:1018FC001A04BB791B021A437B791343FB60F8680B
:10190C0001F092FE03469AB2024B1A801037BD4684
:10191C0080BD00BF4A09002080B584B000AF78605C
:10192C007B681B0CDBB223F00103DAB2124B1A708A
:10193C007B681B0ADBB223F00103DAB20F4B1A707F
:10194C007B68DBB223F00103DAB20D4B1A700A4B41
:10195C001B781A04094B1B781B021A43084B1B7883
:10196C001343FB60F86801F05FFE03469AB2054B27
:10197C001A801037BD4680BD510900205409002043
:10198C00480900206E09002080B584B000AF786053
:10199C007B681B0CDBB223F00103DAB2124B1A701A
:1019AC007B681B0ADBB223F00103DAB20F4B1A700F
:1019BC007B68DBB223F00103DAB20D4B1A700A4BD1
:1019CC001B781A04094B1B781B021A43084B1B7813
:1019DC001343FB60F86801F027FE03469AB2054BEF
:1019EC001A801037BD4680BD4E09002050090020DA
:1019FC00530900204A09002080B500AF074B1B8813
:101A0C001B0A9BB2DBB2184600F0D2F9034B1B88C1
:101A1C00DBB2184600F0CCF980BD00BF6E09002087
:101A2C0080B500AF074B1B881B0A9BB2DBB2184674
:101A3C0000F0BEF9034B1B88DBB2184600F0B8F976
:101A4C0080BD00BF4A09002090B58BB000AFF86094
:101A5C00B9607A603B600023FB84FB6898B2BB687A
:101A6C0099B2FB689AB23B689BB213449BB2013BA0
:101A7C009AB2BB689CB2BB6B9BB223449BB2013B3A
:101A8C009BB200F0ADFC29E0FB8C5A1CFA847A68FE
:101A9C0013441B783B62FB8C5A1CFA847A681344FF
:101AAC001B78FB61FB8C5A1CFA847A6813441B78F4
:101ABC00BB613B6A1A04FB691B021A43BB691343E3
:101ACC007B613B6AD9B2FB69DAB2BB69DBB208460F
:101ADC0011461A46FFF7E4FEFFF78EFFF98C3B68C0
:101AEC00BA6B02FB03F213465B0013449942CBDB47
:101AFC002C37BD4690BD00BF80B584B000AF034607
:101B0C00FB710823FB731EE013484FF4005103F0E4
:101B1C0047FDFB795BB2002B05DA0F484FF400410F
:101B2C0003F030FD04E00C484FF4004103F038FDA5
:101B3C00FB795B00FB7108484FF4005103F022FD68
:101B4C00FB7B013BFB73FB7B002BDDD1BB7B184686
:101B5C001037BD4680BD00BF0004024080B582B086
:101B6C0000AF0220012104F015FA00BF04F082F846
:101B7C0003460C2BFAD14FF48040012104F046FAB5
:101B8C004FF400533B6002233B7103237B71002312
:101B9C00BB710123FB713B461348194603F0CEFB86
:101BAC004FF480433B603B460F48194603F0C6FB9D
:101BBC004FF400433B603B460B48194603F0BEFB19
:101BCC004FF480533B6001233B710023BB71012315
:101BDC00FB7103237B713B460348194603F0AEFBB4
:101BEC000837BD4680BD00BF0004024080B483B0FE
:101BFC0000AF78600B46FB7000BF7B681B899BB203
:101C0C0003F00203002BF8D0FB789AB27B689A8120
:101C1C0000BF7B681B899BB203F00103002BF8D03B
:101C2C007B689B899BB2DBB218460C37BD465DF8CE
:101C3C00047B704780B483B000AF78600B46FB70B8
:101C4C007B681B889BB223F038039AB27B681A809E
:101C5C00FB78012B08D17B681B889BB243F01003E7
:101C6C009AB27B681A8007E07B681B889BB243F0B2
:101C7C0020039AB27B681A807B681B889BB243F066
:101C8C0040039AB27B681A800C37BD465DF8047B22
:101C9C00704700BF80B588B000AF2B4B2A4AD26981
:101CAC0042F00202DA61284B274A526A42F480421F
:101CBC005A62264B254A126842F028421A60234B7E
:101CCC00224A926842F07C429A60204B204A5A6227
:101CDC001E4B1E4A126842F080721A601B4B1B4A44
:101CEC00926842F040729A60174B174A926942F41C
:101CFC0080429A610F2001F05BFD134B124A9269EE
:101D0C0022F480429A610023BB814FF48273FB81E1
:101D1C0000233B8202237B820123BB824FF400739E
:101D2C00FB8200233B8300237B830723BB8307F1C8
:101D3C000C030848194605F05FFD0648012105F023
:101D4C0083FE2037BD4680BD0038024000040240AF
:101D5C00000050550038004080B584B000AF0346F9
:101D6C00FB710023FB7310484FF4805103F018FCF7
:101D7C000D484FF4806103F013FC0023FB7303E068
:101D8C0000BFFB7B0133FB73FB7B042BF8D9FB7986
:101D9C0006481946FFF72AFF03484FF4805103F019
:101DAC00F1FB1037BD4680BD0004024000380040F6
:101DBC0080B584B000AF0346FB710023FB730B4866
:101DCC004FF4806103F0DEFB08484FF4805103F0C0
:101DDC00E7FBFB7906481946FFF708FF03484FF469
:101DEC00805103F0CFFB1037BD4680BD000402408C
:101DFC000038004080B582B000AF02460B46FA7145
:101E0C00BB71FB791846FFF7D3FFBB791846FFF778
:101E1C00CFFF0837BD4680BD80B582B000AF02460B
:101E2C000B46FA71BB71FB791846FFF795FFBB792E
:101E3C001846FFF791FF0837BD4680BD80B500AF4F
:101E4C000748012103F0ACFB0A2001F0B1FC044867
:101E5C00012103F097FB322001F0AAFC80BD00BFEA
:101E6C000004024080B584B000AF0023FB72002355
:101E7C00FB600220012104F08DF801233B6001235B
:101E8C003B710023BB710123FB7103237B713B4628
:101E9C00A048194603F052FA4FF480533B600123DB
:101EAC003B710023BB710123FB7103237B713B4608
:101EBC009848194603F042FA4FF480633B600123C3
:101ECC003B710023BB710123FB7103237B713B46E8
:101EDC009048194603F032FA8E48012103F052FB68
:101EEC008C484FF4805103F04DFB8A484FF48061CD
:101EFC0003F048FBFFF7CEFEFFF7A0FF0023FB60CB
:101F0C0006E000F007FC0346FB72FB680133FB6044
:101F1C00FB68022BF5DDCB20FFF71EFF3920FFF706
:101F2C0047FF2C20FFF744FF0020FFF741FF342030
:101F3C00FFF73EFF0220FFF73BFFCF20FFF70CFF20
:101F4C000020FFF735FFC120FFF732FF3020FFF7ED
:101F5C002FFFE820FFF700FF8520FFF729FF002067
:101F6C00FFF726FF7820FFF723FFEA20FFF7F4FEA8
:101F7C000020FFF71DFF0020FFF71AFFED20FFF7F1
:101F8C00EBFE6420FFF714FF0320FFF711FF122074
:101F9C00FFF70EFF8120FFF70BFFF720FFF7DCFEAA
:101FAC002020FFF705FFC020FFF7D6FE2320FFF708
:101FBC00FFFEC120FFF7D0FE1020FFF7F9FEC52071
:101FCC00FFF7CAFE3E20FFF7F3FE2820FFF7F0FED6
:101FDC00C720FFF7C1FE8620FFF7EAFE3620FFF789
:101FEC00BBFEE820FFF7E4FE3A20FFF7B5FE5520D4
:101FFC00FFF7DEFEB120FFF7AFFE0020FFF7D8FEA3
:10200C001820FFF7D5FEB620FFF7A6FE0820FFF735
:10201C00CFFE8220FFF7CCFE2720FFF7C9FEF2206F
:10202C00FFF79AFE0020FFF7C3FE2620FFF794FE71
:10203C000120FFF7BDFEE020FFF78EFE0F20FFF71B
:10204C00B7FE3120FFF7B4FE2B20FFF7B1FE0C20BA
:10205C00FFF7AEFE0E20FFF7ABFE0820FFF7A8FE41
:10206C004E20FFF7A5FEF120FFF7A2FE3720FFF769
:10207C009FFE0720FFF79CFE1020FFF799FE032020
:10208C00FFF796FE0E20FFF793FE0920FFF790FE58
:10209C000020FFF78DFEE120FFF75EFE0020FFF72A
:1020AC0087FE0E20FFF784FE1420FFF781FE03202D
:1020BC00FFF77EFE1120FFF77BFE0720FFF778FE6F
:1020CC003120FFF775FEC120FFF772FE4820FFF7A5
:1020DC006FFE0820FFF76CFE0F20FFF769FE0C2047
:1020EC00FFF766FE3120FFF763FE3620FFF760FE38
:1020FC000F20FFF75DFE1120FFF72EFE782001F078
:10210C0057FB2920FFF728FE2C20FFF725FE103760
:10211C00BD4680BD0004024080B584B000AF0023F2
:10212C00FB720023FB600220012103F033FF01232B
:10213C003B6001233B710023BB710123FB71032323
:10214C007B713B46A548194603F0F8F84FF48053D1
:10215C003B6001233B710023BB710123FB71032303
:10216C007B713B469D48194603F0E8F84FF48063B9
:10217C003B6001233B710023BB710123FB710323E3
:10218C007B713B469548194603F0D8F893480121DA
:10219C0003F0F8F991484FF4805103F0F3F98F48AC
:1021AC004FF4806103F0EEF9FFF774FDFFF746FE84
:1021BC000023FB6006E000F0ADFA0346FB72FB68FF
:1021CC000133FB60FB68022BF5DDEF20FFF7C4FD4C
:1021DC000320FFF7EDFD8020FFF7EAFD0220FFF75B
:1021EC00E7FDCF20FFF7B8FD0020FFF7E1FDC12090
:1021FC00FFF7DEFD3020FFF7DBFDED20FFF7ACFD38
:10220C006420FFF7D5FD0320FFF7D2FD1220FFF766
:10221C00CFFD8120FFF7CCFDE820FFF79DFD852049
:10222C00FFF7C6FD0020FFF7C3FD7820FFF7C0FDC8
:10223C00CB20FFF791FD3920FFF7BAFD2C20FFF7DB
:10224C00B7FD0020FFF7B4FD3420FFF7B1FD0220ED
:10225C00FFF7AEFDF720FFF77FFD2020FFF7A8FD6D
:10226C00EA20FFF779FD0020FFF7A2FD0020FFF721
:10227C009FFDC020FFF770FD2320FFF799FDC120C3
:10228C00FFF76AFD1020FFF793FDC520FFF764FDF3
:10229C003E20FFF78DFD2820FFF78AFDC720FFF7B2
:1022AC005BFD8620FFF784FD3620FFF755FDE82007
:1022BC00FFF77EFD3A20FFF74FFD5520FFF778FD25
:1022CC00B120FFF749FD0020FFF772FD1820FFF742
:1022DC006FFDB620FFF740FD0820FFF769FD822057
:1022EC00FFF766FD2720FFF763FDF220FFF734FDB3
:1022FC000020FFF75DFD2620FFF72EFD0120FFF7E4
:10230C0057FDE020FFF728FD0F20FFF751FD31208E
:10231C00FFF74EFD2B20FFF74BFD0C20FFF748FD80
:10232C000E20FFF745FD0820FFF742FD4E20FFF77A
:10233C003FFDF120FFF73CFD3720FFF739FD07206B
:10234C00FFF736FD1020FFF733FD0320FFF730FDBC
:10235C000E20FFF72DFD0920FFF72AFD0020FFF7C7
:10236C0027FDE120FFF7F8FC0020FFF721FD0E20F0
:10237C00FFF71EFD1420FFF71BFD0320FFF718FDD0
:10238C001120FFF715FD0720FFF712FD3120FFF795
:10239C000FFDC120FFF70CFD4820FFF709FD0820B9
:1023AC00FFF706FD0F20FFF703FD0C20FFF700FDE4
:1023BC003120FFF7FDFC3620FFF7FAFC0F20FFF76A
:1023CC00F7FC1120FFF7C8FC782001F0F1F9292067
:1023DC00FFF7C2FC1037BD4680BD00BF00040240B1
:1023EC0080B582B000AFF880B9807A803B802A201B
:1023FC00FFF7B2FCFB881B0A9BB2DAB2FB88DBB29C
:10240C0010461946FFF7F6FC2B20FFF7A5FCBB88FE
:10241C001B0A9BB2DAB2BB88DBB210461946FFF737
:10242C00E9FC2C20FFF798FC0837BD4680BD00BFA7
:10243C0080B582B000AFF880B9807A803B802A20CA
:10244C00FFF78AFCFB881B0A9BB2DBB21846FFF72E
:10245C00AFFCFB88DBB21846FFF7AAFC7B881B0A93
:10246C009BB2DBB21846FFF7A3FC7B88DBB21846A5
:10247C00FFF79EFC2B20FFF76FFCBB881B0A9BB25F
:10248C00DBB21846FFF794FCBB88DBB21846FFF7AB
:10249C008FFC3B881B0A9BB2DBB21846FFF788FC0B
:1024AC003B88DBB21846FFF783FC2C20FFF754FC6B
:1024BC000837BD4680BD00BF80B582B000AF024674
:1024CC000B46FA80BB802A20FFF746FCFB881B0AD0
:1024DC009BB2DAB2FB88DBB210461946FFF78AFCD6
:1024EC002B20FFF739FCBB881B0A9BB2DAB2BB88E6
:1024FC00DBB210461946FFF77DFC2C20FFF72CFCB5
:10250C000837BD4680BD00BF80B582B000AF134612
:10251C000246FA800A46BA807B80F888B988FA8825
:10252C00BB88FFF75DFF7B881B0A9BB2DBB21846AA
:10253C00FFF73EFC7B88DBB21846FFF739FC083707
:10254C00BD4680BD80B584B000AF02460B46FA8014
:10255C00BB800023FB60FA88BB8810461946FFF746
:10256C00ABFFFB68DBB21846FFF722FCFB68184692
:10257C001037BD4680BD00BF80B584B000AF0346A8
:10258C00FB800020002140F2072240F2B713FFF736
:10259C0027FF1A484FF4805103F002F817484FF404
:1025AC00806102F0EFFF0023FB601AE00023BB60A8
:1025BC0010E0FB881B0A9BB2DBB211481946FFF7EF
:1025CC0015FBFB88DBB20E481946FFF70FFBBB6807
:1025DC000133BB60BB68B3F5027FEAD3FB68013300
:1025EC00FB60FB68B3F5DC7FE0D304484FF480510B
:1025FC0002F0C8FF1037BD4680BD00BF000402408A
:10260C000038004090B585B000AFF880B9807A8072
:10261C003B80B7F90630B3F5A07F03DAB7F9043085
:10262C00EF2B00DD5DE0B7F90620B7F9023013445B
:10263C00013BB3F5A07F04DBFB88C3F5A0739BB211
:10264C007B80B7F90420B7F900301344013BEF2B22
:10265C0004DDBB88C3F1F0039BB23B80F888B988DA
:10266C00FA887B8813449BB2013B9AB2BC883B88A6
:10267C0023449BB2013B9BB2FFF7DAFE3B8C1B0A57
:10268C009BB2FB733B8CBB7317484FF4805102F029
:10269C0087FF15484FF4806102F074FF3B88BB80C4
:1026AC0016E07B88FB800CE0FB7B10481946FFF79B
:1026BC009DFABB7B0D481946FFF798FAFB88013B46
:1026CC00FB80B7F90630002BEEDCBB88013BBB80EE
:1026DC00B7F90430002BE4DC03484FF4805102F0CE
:1026EC0051FF1437BD4690BD000402400038004035
:1026FC0080B584B002AF0346FB80FB8800930020BA
:10270C0000214FF4A072F023FFF77CFF0837BD4681
:10271C0080BD00BF90B585B000AF0023FB73204A8D
:10272C003B1D1188927819809A700123BB7300238A
:10273C00FB7321E0FC7BFB7B0133DBB2D32019461E
:10274C0000F030F803461A4607F11003234403F84F
:10275C00082CFB7B07F110010B4413F8082CFB7BB6
:10276C0007F110010B4413F80C3C9A4201D00023E2
:10277C00BB73FB7B0133FB73FB7B022BDAD9BB7B7B
:10278C00002B08D10023FB7302E0FB7B0133FB73AE
:10279C00FB7B022BF9D9BB7B18461437BD4690BD89
:1027AC00E0BD010880B584B000AF02460B46FA715B
:1027BC00BB710023FB720023BB72D920FFF7CCFA4C
:1027CC00BB791033DBB21846FFF7F2FA1E484FF410
:1027DC00806102F0E5FE1C484FF4805102F0E0FEEF
:1027EC000023FB6003E000BFFB680133FB60FB6868
:1027FC00042BF8DDFB7915481946FFF7F7F903466A
:10280C00BB7211484FF4806102F0BCFE0023FB60E8
:10281C0003E000BFFB680133FB60FB68012BF8DDB4
:10282C000A4B9B899BB2BB720848002100F010F840
:10283C000346BB7204484FF4805102F0A3FEBB7AEE
:10284C0018461037BD4680BD0004024000380040D9
:10285C0080B483B000AF78600B46FB7000BF0E4BAA
:10286C001B899BB203F08003002BF8D10A4BFA783A
:10287C0092B29A8100BF084B1B899BB203F00103F3
:10288C00002BF8D0044B9B899BB2DBB218460C375B
:10289C00BD465DF8047B70470038004080B584B0BD
:1028AC0000AF03463960FB80FB88BB600023FB60F4
:1028BC00FB685A1CFA603A68D018FA881A4BA3FBCA
:1028CC000213D9080B469B000B445B00D31A9BB236
:1028DC00DBB23033DBB20370FA88134BA3FB021369
:1028EC00DB08FB80FB88002BE2D1BB68002B06DAEF
:1028FC00FB685A1CFA603A6813442D221A70FB6864
:10290C00012B06DCFB685A1CFA603A68134430222F
:10291C001A70FB683A68134400221A70386800F089
:10292C0005F81037BD4680BDCDCCCCCC80B586B07B
:10293C0000AF786000237B6178680AF0A3FE034641
:10294C00013B3B6117E07B697A6813441B78FB738E
:10295C007B697A6813443A6979680A4412781A7068
:10296C003B697A681344FA7B1A707B6901337B618B
:10297C003B69013B3B617A693B699A42E3DB18375F
:10298C00BD4680BD80B586B002AF02460B46FA80CC
:10299C00BB801E23FB81FA88BB886FF07F410091BE
:1029AC0010461946054A4FF47F03FDF73FFEFA889F
:1029BC00FB891344FB801037BD4680BDE4BD010884
:1029CC0080B584B002AF0B463A600246FA80BB80F9
:1029DC003B681B78013B062B64D801A252F823F00C
:1029EC00092A0008212A0008392A0008512A00085F
:1029FC00692A0008812A0008992A0008FA88BB88ED
:102A0C0000210091104619462E4A6FF07F43FDF7C6
:102A1C000DFE53E0FA88BB88002100911046194640
:102A2C00294A6FF07F43FDF701FE47E0FA88BB8827
:102A3C000021009110461946244A6FF07F43FDF7A0
:102A4C00F5FD3BE0FA88BB88002100911046194641
:102A5C001F4A6FF07F43FDF7E9FD2FE0FA88BB8832
:102A6C0000210091104619461A4A6FF07F43FDF77A
:102A7C00DDFD23E0FA88BB88002100911046194641
:102A8C00154A6FF07F43FDF7D1FD17E0FA88BB883C
:102A9C000021009110461946104A6FF07F43FDF754
:102AAC00C5FD0BE0FA88BB88002100911046194641
:102ABC000B4A6FF07F43FDF7B9FD00BF0837BD46E9
:102ACC0080BD00BFE8BD0108F8BD010808BE0108C3
:102ADC0018BE010828BE010838BE010848BE01080E
:102AEC0058BE010880B590B002AF0B463A60024662
:102AFC00FA80BB801623FB86FB88BB863B68DB78A1
:102B0C0087F833303B685B7887F832303B689B78CA
:102B1C0087F831303B681B7887F8303097F83330C2
:102B2C009BB203F5FA639AB207F1280310461946D3
:102B3C00FFF7B4FE97F832309AB207F12003104633
:102B4C001946FFF7ABFE97F831309AB207F118032C
:102B5C0010461946FFF7A2FEA348FDF713FBA34B43
:102B6C001B78DBB2052B00F2B58101A252F823F0E1
:102B7C00952B0008952B0008952B00084D2C000870
:102B8C00212D00080D2E0008F988BA8807F12803BA
:102B9C0000200090084611461A466FF07F43FDF75F
:102BAC0045FDFB8E9B009AB2FB881344FB80FA8890
:102BBC00BB8800210091104619468D4A6FF07F4367
:102BCC00FDF734FDFA88FB8E1344FB80F988BA8834
:102BDC0007F1200300200090084611461A466FF0BA
:102BEC007F43FDF723FDFB8E5B009AB2FB881344F9
:102BFC00FB80FA88BB8800210091104619467C4A5C
:102C0C006FF07F43FDF712FDFA88FB8E1344FB80B7
:102C1C00F988BA8807F1180300200090084611467D
:102C2C001A466FF07F43FDF701FDBB881E33BB8056
:102C3C00BA8EBB88104619463A68FFF7C1FE4AE1C6
:102C4C006C4B1B889BB25A1C91B26A4A118003F0E0
:102C5C0001039BB2002B0DD0F988BA8807F1280329
:102C6C0000200090084611461A466FF07F43FDF78E
:102C7C00DDFC0AE0FA88BB88002100911046194659
:102C8C005D4A6FF07F43FDF7D1FCFB8E9B009AB23F
:102C9C00FB881344FB80FA88BB8800210091104606
:102CAC001946534A6FF07F43FDF7C0FCFA88FB8E40
:102CBC001344FB80F988BA8807F1200300200090A8
:102CCC00084611461A466FF07F43FDF7AFFCFB8EAA
:102CDC005B009AB2FB881344FB80FA88BB88002106
:102CEC00009110461946424A6FF07F43FDF79EFC57
:102CFC00FA88FB8E1344FB80F988BA8807F1180315
:102D0C0000200090084611461A466FF07F43FDF7ED
:102D1C008DFCE0E0F988BA8807F1280300200090C8
:102D2C00084611461A466FF07F43FDF77FFCFB8E79
:102D3C009B009AB2FB881344FB80FA88BB88002165
:102D4C000091104619462A4A6FF07F43FDF76EFC3E
:102D5C00FA88FB8E1344FB80264B1B889BB25A1CB3
:102D6C0091B2244A118003F001039BB2002B0DD0C9
:102D7C00F988BA8807F12003002000900846114614
:102D8C001A466FF07F43FDF751FC0AE0FA88BB88C6
:102D9C000021009110461946184A6FF07F43FDF749
:102DAC0045FCFB8E5B009AB2FB881344FB80FA88CF
:102DBC00BB8800210091104619460D4A6FF07F43E5
:102DCC00FDF734FCFA88FB8E1344FB80F988BA8833
:102DDC0007F1180300200090084611461A466FF0C0
:102DEC007F43FDF723FC76E04CA301089C040020F4
:102DFC0068BE0108460900206CBE010874BE0108BB
:102E0C00F988BA8807F1280300200090084611467B
:102E1C001A466FF07F43FDF709FCFB8E9B009AB2BC
:102E2C00FB881344FB80FA88BB8800210091104674
:102E3C0019462A4A6FF07F43FDF7F8FBFA88FB8EA0
:102E4C001344FB80F988BA8807F120030020009016
:102E5C00084611461A466FF07F43FDF7E7FBFB8EE1
:102E6C005B009AB2FB881344FB80FA88BB88002174
:102E7C00009110461946194A6FF07F43FDF7D6FBB7
:102E8C00FA88FB8E1344FB80154B1B889BB25A1C93
:102E9C0091B2134A118003F001039BB2002B0DD0A9
:102EAC00F988BA8807F118030020009008461146EB
:102EBC001A466FF07F43FDF7B9FB0CE0FA88BB882C
:102ECC000021009110461946064A6FF07F43FDF72A
:102EDC00ADFB00E000BF3837BD4680BD68BE0108C1
:102EEC004609002074BE010880B58EB002AF0B46B7
:102EFC003A600246FA80BB802F2387F82F300E23CE
:102F0C00BB8521237B8537233B856FF07F437B6219
:102F1C0000233B623B681B78BB853B685B787B85F9
:102F2C003B689B783B85BB8D1B099BB2DBB2303376
:102F3C00DBB23B763B7E3B75BB8DDBB203F00F0304
:102F4C00DBB23033DBB27B767B7E7B750023BB75CB
:102F5C003B8D03F001039BB2002B02D03A23BB60E4
:102F6C0001E02023BB600023FB607B8D1B099BB21F
:102F7C00DBB23033DBB2FB76FB7E3B747B8DDBB29A
:102F8C0003F00F03DBB23033DBB23B773B7F7B7458
:102F9C0000237B770023BB749948FDF7F3F8994B1A
:102FAC001B78DBB2052B00F2358101A252F823F01D
:102FBC00D52F00085F300008F73000087F3100087B
:102FCC007F3100087F3100088F4B1B889BB2BA8D74
:102FDC009A420BD0F988BA8807F11403386A00902A
:102FEC00084611461A467B6AFDF720FB97F82F30EE
:102FFC009BB25B009AB2FB881344FB80F988BA88B9
:10300C0007F10803386A0090084611461A467B6A95
:10301C00FDF70CFB97F82F309AB2FB881344FB801A
:10302C007A4B1B889BB27A8D9A420BD0F988BA885E
:10303C0007F11003386A0090084611461A467B6A5D
:10304C00FDF7F4FA704BBA8D1A80704B7A8D1A809A
:10305C00E1E03B8D03F001039BB2002B12D0FA8808
:10306C00BB88396A009110461946694A7B6AFDF79C
:10307C00DDFA97F82F309BB25B009AB2FB881344B1
:10308C00FB8013E0F988BA8807F11403386A0090C2
:10309C00084611461A467B6AFDF7C8FA97F82F3096
:1030AC009BB25B009AB2FB881344FB80F988BA8808
:1030BC0007F10803386A0090084611461A467B6AE5
:1030CC00FDF7B4FA97F82F309AB2FB881344FB80C3
:1030DC00F988BA8807F11003386A0090084611463F
:1030EC001A467B6AFDF7A2FA95E0F988BA8807F1CF
:1030FC001403386A0090084611461A467B6AFDF79D
:10310C0095FA97F82F309BB25B009AB2FB88134468
:10311C00FB80F988BA8807F10803386A00900846E2
:10312C0011461A467B6AFDF781FA97F82F309AB24E
:10313C00FB881344FB803B8D03F001039BB2002BF7
:10314C000AD0FA88BB88396A009110461946304A71
:10315C007B6AFDF76BFA5EE0F988BA8807F1100319
:10316C00386A0090084611461A467B6AFDF75EFAEB
:10317C0051E0254B1B889BB2BA8D9A420BD0F98833
:10318C00BA8807F11403386A0090084611461A46AB
:10319C007B6AFDF74BFA97F82F309BB25B009AB223
:1031AC00FB881344FB80F988BA8807F10803386A56
:1031BC000090084611461A467B6AFDF737FA97F8D5
:1031CC002F309AB2FB881344FB80104B1B889BB2A8
:1031DC007A8D9A420BD0F988BA8807F11003386AB5
:1031EC000090084611461A467B6AFDF71FFA064BFB
:1031FC00BA8D1A80054B7A8D1A8000F045FA0AE0D8
:10320C00D08001089C04002064090020440900209F
:10321C0074BE010800BFBB8D002B08D17B8D002B29
:10322C0005D13B8D002B02D1024B01221A70303795
:10323C00BD4680BDDE06002080B58AB000AF0B46CF
:10324C003A600246FA80BB802F2387F827300E2382
:10325C00BB8421237B8437233B843B681B78BB8452
:10326C003B685B787B843B689B783B84BB8C1B09FD
:10327C009BB2DBB23033DBB23B763B7E3B75BB8C17
:10328C00DBB203F00F03DBB23033DBB27B767B7E39
:10329C007B750023BB753B8C03F001039BB2002BA9
:1032AC0002D03A23BB6001E02023BB600023FB600B
:1032BC007B8C1B099BB2DBB23033DBB2FB76FB7E23
:1032CC003B747B8CDBB203F00F03DBB23033DBB22D
:1032DC003B773B7F7B7400237B770023BB743148A7
:1032EC00FCF750FF304B1B78DBB2012B16D13B8C1B
:1032FC0003F001039BB2002B10D0FA88BB88104658
:10330C0019462A4AFF23FDF7ABF997F827309BB2F1
:10331C005B009AB2FB881344FB8011E0F988BA88F1
:10332C0007F11403084611461A46FF23FDF798F9D6
:10333C0097F827309BB25B009AB2FB881344FB8052
:10334C00F988BA8807F10803084611461A46FF2384
:10335C00FDF786F997F827309AB2FB881344FB8067
:10336C00114B1B78DBB2022B0ED13B8C03F001030B
:10337C009BB2002B08D0FA88BB88104619460B4A22
:10338C00FF23FDF76DF909E0F988BA8807F11003FE
:10339C00084611461A46FF23FDF762F92837BD4649
:1033AC0080BD00BFD08001089C04002074BE0108C1
:1033BC0080B588B002AF0B463A600246FA80BB80FB
:1033CC001E23FB820E23BB8221237B8237233B826D
:1033DC003B681B78BB823B685B787B823B689B7845
:1033EC003B82BB8A1B099BB2DBB23033DBB23B7234
:1033FC00BB8ADBB203F00F03DBB23033DBB27B7280
:10340C003A23BB727B8A1B099BB2DBB23033DBB233
:10341C00FB727B8ADBB203F00F03DBB23033DBB21F
:10342C003B7300237B737E4B00221A707C4B1B7802
:10343C00DBB2012B26D13B8A03F001039BB2002B9C
:10344C0020D0FA88BB886FF07F4100911046194656
:10345C00744A4FF47F03FDF7E9F8FA88FB8A1344AA
:10346C00FB80FA88BB886FF07F41009110461946AB
:10347C006C4A4FF47F03FDF7D9F8FA88FB8A1344A2
:10348C00FB8011E0F988BA8807F108036FF07F40E0
:10349C000090084611461A464FF47F03FDF7C6F814
:1034AC00FA88FB8A1344FB80FA88FB8A1344FB805E
:1034BC007B8A1B099BB2DBB23B727B8ADBB203F0CB
:1034CC000F03DBB27B72564B1B78DBB2022B26D17F
:1034DC003B8A03F001039BB2002B20D0FA88BB88F7
:1034EC006FF07F410091104619464E4A4FF47F030E
:1034FC00FDF79CF8FA88FB8A1344FB80FA88BB889A
:10350C006FF07F41009110461946464A4FF47F03F5
:10351C00FDF78CF8FA88FB8A1344FB8023E0F988CA
:10352C00BA883B7A30336FF07F40009008461146E2
:10353C001A464FF47F03FDF779F8FA88FB8A134497
:10354C00FB80F988BA887B7A30336FF07F4000902B
:10355C00084611461A464FF47F03FDF767F8FA88C0
:10356C00FB8A1344FB80FA88FB8A1344FB803B8A5A
:10357C001B099BB2DBB23B723B8ADBB203F00F033D
:10358C00DBB27B72264B1B78DBB2032B26D13B8A3A
:10359C0003F001039BB2002B20D0FA88BB880F21CB
:1035AC000091104619464FF478424EF67D73FEF7A3
:1035BC000BF9FA88FB8A1344FB80FA88BB880F212D
:1035CC000091104619464FF478424EF67D73FEF783
:1035DC00FBF8FA88FB8A1344FB801DE03B7A194602
:1035EC00FA88BB880091104619464FF478424EF683
:1035FC007D73FEF7E9F8FA88FB8A1344FB807B7A2B
:10360C001946FA88BB880091104619464FF4784247
:10361C004EF67D73FEF7D8F81837BD4680BD00BF57
:10362C009C04002078BE010880B485B000AF78609F
:10363C007B6803F478031A0A7B6803F47C435B0908
:10364C001A437B6803F0F803DB081343FB60FB6849
:10365C0018461437BD465DF8047B704780B582B0C0
:10366C0000AF0023FB713B460120194603F092F892
:10367C003B78FB713B462D2000211A46FFF734FCAA
:10368C000837BD4680BD00BF80B582B000AF3B1D82
:10369C000020194603F086F9BA79054B1A703B1DC8
:1036AC00372064211A46FFF71DFA0837BD4680BD46
:1036BC009D04002080B582B000AF3B1D0020194650
:1036CC0003F070F9BA79084B1B78DBB29A42F4D04C
:1036DC00BA79054B1A703B1D372064211A46FFF747
:1036EC0001FA0837BD4680BD9D04002080B485B02A
:1036FC0000AF0346FB71FB791B09FB73FB7B5B0083
:10370C00DAB2FB7B1344DBB25B00DBB2FA79D31A7F
:10371C00DBB218461437BD465DF8047B704700BF1A
:10372C0080B483B000AF0346FB71FA790C4BA3FB5A
:10373C000213DB08DBB21B01D8B2FA79084BA3FBEE
:10374C000213D9080B469B000B445B00D31ADBB267
:10375C000344DBB218460C37BD465DF8047B70475A
:10376C00CDCCCCCC80B483B000AF0346FB710D4BF9
:10377C000C4A126822F004021A60FB799B08DAB238
:10378C00094B1A70084B1B781A465201D21A920038
:10379C001344DB009AB2054B1A800C37BD465DF81A
:1037AC00047B704710E000E09E040020A004002081
:1037BC0080B485B000AF0346FB80124BFA881249E7
:1037CC00098801FB02F25A600E4B00229A600D4BE5
:1037DC0001221A600B4B1B68FB60FB6803F00103B2
:1037EC00002B04D0FB6803F48033002BF2D0054B84
:1037FC0000221A60034B00229A601437BD465DF814
:10380C00047B704710E000E0A004002080B485B079
:10381C0000AF7860124B134A1278796801FB02F200
:10382C005A600F4B00229A600D4B01221A600C4B10
:10383C001B68FB60FB6803F00103002B04D0FB68E2
:10384C0003F48033002BF2D0054B00221A60044B9A
:10385C0000229A601437BD465DF8047B704700BFA8
:10386C0010E000E09E04002080B582B000AF05207F
:10387C00012102F08FFB4FF48050012102F0A8FBD4
:10388C0020233B6002233B7103237B710023BB711C
:10389C000123FB713B461F48194601F04FFD4023A5
:1038AC003B603B461B48194601F048FD80233B60BA
:1038BC003B461848194601F041FD10233B6001239B
:1038CC003B710023BB710123FB7103237B713B46CE
:1038DC001148194601F032FD4FF400633B600023A0
:1038EC003B710123FB713B460A48194601F026FD4A
:1038FC0008480521052201F09BFE064806210522F9
:10390C0001F096FE03480721052201F091FE0837CD
:10391C00BD4680BD000002400008024080B586B064
:10392C0000AF0023BB804FF48273FB8000233B81EC
:10393C0002237B810123BB814FF40073FB810023A5
:10394C003B8200237B820723BB823B1D0548194623
:10395C0003F052FF0348012104F076F81837BD46F6
:10396C0080BD00BF0030014080B58CB002AF00F0CC
:10397C0025FDFFF779FFFFF7D1FF002000F082F95A
:10398C00012000F07FF91020FFF7ECFEFEF7C4FBDE
:10399C000020FEF7ADFE00F0A7F800F02DF9002393
:1039AC0000932D201421374A6FF07F43FCF73EFE25
:1039BC000320002100F0E4F90120002100F0E0F9DF
:1039CC000220002100F0DCF90120012102F01EFB95
:1039DC001C2387F82030002387F82130012387F837
:1039EC002230012387F8233007F12003184600F01A
:1039FC0061FE6423BB800023FB8040F60453BB6054
:103A0C000023BB813B1D4FF08040194604F0FAFCAB
:103A1C004FF080400121012205F020FC4FF0804046
:103A2C00012104F055FE18480521052201F000FE85
:103A3C0015480621052201F0FBFD1348072105223C
:103A4C0001F0F6FD11481249012207F085FC0346EE
:103A5C0087F82730FFF718FE0E4B1B78DBB2002BD4
:103A6C000FD0FFF7FBFD0B4B00221A700A4B1B7893
:103A7C00DBB2002B05D0FFF71DFE074B00221A709E
:103A8C00EAE7E9E7BCC5020800000240A4040020F4
:103A9C00C4C50208DD060020DE06002080B483B019
:103AAC0000AF78607A68064B1A6000BF044B1B6845
:103ABC00002BFBD10C37BD465DF8047B704700BF73
:103ACC00D806002080B400AF064B1B68002B04D036
:103ADC00044B1B685A1E034B1A60BD465DF8047BF1
:103AEC00704700BFD806002080B584B000AF4FF0FF
:103AFC008050012102F08AFA0120012102F068FABB
:103B0C00012001F0E9FD4FF4803002F0F1F90120C1
:103B1C0002F014F800BF492002F06EFB0346002BA4
:103B2C00F9D0012002F016FA02F0FEFC304B7F2295
:103B3C005A602F4BFF229A602D4B00221A602C48A2
:103B4C0002F042FC2B4B4022DA702A4B23221A70D3
:103B5C00284B59225A70274B50229A700120254924
:103B6C0002F078FD0E23FB700A237B700423BB70DC
:103B7C0006233B703B460020194602F06DFE4FF4C5
:103B8C00801001F04FFB4FF480137B6000233B72DD
:103B9C0008237B720123BB723B1D184601F06AFAA5
:103BAC0003233B7300237B730023BB730123FB7341
:103BBC0007F10C03184600F07DFD042003F0FAF821
:103BCC00002003F017F94FF48040012103F0D4FCDE
:103BDC004FF48070002103F059F84FF4007000216D
:103BEC0003F054F8012003F029F91037BD4680BDCD
:103BFC00580900206809002080B588B000AF4FF448
:103C0C00003001F00FFB4FF40033BB6100233B7716
:103C1C0008237B770123BB7707F11803184601F0C3
:103C2C0029FA29233B7107237B710023BB710123E4
:103C3C00FB713B1D184600F03DFD4FF08033FB60DF
:103C4C0000233B6101233B7500233B7200237B72F5
:103C5C000023BB7207F1080301204FF480711A4650
:103C6C0002F0EEFE4FF48070FF214FF0A06203F0E3
:103C7C005BF84FF48050012103F07EFC2037BD46E9
:103C8C0080BD00BF80B584B000AF0346FB71FA79EC
:103C9C00104B53F822301846012102F07BF9FA79C7
:103CAC000D4B33F81230BB6001233B730023BB7305
:103CBC000023FB7303237B73FA79084B53F8222000
:103CCC0007F108031046194601F038FB1037BD46C2
:103CDC0080BD00BFCCC50208C8C50208000000208A
:103CEC0080B483B000AF0346FB71FA79064B53F8EE
:103CFC002230F979054A32F811201A830C37BD4667
:103D0C005DF8047B704700BF00000020C8C50208A6
:103D1C0080B483B000AF0346FB71FA79064B53F8BD
:103D2C002230F979054A32F811205A830C37BD46F6
:103D3C005DF8047B704700BF00000020C8C5020876
:103D4C0080B483B000AF0346FB71FA790A4B53F889
:103D5C002230F979084A52F82120928A91B2F879E6
:103D6C00064A32F810204A4092B29A820C37BD466D
:103D7C005DF8047B704700BF00000020C8C5020836
:103D8C0080B588B000AF02460B46FA71BB71FA7968
:103D9C002C4B53F822301846012102F0FBF801207D
:103DAC00012102F015F900233B77FB79002B02D19E
:103DBC000023FB7701E00123FB77FA79224B33F8E0
:103DCC001230BB61FA79214B53F8222007F118030A
:103DDC001046194601F0B2FABB79012B2ED1FA79B3
:103DEC001B4B33F81230DAB2F9791A4B33F8113025
:103DFC00DBB21046194604F095F8FA79164B33F8F5
:103E0C0012303B6100233B750C237B750123BB7582
:103E1C0007F11003184601F02DF9FA790F4B33F81E
:103E2C001230DBB23B7307237B730123BB7301237B
:103E3C00FB7307F10C03184600F03CFC2037BD4621
:103E4C0080BD00BFDCC50208D4C5020808000020F4
:103E5C00F4C50208FCC50208ECC5020804C6020839
:103E6C0080B582B000AF0346FB71FA79074B53F86B
:103E7C002220F979064B33F811301046194601F01F
:103E8C002DFB034618460837BD4680BD08000020B0
:103E9C00D4C5020880B400AFBD465DF8047B704702
:103EAC0080B400AFFEE700BF80B400AFFEE700BFF8
:103EBC0080B400AFFEE700BF80B400AFFEE700BFE8
:103ECC0080B400AFBD465DF8047B704780B400AF92
:103EDC00BD465DF8047B704780B400AFBD465DF80D
:103EEC00047B704780B500AF09F04CFB80BD00BF70
:103EFC0080B500AF4FF4804003F0B6FB0346002BB7
:103F0C000AD04FF4804003F0E7FB4FF4801001F02F
:103F1C0089F9024B01221A7080BD00BFDD0600201A
:103F2C0080B500AF202001F049F80346002B53D098
:103F3C00202001F06DF8294B1B78DBB2002B03D04D
:103F4C000020FFF7CDFE02E00020FFF7E1FE234B3F
:103F5C001B78DBB2002B0CBF00230123DBB283F0F8
:103F6C000103DBB203F00103DAB21C4B1A701C4BD9
:103F7C0000221A601A4B4FF400725A60184B194AFF
:103F8C009A60174B184A1268DA60174B1B6803F5D6
:103F9C000072154B1A60154B1B6803F5833303F540
:103FAC00A073114A126893420CD80020002100F033
:103FBC0087FC0B48002100F067FF09480221002212
:103FCC0000F09AFF064B42F293021A60084B202233
:103FDC005A60084B01221A7080BD00BF18090020DE
:103FEC001C600240107400407C0900207409002001
:103FFC0000600240C80F002080B586B000AF4FF0C3
:10400C008040012105F088F90346002B00F0C9819E
:10401C004FF08040012105F0A9F9A74B1B785B00FC
:10402C00DBB203F00F03DAB2A44B1B8A9BB25B0822
:10403C009BB2DBB203F00103DBB21343DBB2DAB2A7
:10404C009D4B1A709C4B1B78012B40F0B9809C4BFC
:10405C001B78022B04D83B1D0120194602F09AFB59
:10406C00974B1B78022B04D93B460020194602F0D3
:10407C0099FC934B1B78013B042B00F2878001A029
:10408C0050F823F0A5400008E5400008274100083F
:10409C0049410008794100083B79BB75BB7D184646
:1040AC00FFF724FB0346BB75BB7D591C854B83FB7B
:1040BC0001239A10CB17D21A13465B001344DB0072
:1040CC00CA1A1346BB75BB7D1846FFF729FB03467E
:1040DC00BB75BB7D3B715AE07B79FB75FB7D18464C
:1040EC00FFF704FB0346FB75FB7D591C764B81FBEC
:1040FC0003230B445A11CB17D21A13461B019B1ADC
:10410C009B00CA1A1346FB75FB7D1846FFF708FB8C
:10411C000346FB75FB7D7B7139E0FB78BB60BB68AC
:10412C0001336A4AA2FB03025209642101FB02F229
:10413C009B1ABB60BB68DBB2FB7028E07B783B61F1
:10414C003B69591C624BA3FB01239A0813465B0085
:10415C0013449B001344CB1A3B613B69002B01D1E8
:10416C0001233B613B69DBB27B7010E0BB78FB60E9
:10417C00FB68013303F01F03FB60FB68002B01D1CC
:10418C000123FB60FB68DBB2BB7000E000BF4C4B53
:10419C001B78022B04D93B460020194602F05CFB2D
:1041AC00474B1B78012B03D0454B1B78022B07D1B7
:1041BC003B1D0120194602F04DFA464B01221A70A4
:1041CC00454B1B785B00DBB203F00F03DAB23B4BC1
:1041DC001B8A9BB29B089BB2DBB203F00103DBB2E0
:1041EC001343DBB2DAB23C4B1A703B4B1B78012BFE
:1041FC0040F0A880324B1B78022B04D83B1D0120C9
:10420C00194602F0C7FA2E4B1B78022B04D93B46F9
:10421C000020194602F0C6FB294B1B78013B042BEE
:10422C0076D801A050F823F0494200087D420008DE
:10423C00B1420008E9420008054300083B79BB7510
:10424C00BB7D1846FFF752FA0346BB75BB7D002BAE
:10425C0003D0BB7D013BBB7501E01723BB75BB7D58
:10426C001846FFF75DFA0346BB75BB7D3B7150E00A
:10427C007B79FB75FB7D1846FFF738FA0346FB7517
:10428C00FB7D002B03D0FB7D013BFB7501E03B2349
:10429C00FB75FB7D1846FFF743FA0346FB75FB7D68
:1042AC007B7136E0FB78BB60BB68013BBB60BB68D5
:1042BC00DBB2FB702DE000BF1909002000000240AA
:1042CC009C040020ABAAAA2A898888881F85EB51F8
:1042DC004FECC44EDD0600201A0900207B783B61B0
:1042EC003B69013B3B613B69002B01D10C233B61DA
:1042FC003B69DBB27B700CE0BB78FB60FB68022B8C
:10430C0002D9FB68013BFB60FB68DBB2BB7000E0D1
:10431C0000BF254B1B78022B04D93B4600201946C5
:10432C0002F09AFA204B1B78012B03D01E4B1B7802
:10433C00022B07D13B1D0120194602F08BF91B4BB8
:10434C0001221A701A4B1B785B00DBB203F00F03CF
:10435C00DAB2184B1B8A9BB2DB089BB2DBB203F0C0
:10436C000103DBB21343DBB2DAB2114B1A70104B00
:10437C001B78012B15D10C4B1B78591C0E4B83FB56
:10438C000102CB17D21A13465B0013445B00CA1A06
:10439C00D2B2054B1A70044B1B78002B01D1FFF7DE
:1043AC0073F91837BD4680BD9C040020DD06002043
:1043BC001B09002000000240ABAAAA2A80B500AF5E
:1043CC00144B144A126842F480721A60114A114B51
:1043DC009968114B0B4093600E4A0E4B1B6823F0EF
:1043EC00885323F0011313600A4B0A4A126822F413
:1043FC0080221A60074B074A926822F47D029A6069
:10440C00044B0022DA6000F0B5F8044B4FF0006268
:10441C009A6080BD003802400CC0FF8800ED00E0BF
:10442C0080B487B000AF00237B6100233B61002385
:10443C00FB600023BB6000237B60484B9B6803F050
:10444C000C037B617B690C2B64D801A252F823F01E
:10445C009144000821450008214500082145000829
:10446C00B1440008214500082145000821450008F9
:10447C00B9440008214500082145000821450008E1
:10448C00C1440008354B5B6803F460435B0B7B60F5
:10449C007B6801334FF4004202FA03F31A46304BA7
:1044AC001A6047E02E4B2F4A1A6043E02C4B2E4AE1
:1044BC001A603FE0294B9B6803F470133B61274B58
:1044CC009B6803F44003FB603B699B0C274AD35C5D
:1044DC00DBB23B61FB689B0D0133FB601F4B9B68A0
:1044EC0003F48033BB60BB68002B09D13B691D4AC8
:1044FC0002FB03F2FB68B2FBF3F2194B1A6019E0F2
:10450C003B69194A02FB03F2FB68B2FBF3F2144B52
:10451C001A600FE0114B5B6803F460435B0B7B602C
:10452C007B6801334FF4004202FA03F31A460C4B3A
:10453C001A6000BF094B9B6803F0F0031B090C4A7F
:10454C00D35CDBB27B61064B1A687B69DA40044BA7
:10455C001A601C37BD465DF8047B7047003802407A
:10456C00180000200024F40000127A001C00002027
:10457C002800002080B483B000AF00237B600023B0
:10458C003B60404B3F4A126842F001021A603D4BBF
:10459C001B6803F002033B603B68002B03D17B6874
:1045AC00B3F5A06FF3D1374B1B6803F00203002B5C
:1045BC0002D001233B6001E000233B603B68012BF0
:1045CC005AD1314B304A126842F004021A602E4B19
:1045DC002D4A126842F002021A602B4B2A4A1268CA
:1045EC0042F001021A60274B264A526A42F080526E
:1045FC005A62264B4FF400621A6000BF234B5B6873
:10460C0003F01003002BF9D11E4B1E4A92689A60DE
:10461C001C4B1C4A92689A601A4B1A4A92689A6010
:10462C00184B184A926822F47D029A60154B154A71
:10463C00926842F488029A60124B124A126842F055
:10464C0080721A6000BF0F4B1B6803F00073002BC5
:10465C00F9D00C4B0B4A926822F003029A60094B7A
:10466C00084A926842F003029A6000BF054B9B68AF
:10467C0003F00C030C2BF9D10C37BD465DF8047B11
:10468C00704700BF00380240003C02400070004000
:10469C0080B483B000AF7860054A7B6843F0BF6399
:1046AC0043F40033D3600C37BD465DF8047B704790
:1046BC0000ED00E080B485B000AF78600023FB73A0
:1046CC000023BB730F237B737B68DB78002B37D005
:1046DC00254BDB68DB4303F4E0631B0AFB73FB7BBA
:1046EC00C3F10403BB737A7BFB7B42FA03F37B734A
:1046FC007B685B781A46BB7B02FA03F3FB737B681F
:10470C009A787B7B1340DAB2FB7B1343FB73FB7B06
:10471C001B01FB73154A7B681B781344FA7B83F8E7
:10472C000023124B7A6812785209D2B27968097850
:10473C0001F01F01012000FA01F143F822100EE0F4
:10474C000A4B7A6812785209D2B27968097801F06A
:10475C001F01012000FA01F1203243F82210143716
:10476C00BD465DF8047B704700ED00E000E100E021
:10477C0080B483B000AF78603960074A3B6823F09F
:10478C00604323F07F0379680B4393600C37BD467D
:10479C005DF8047B704700BF00ED00E080B483B08F
:1047AC0000AF02460B46FA71BB71BB79002B06D0E9
:1047BC00094B094A1169FA790A431A6106E0064B5A
:1047CC00054A1169FA79D2430A401A610C37BD4681
:1047DC005DF8047B704700BF00ED00E080B483B04F
:1047EC0000AF78607B68042B06D1094B084A12682D
:1047FC0042F004021A6005E0054B054A126822F0EB
:10480C0004021A600C37BD465DF8047B704700BF8C
:10481C0010E000E080B500AF4FF00050012101F036
:10482C004FFC4FF00050002101F04AFC80BD00BF4E
:10483C0080B485B000AF786039600023FB60002342
:10484C00BB60134B1B68FB607B6840F6FE7202FA80
:10485C0003F3DB43FA681340FB603B681A683B6860
:10486C005B681A433B689B681A433B68DB681343DD
:10487C00BB607B68BA6802FA03F3FA681343FB6007
:10488C00034BFA681A601437BD465DF8047B704719
:10489C000074004080B483B000AF78607B68002265
:1048AC001A607B6800225A607B6800229A607B68E1
:1048BC000022DA600C37BD465DF8047B704700BF00
:1048CC0080B483B000AF78600B46FB70FB78002B94
:1048DC0009D00C4B0B4A11687A68012000FA02F2DD
:1048EC000A431A6009E0074B064A11687A680120EE
:1048FC0000FA02F2D2430A401A600C37BD465DF84A
:10490C00047B70470074004080B483B000AF7860C3
:10491C000B46FB70FB78002B0AD00D4B0C4A5168F0
:10492C007A681209012000FA02F20A435A600AE07E
:10493C00074B074A51687A681209012000FA02F203
:10494C00D2430A405A600C37BD465DF8047B704771
:10495C000074004080B483B000AF0346FB71FB7958
:10496C00002B06D0084B084A526842F003025A60EA
:10497C0005E0054B044A526822F003025A600C37DA
:10498C00BD465DF8047B70470074004080B485B070
:10499C0000AFF860B9601346FB71FB79002B09D0AE
:1049AC000C4B0C4A1168FA68B86800FA02F20A4318
:1049BC001A6009E0074B074A1168FA68B86800FAF0
:1049CC0002F2D2430A401A601437BD465DF8047BEC
:1049DC00704700BF0074004080B485B000AF7860B1
:1049EC000B467B800023FB60074BFB60FA687B68FF
:1049FC0013440833FB60FB687A881A601437BD4691
:104A0C005DF8047B704700BF0074004080B485B033
:104A1C0000AF78600B467B800023FB60074BFB608C
:104A2C00FA687B6813441433FB60FB687A881A605D
:104A3C001437BD465DF8047B704700BF007400401E
:104A4C0080B485B000AF786013460A467A803B800C
:104A5C000023FB600023BB607B68082B05D17B889F
:104A6C001A023B881343FB6004E07B881A043B88E2
:104A7C001343FB60074BBB607A68BB68134420335D
:104A8C00BB60BB68FA681A601437BD465DF8047BDE
:104A9C00704700BF0074004080B485B000AF7860F0
:104AAC000023FB60084BFB607B689A08FB6813448F
:104ABC002C33FB60FB681B689BB218461437BD4651
:104ACC005DF8047B704700BF0074004080B483B075
:104ADC0000AF78600B46FB70FB78002B0AD00D4BB7
:104AEC000C4A11687A684FF4805000FA02F20A43BB
:104AFC001A600AE0074B074A11687A684FF4805035
:104B0C0000FA02F2D2430A401A600C37BD465DF837
:104B1C00047B70470074004080B485B000AFF8602F
:104B2C00B9601346FB71FB79002B09D00C4B0C4A76
:104B3C001168FA68B86800FA02F20A431A6009E0D0
:104B4C00074B074A1168FA68B86800FA02F2D243B8
:104B5C000A401A601437BD465DF8047B704700BFED
:104B6C000074004080B485B000AF786039600023D9
:104B7C00FB730A4B5A6B7B68396801FA03F31340D9
:104B8C00002B02D00123FB7301E00023FB73FB7BA2
:104B9C0018461437BD465DF8047B7047007400401E
:104BAC0080B483B000AF78603960054B7A6839689F
:104BBC0001FA02F25A630C37BD465DF8047B70476C
:104BCC000074004080B485B000AF78603960002379
:104BDC00FB730023BB60104B1A687B68396801FAC1
:104BEC0003F31340BB600C4B5A6B7B68396801FABA
:104BFC0003F31340002B05D0BB68002B02D001231C
:104C0C00FB7301E00023FB73FB7B18461437BD4696
:104C1C005DF8047B704700BF0074004080B483B023
:104C2C0000AF78603960054B7A68396801FA02F296
:104C3C005A630C37BD465DF8047B70470074004026
:104C4C0080B483B000AF78607B681A684FF6FE734F
:104C5C0013407A6813607B6800221A607B6800221C
:104C6C005A607B6800229A607B680022DA607A685E
:104C7C00434B9A4206D1434B424A526842F00F02D0
:104C8C005A6077E07A68404B9A4206D13D4B3D4AD8
:104C9C00526842F0F0025A606CE07A683B4B9A42E0
:104CAC0006D1384B374A526842F470625A6061E060
:104CBC007A68374B9A4206D1324B324A526842F4E8
:104CCC0070425A6056E07A68324B9A4206D12D4BAC
:104CDC002C4A526842F470225A604BE07A682E4B90
:104CEC009A4206D1274B274A526842F470025A6006
:104CFC0040E07A68294B9A4206D1224B214A5268ED
:104D0C0042F070625A6035E07A68254B9A4206D1BF
:104D1C00244B244A526842F00F025A602AE07A6807
:104D2C00214B9A4206D11F4B1E4A526842F0F002A8
:104D3C005A601FE07A681D4B9A4206D1194B194AEA
:104D4C00526842F470625A6014E07A68184B9A42C6
:104D5C0006D1144B134A526842F470425A6009E06F
:104D6C007A68144B9A4205D10E4B0E4A526842F4A3
:104D7C0070225A600C37BD465DF8047B704700BF4B
:104D8C0008600240006002401C600240306002403B
:104D9C0044600240586002406C60024080600240F7
:104DAC0008640240006402401C640240306402400B
:104DBC00446402405864024080B485B000AF78600F
:104DCC0039600023FB607B681B68FB60FB6823F485
:104DDC00FF4323F07003FB603B689A683B681B6AD7
:104DEC001A433B681B691A433B685B691A433B686F
:104DFC009B691A433B68DB691A433B685B6A1A433D
:104E0C003B689B6A1343FA681343FB607B68FA6840
:104E1C001A603B68DA687B685A603B681A687B6882
:104E2C009A603B685A687B68DA601437BD465DF857
:104E3C00047B704780B483B000AF78607B6800223D
:104E4C001A607B6800225A607B6800229A607B683B
:104E5C000022DA607B6800221A617B6800225A61AA
:104E6C007B6800229A617B680022DA617B680022F1
:104E7C001A627B6800225A627B6800229A620C37A5
:104E8C00BD465DF8047B704780B483B000AF78609A
:104E9C000B46FB70FB78002B06D07B681B6843F03D
:104EAC0001027B681A6006E07B681A684FF6FE7395
:104EBC0013407A6813600C37BD465DF8047B70476D
:104ECC0080B483B000AF78600B467B807A887B68B7
:104EDC005A600C37BD465DF8047B704780B483B0D4
:104EEC0000AF78607B685B689BB218460C37BD4698
:104EFC005DF8047B704700BF80B485B000AFF860EC
:104F0C00B9601346FB71FB79002B06D0FB681A685D
:104F1C00BB681A43FB681A6006E0FB681A68BB683A
:104F2C00DB431A40FB681A601437BD465DF8047BFE
:104F3C00704700BF80B485B000AF78600023FB736E
:104F4C000023BB607B6803F08053002B03D10C4B18
:104F5C001B68BB6002E00B4B1B68BB60BA687B68CC
:104F6C001340002B02D00123FB7301E00023FB73E1
:104F7C00FB7B18461437BD465DF8047B704700BFB9
:104F8C00006002400064024080B483B000AF7860DF
:104F9C007B6803F08053002B03D1064B7A685A6070
:104FAC0002E0054B7A685A600C37BD465DF8047B0D
:104FBC00704700BF006002400064024080B485B0BE
:104FCC0000AF78600023FB730023BB607B6803F0A9
:104FDC008053002B03D10C4B1B68BB6002E00B4BC6
:104FEC001B68BB60BA687B681340002B02D001239E
:104FFC00FB7301E00023FB73FB7B18461437BD46A3
:10500C005DF8047B704700BF006002400064024002
:10501C0080B483B000AF78607B6803F08053002BC2
:10502C0003D1064B7A685A6002E0054B7A685A60E5
:10503C000C37BD465DF8047B704700BF0060024032
:10504C000064024080B400AF094B00221A60084B88
:10505C0000225A60064B00229A60054B0022DA604F
:10506C00034B6FF07F425A61BD465DF8047B70477D
:10507C000004014080B485B000AF78600023FB6071
:10508C00324BFB607B689B79002B4DD02F4B2F4A0A
:10509C0011687A681268D2430A401A602B4B2B4A6B
:1050AC0051687A681268D2430A405A607B681B794F
:1050BC00FA681344FB60FB68FA6811687A68126836
:1050CC000A431A60214B214A91687A681268D243CC
:1050DC000A409A601D4B1D4AD1687A681268D24307
:1050EC000A40DA607B685B79102B0ED1174B174A9C
:1050FC0091687A6812680A439A60144B134AD16813
:10510C007A6812680A43DA601BE0104BFB607B681C
:10511C005B79FA681344FB60FB68FA6811687A687B
:10512C0012680A431A600CE07B681B79FA68134416
:10513C00FB60FB68FA6811687A681268D2430A400F
:10514C001A601437BD465DF8047B704700040140BB
:10515C0080B483B000AF78607B6800221A607B68F3
:10516C0000221A717B680C225A717B6800229A719A
:10517C000C37BD465DF8047B704700BF80B483B02C
:10518C0000AF7860054B054A11697A680A431A61C9
:10519C000C37BD465DF8047B704700BF000401402E
:1051AC0080B485B000AF78600023FB73084B5A695C
:1051BC007B681340002B02D00123FB7301E000231A
:1051CC00FB73FB7B18461437BD465DF8047B7047B8
:1051DC000004014080B483B000AF7860034B7A6860
:1051EC005A610C37BD465DF8047B704700040140E2
:1051FC0080B485B000AF78600023FB73084B5A690C
:10520C007B681340002B02D00123FB7301E00023C9
:10521C00FB73FB7B18461437BD465DF8047B704767
:10522C000004014080B483B000AF7860034B7A680F
:10523C005A610C37BD465DF8047B70470004014091
:10524C0080B582B000AF78607A68344B9A4208D14E
:10525C000120012100F0F8FE0120002100F0F4FEF5
:10526C0059E07A682E4B9A4208D10220012100F0B5
:10527C00EBFE0220002100F0E7FE4CE07A68294B9F
:10528C009A4208D10420012100F0DEFE0420002106
:10529C0000F0DAFE3FE07A68234B9A4208D10820EE
:1052AC00012100F0D1FE0820002100F0CDFE32E0FB
:1052BC007A681E4B9A4208D11020012100F0C4FEDE
:1052CC001020002100F0C0FE25E07A68184B9A42AD
:1052DC0008D14020012100F0B7FE4020002100F051
:1052EC00B3FE18E07A68134B9A4208D18020012152
:1052FC0000F0AAFE8020002100F0A6FE0BE07A68E8
:10530C000D4B9A4207D12020012100F09DFE202058
:10531C00002100F099FE0837BD4680BD0000024018
:10532C000004024000080240000C02400010024041
:10533C0000180240001C02400014024080B487B0E8
:10534C0000AF7860396000237B6100233B61002350
:10535C00FB6000237B617CE07B69012202FA03F392
:10536C003B613B681A683B691340FB60FA683B6918
:10537C009A426BD17B681A687B695B00032101FA46
:10538C0003F3DB431A407B681A607B681A683B683E
:10539C001B7919467B695B0001FA03F31A437B689E
:1053AC001A603B681B79012B03D03B681B79022BDD
:1053BC0034D17B689A687B695B00032101FA03F3A3
:1053CC00DB431A407B689A607B689A683B685B7920
:1053DC0019467B695B0001FA03F31A437B689A60F8
:1053EC007B689B889AB27B699BB2012101FA03F31B
:1053FC009BB2DB439BB213409AB27B689A807B686A
:10540C009B889AB23B689B7919467B699BB201FADF
:10541C0003F39BB213439AB27B689A807B68DA6879
:10542C007B699BB25B00032101FA03F3DB431A4057
:10543C007B68DA607B68DA683B68DB7919467B69E4
:10544C005B0001FA03F31A437B68DA607B69013372
:10545C007B617B690F2B7FF67FAF1C37BD465DF8F8
:10546C00047B704780B483B000AF78607B684FF6E4
:10547C00FF721A607B6800221A717B6800225A71D5
:10548C007B6800229A717B680022DA710C37BD466A
:10549C005DF8047B704700BF80B485B000AF7860C6
:1054AC000B467B804FF48033FB607A88FB68134398
:1054BC00FB60FA687B68DA617A887B68DA61FA6883
:1054CC007B68DA617B68DB69FB607B68DB69FB60AE
:1054DC001437BD465DF8047B704700BF80B485B0BF
:1054EC0000AF78600B467B800023FB737B681B8AC4
:1054FC009AB27B8813409BB2002B02D00123FB7322
:10550C0001E00023FB73FB7B18461437BD465DF8A6
:10551C00047B704780B483B000AF78607B681B8AD3
:10552C009BB218460C37BD465DF8047B704700BF34
:10553C0080B485B000AF78600B467B800023FB7392
:10554C007B689B8A9AB27B8813409BB2002B02D05B
:10555C000123FB7301E00023FB73FB7B184614371C
:10556C00BD465DF8047B704780B483B000AF7860B3
:10557C007B689B8A9BB218460C37BD465DF8047B52
:10558C00704700BF80B483B000AF78600B467B805F
:10559C007B687A881A830C37BD465DF8047B7047AC
:1055AC0080B483B000AF78600B467B807B687A88D0
:1055BC005A830C37BD465DF8047B704780B483B0CA
:1055CC0000AF786013460A467A807B707B78002B9C
:1055DC0003D07B687A881A8302E07B687A885A83C6
:1055EC000C37BD465DF8047B704700BF80B483B0B8
:1055FC0000AF78600B467B807B687A889A820C3788
:10560C00BD465DF8047B704780B483B000AF786012
:10561C000B467B807B689B8A9AB27B8853409AB2FC
:10562C007B689A820C37BD465DF8047B704700BFDF
:10563C0080B485B000AF786013460A467A807B70E0
:10564C000023FB600023BB607A787B8803F00703A0
:10565C009B0002FA03F3FB607B88DB089BB21A46C3
:10566C007B88DB089BB219467B68083153F8211004
:10567C007B8803F007039B000F2000FA03F3DB4346
:10568C0019407B68083243F822107B88DB089BB2F8
:10569C001A467B68083253F82220FB681343BB6020
:1056AC007B88DB089BB21A467B680832B96843F8E2
:1056BC0022101437BD465DF8047B704780B500AFEF
:1056CC004FF08050012100F0FBFC4FF08050002186
:1056DC0000F0F6FC80BD00BF80B483B000AF034681
:1056EC00FB71044BFA791A600C37BD465DF8047BEC
:1056FC00704700BF20000E4280B485B000AF7860C8
:10570C000023FB60094B1B68FB60FB6823F0E00384
:10571C00FB60FA687B681343FB60044BFA681A6001
:10572C001437BD465DF8047B704700BF0070004025
:10573C0080B483B000AF0346FB71044BFA791A6056
:10574C000C37BD465DF8047B704700BF10000E425D
:10575C0080B485B000AF78600B46FB700023FB6013
:10576C007A68054B1344FB60FB68FA781A601437AF
:10577C00BD465DF8047B7047A0000E4280B483B038
:10578C0000AF0346FB71044BFA791A600C37BD4627
:10579C005DF8047B704700BF28000E4280B483B0D4
:1057AC0000AF0346FB71044BFA791A600C37BD4607
:1057BC005DF8047B704700BF24000E4280B485B0B6
:1057CC0000AF78600023FB600A4B1B68FB60FB6832
:1057DC0023F4C053FB60FA687B681343FB60054BF2
:1057EC00FA6822F00C021A601437BD465DF8047B8F
:1057FC00704700BF0070004080B483B000AF034618
:10580C00FB71FB79002B0CD00E4B0E4A126842F048
:10581C0001021A600B4B0B4A126842F480421A6068
:10582C000BE0084B074A126822F480421A60054BC1
:10583C00044A126822F001021A600C37BD465DF86A
:10584C00047B70470070004080B485B000AF786076
:10585C000B46FB700023FB600F4B1B68FB60FB6867
:10586C0023F00303FB60FA687B681343FB600A4B6D
:10587C00FA681A60094B094A126922F004021A618B
:10588C00FB78012B01D130BF00E020BF1437BD469F
:10589C005DF8047B704700BF0070004000ED00E035
:1058AC0080B485B000AF78600B46FB700023FB60C2
:1058BC00124B1B68FB60FB6823F00303FB60FA6868
:1058CC007B681343FB600D4BFA681A600C4B0C4A57
:1058DC00126942F004021A61FB78012B01D130BF2E
:1058EC0000E020BF064B064A126922F004021A613E
:1058FC001437BD465DF8047B704700BF0070004054
:10590C0000ED00E080B400AF0B4B0B4A126842F084
:10591C0004021A60084B084A126842F002021A602C
:10592C00064B064A126942F004021A6130BFBD46AA
:10593C005DF8047B704700BF0070004000ED00E094
:10594C0080B485B000AF78600023FB73084B5A68B5
:10595C007B681340002B02D00123FB7301E0002372
:10596C00FB73FB7B18461437BD465DF8047B704710
:10597C000070004080B483B000AF7860054B054ADE
:10598C0011687A6892000A431A600C37BD465DF8BC
:10599C00047B70470070004080B400AF134B134A77
:1059AC00126842F480721A60104A104B9968104BBE
:1059BC000B4093600D4A0D4B1B6823F0885323F06A
:1059CC0001131360094B094A126822F480221A60F1
:1059DC00064B064A926822F47D029A60034B002221
:1059EC00DA60BD465DF8047B704700BF00380240AA
:1059FC000CC0FF8880B483B000AF0346FB71054B2D
:105A0C0000221A70034BFA791A700C37BD465DF8F8
:105A1C00047B70470238024080B582B000AF00238F
:105A2C003B600023FB710023BB71312000F0E4FBD1
:105A3C000346BB713B6801333B603B68B3F5A06F19
:105A4C0002D0BB79002BF0D0312000F0D5FB0346FF
:105A5C00002B02D00123FB7101E00023FB71FB79C9
:105A6C0018460837BD4680BD80B483B000AF0346EE
:105A7C00FB71044BFA791A700C37BD465DF8047B48
:105A8C00704700BF0738024080B485B000AF786023
:105A9C000023FB60094B5B68FB60FB6823F46043ED
:105AAC00FB60FA687B681343FB60044BFA685A602E
:105ABC001437BD465DF8047B704700BF00380240C8
:105ACC0080B483B000AF0346FB71044BFA791A60C3
