:020000040800F2
:1000000000400020F50D0008F5020008F702000886
:10001000F9020008FB020008FD02000800000000D1
:10002000000000000000000000000000FF020008C7
:100030000103000800000000030300080503000896
:10004000450E0008450E0008450E0008450E000844
:10005000450E0008450E0008450E0008450E000834
:10006000450E0008450E0008450E0008450E000824
:10007000450E0008450E0008450E0008450E000814
:10008000450E0008450E0008450E0008450E000804
:10009000450E0008450E0008450E0008450E0008F4
:1000A000450E0008450E0008450E0008450E0008E4
:1000B000450E0008450E0008450E0008450E0008D4
:1000C000450E0008450E0008450E0008450E0008C4
:1000D000450E0008450E0008450E0008450E0008B4
:1000E000450E0008450E0008450E0008450E0008A4
:1000F000450E000800000000450E0008450E0008EF
:100100000000000000000000450E0008450E000839
:10011000450E0008450E0008450E0008450E000873
:10012000450E000800000000000000000000000074
:0C01300000000000000000005FF808F173
:10013C0010B5054C237833B9044810B10448AFF31B
:10014C0000800121217010BD70040020000000000F
:10015C003C01000808B5064B1BB106480649AFF335
:10016C0000800648016811B1054A02B1904708BDEC
:10017C00000000003C010008740400207004002002
:10018C000000000082B00190019A034B1A601868BD
:10019C000028FCD102B070478C040020034B1A6875
:1001AC0012B11868411E1960704700BF8C04002002
:1001BC0037B50E4D0446012155F8200005EB4405DA
:1001CC0000F056FC2B8900210093094B01208DF87F
:1001DC0004008DF806108DF80710032253F8240044
:1001EC0069468DF8052000F087FA3EBDA010000886
:1001FC0000000020044B054A53F8201002EB40008D
:10020C0003890B83704700BF00000020A01000087A
:10021C00044B054A53F8201002EB400003894B8332
:10022C00704700BF00000020A0100008054B0649D5
:10023C0053F8203001EB40009A8A01894A4090B271
:10024C009882704700000020A010000870B5054689
:10025C00012086B00E46014600F00AFC0120014642
:10026C0000F012FC1948012206A900EB85030024BA
:10027C0041F8102D98688DF80C408DF80F4000F067
:10028C003BFA012E1FD12046214600F0D9FC0496E2
:10029C008DF814400DB1082100E00C21012404A8B4
:1002AC008DF815108DF8164000F05EF90F2006221F
:1002BC008DF805008DF8060001A88DF804208DF846
:1002CC00074000F0EDF806B070BD00BF0000002044
:1002DC0008B5044B012103EB8000806800F06CFA38
:1002EC0008BD00BF000000207047FEE7FEE7FEE7F8
:1002FC00FEE7704770477047FFF750BF3B4B82B02B
:10030C001A6842F4807018609968394A0A409A60F9
:10031C00186820F0885121F001121A60186820F436
:10032C00802119609A68002122F47D009860D960C0
:10033C00009101911A6842F0010018602B4B19686A
:10034C0001F002020192019818B90099B1F5A06F61
:10035C00F4D11B6813F0020218BF0122019201981C
:10036C00012805D0234B4FF00061996002B0704713
:10037C0021490B6843F004020A60086840F002034C
:10038C000B600A68A1F5806342F001000860596AAD
:10039C001A4841F080524FF400615A620160426881
:1003AC00D106FCD498689860996899609A689A60AC
:1003BC00986820F47D0199609A6842F488009860EE
:1003CC00196841F080721A60084B18688201FBD5DD
:1003DC00996821F003029A60986840F003019960D3
:1003EC009A6802F00C000C28FAD1BBE700380240E6
:1003FC000CC0FF8800ED00E0003C024000700040A3
:10040C001E4A10B591681E4B01F00C010C2920D826
:10041C00DFE801F01F1F1F1F071F1F1F091F1F1FD2
:10042C000B00184A1DE0184A1BE090689468C0F352
:10043C0083401B1818799268C4F381530133D2039B
:10044C0054BF104A104A0E495043B0FBF3F00860F9
:10045C0008E05168C1F34232501C4FF4004101FADC
:10046C0000F21A60054B9868054BC0F303115A183B
:10047C00507B196821FA00F1196010BD0038024058
:10048C000C0000200024F40000127A0040F0BF6041
:10049C00024B40F40031D960704700BF00ED00E022
:1004AC00C37813B31749CB684178DA43C2F30223FC
:1004BC00C3F10402D2B201FA02F1CAB20F2141FA1D
:1004CC0003F381780B401A4303781201D1B203F184
:1004DC00604202F5614383F800130078012200F0BA
:1004EC001F03410902FA03F007E00078012200F033
:1004FC001F03410902FA03F02031034B43F821009A
:10050C00704700BF00ED00E000E100E021F0604129
:10051C0021F07F02014B10439860704700ED00E022
:10052C00044B1A6909B1104301E022EA000018617A
:10053C00704700BF00ED00E0044B04281A680CBFA4
:10054C0042F0040222F004021A60704710E000E04E
:10055C00044B00226FF07F401A605A609A60DA6098
:10056C005861704700040140837910B5002B29D0E5
:10057C001A4B01681C68CA4314401C605C6822401A
:10058C005A60027902F1804404F5823214682143E6
:10059C00116002689C68D1430C409C60DC68407917
:1005AC0021401028D96006D1986810439860D9680A
:1005BC000A43DA6010BD00F1804303F582331968F9
:1005CC000A4308E00179006801F1804202F58233A8
:1005DC001A6822EA00021A6010BD00BF0004014034
:1005EC0000230C2203600371427183717047024B2C
:1005FC001A6910431861704700040140034B596994
:10060C0008420CBF00200120704700BF00040140CD
:10061C00014B5861704700BF00040140034B5969FE
:10062C0008420CBF00200120704700BF00040140AD
:10063C00014B5861704700BF0004014008B5264BC0
:10064C00984205D10120014600F036FA01203DE028
:10065C002249884205D10220012100F02DFA022006
:10066C0034E01F4A904205D10420012100F024FA05
:10067C0004202BE01B4B984205D10820012100F0EF
:10068C001BFA082022E01849884205D110200121CC
:10069C0000F012FA102019E0144A904205D14020C3
:1006AC00012100F009FA402010E0114B984205D1CD
:1006BC008020012100F000FA802007E00D498842DB
:1006CC0009D12020012100F0F7F920200021BDE8FC
:1006DC00084000F0F1B908BD0000024000040240DF
:1006EC0000080240000C02400010024000180240BA
:1006FC00001C0240001402402DE9F0410F68002359
:10070C00012202FA03F202EA0705954233D15A009C
:10071C00032404FA02F40668E443264006600E79CA
:10072C00D0F800C006FA02F8013E48EA0C0C012E83
:10073C00C0F800C016D891F805C086680CFA02FC07
:10074C002640866086684CEA060686608688B6B2C5
:10075C0026EA050585808D79868805FA03F53543EB
:10076C00ADB28580C5682C40CD79C46005FA02F223
:10077C00C4682243C2600133102BC1D1BDE8F081A3
:10078C0000214FF6FF730360017141718171C171DA
:10079C00704782B04FF480330193019A41EA02030F
:1007AC000193019AC261C1610199C161C36901934D
:1007BC00C069019002B07047038A19420CBF002037
:1007CC0001207047008A80B27047838A19420CBF9F
:1007DC00002001207047808A80B2704701837047E7
:1007EC00418370470AB1018370474183704781820E
:1007FC007047838A9AB251408182704701F0070397
:10080C0030B59B000F2404FA03F402FA03F2C90872
:10081C00083150F8215025EA040440F8214050F8E2
:10082C002140144340F8214030BD00BF0C4B1A68E6
:10083C0042F48070186099680A4A0A409A601868F5
:10084C0020F0885121F001121A60186820F48021E0
:10085C0019609A68002122F47D009860D960704775
:10086C00003802400CC0FF88024B00221A7018702E
:10087C00704700BF02380240014B1870704700BF30
:10088C0007380240034B5A6822F460410843586011
:10089C00704700BF00380240014B1860704700BF22
:1008AC0020004742034B5A6822F4F85141EA0020D9
:1008BC005860704700380240014B1860704700BF09
:1008CC0000004742024B00221A701870704700BF9C
:1008DC0035380240014B1860704700BF8006474214
:1008EC000143024B0A431A70704700BF0A3802409A
:1008FC00014B1860704700BF60004742014B186005
:10090C00704700BF70004742014B1860704700BF32
:10091C00AC064742014B0143197070470B3802403B
:10092C00034B9A6822F0030108439860704700BF9C
:10093C0000380240024B986800F00C00704700BF72
:10094C0000380240034B9A6822F0F001084398608B
:10095C00704700BF00380240034B9A6822F4E061F4
:10096C0008439860704700BF00380240034B9A68F8
:10097C0022F4605141EAC000986070470038024090
:10098C00254B10B59A6802F00C040C2C1FD8DFE82C
:10099C0004F01E1E1E1E071E1E1E091E1E1E0B0010
:1009AC001E4C1CE01E4C1AE099681E4C9A68C1F350
:1009BC008341615C9B68C2F38152541CDA0354BFBF
:1009CC00164A174A5143B1FBF4F1016008E05C6828
:1009DC004FF40042C4F34233591C02FA01F4046090
:1009EC000D49104A8B68C3F3031413195C7A03681E
:1009FC0023FA04F343608C68C4F302241419647A58
:100A0C0023FA04F484608968C1F3C2215218517A24
:100A1C0023FA01F3C36010BD003802400024F40037
:100A2C0000127A002C00002000F44032B2F5403F56
:100A3C00084B06D1196800F0C04021F0C0410843B2
:100A4C001860596B21F440305863596B0A435A6350
:100A5C00704700BF00380240014B1860704700BF60
:100A6C00D8064742014B1860704700BFDC0647426E
:100A7C00044BDA6909B1104301E022EA0000D861A5
:100A8C00704700BF00380240044B1A6A09B110438A
:100A9C0001E022EA00001862704700BF00380240F3
:100AAC00044B5A6A09B1104301E022EA0000586273
:100ABC00704700BF00380240044B1A6909B110435B
:100ACC0001E022EA00001861704700BF00380240C4
:100ADC00044B5A6909B1104301E022EA0000586145
:100AEC00704700BF00380240044B9A6909B11043AB
:100AFC0001E022EA00009861704700BF0038024014
:100B0C00044B9A6A09B1104301E022EA0000986292
:100B1C00704700BF00380240044BDA6A09B1104339
:100B2C0001E022EA0000D862704700BF00380240A2
:100B3C00044B1A6B09B1104301E022EA0000186360
:100B4C00704700BF00380240044B1A7809B11043BB
:100B5C0001E022EA00001870704700BF0D38024017
:100B6C0006494309012B0CBF0968496B00F01F00B3
:100B7C0021FA00F202F00100704700BF0038024079
:100B8C0007B5002301933120FFF7EAFF01994A1CB6
:100B9C000192019BB3F5A06F01D00028F3D0312056
:100BAC00FFF7DEFF003018BF01200EBD024B5A6B61
:100BBC0042F080705863704700380240034BD9688C
:100BCC0008420CBF00200120704700BF00380240D3
:100BDC00014B1870704700BF0E38024001200146CF
:100BEC0008B5FFF775FF01200021BDE80840FFF7AD
:100BFC006FBF054B00221A605A609A60DA601A6166
:100C0C005A619A61704700BF047C0040014B186028
:100C1C00704700BF00000140024B186800F44070A0
:100C2C00704700BF00000140044B5A6810B142F0FD
:100C3C00010001E022F00100586070470000014003
:100C4C0001F0030230B592000F2404FA02F400FA0A
:100C5C0002F0074B8908023153F8215025EA0404AD
:100C6C0043F8214053F82140044343F8214030BD60
:100C7C0000000140034B1A6822F44031084318600D
:100C8C00704700BF047C00400F4B1A6840EA020317
:100C9C00420344BF23F00F030B43020344BF23F072
:100CAC00F00343EA0113C20244BF23F4706343EA26
:100CBC000123820248BF23F47043034848BF43EA30
:100CCC0001330360704700BF047C0040044B1A687A
:100CDC0009B1104301E022EA00001860704700BF20
:100CEC00007C0040044B1A6811B122EA000000E0BD
:100CFC0010431860704700BF007C0040C20F0A4BC5
:100D0C0020F0004031B112B15A68104306E09968E6
:100D1C00084307E0C0431AB15A6810405860704746
:100D2C009968084098607047047C0040044B5A68EE
:100D3C0010B142F0004001E022F0004058607047D2
:100D4C00047C00400128274B08D11AB1D86820EA4E
:100D5C00010101E0DA681143D9607047022809D11A
:100D6C0022B1D868C94300EA0141F5E7DA6842EAE2
:100D7C000141F1E7032807D11AB1186920EA0101F2
:100D8C000DE01A6911430AE004280AD122B118694E
:100D9C00C94300EA014102E01A6942EA01411961C2
:100DAC007047052807D11AB1586920EA01010DE0F6
:100DBC005A6911430AE006280AD122B15869C9437D
:100DCC0000EA014102E05A6942EA01415961704767
:100DDC001AB1986920EA010101E09A6911439961FD
:100DEC00704700BF047C0040002100F004B80D4B9C
:100DFC005B58435004310C480C4B42189A42FFF498
:100E0C00F6AF0B4A00F003B8002342F8043B094B41
:100E1C009A42FFF4F9AFFFF771FA00F0E1F800F035
:100E2C000DF87047E8100008000000207004002046
:100E3C007004002094040020FFF7FEBF1FB50020B3
:100E4C00FFF7B6F90120FFF7B3F900200146FFF7D1
:100E5C00FDF96846FFF794FD019B4FF47A72B3FBE2
:100E6C00F2F01D4C1D4A411EF0236160002082F8F7
:100E7C00233007211A4BA060216001241C71002033
:100E8C00FFF726FA0128044611D1FFF7B3F94FF406
:100E9C007A70FFF777F92046FFF7BAF91048027914
:100EAC00511CCBB2032B037101D1002404710C48EB
:100EBC0002790020022A03D1FFF7B8F9642004E07C
:100ECC00012A05D1FFF7B2F9C820FFF75BF9D6E785
:100EDC00FFF79EF9D3E700BF10E000E000ED00E063
:100EEC008C0400202DE9F041274C84B0256807467E
:100EFC00D5F84841002C41D066681F2E1CDD2348D4
:100F0C0010B94FF0FF301FE04FF4C87003910292FC
:100F1C000193AFF3008003990446029A019B0028C9
:100F2C00EFD0D5F84861002060602660C5F84841D4
:100F3C00C4F88801C4F88C01656847B9A81C013550
:100F4C0044F820106560002004B0BDE8F081012059
:100F5C0000FA05F0D4F8886104EB85080643022FEB
:100F6C00C8F88820C4F88861C8F80831E6D1D4F8EC
:100F7C008C3143EA0002C4F88C21DFE705F5A67436
:100F8C00C5F84841B8E700BFC010000800000000D9
:100F9C00114B124A70B5981A831018D0591E02EBD7
:100FAC0083040D4654F8042D01F00106904775B1E9
:100FBC0026B154F8040D8047013D08D054F8043D87
:100FCC009847013D54F8041D8847013DF6D1BDE812
:100FDC00704000F077B800BFE8100008E41000087B
:100FEC00F8B5204F204C381B871017D07A1E236879
:100FFC00012502F001069847AF420FD02EB154F8EC
:10100C00041F02258847AF4208D06068804702352C
:10101C00A268261D90470834AF42F6D1134F144CEA
:10102C0000F04AF83B1B9F1018D07D1E216805F07C
:10103C00010601258847AF4211D02EB154F8040F98
:10104C0002258047AF420BD0626890470235A368F7
:10105C00261D98470834AF42F6D1F8BDF8BDF8BD4F
:10106C00F8BD00BFDC100008DC100008E41000081C
:10107C00DC100008024B13B1024800F005B87047B1
:10108C00000000009D0F00080146002002460346A8
:10109C00FFF728BF0400000004000000000200015C
:1010AC00060000000000010001000000010000002B
:1010BC004300000048000020F8B500BFF8BC08BC95
:1010CC009E467047F8B500BFF8BC08BC9E467047FA
:0810DC00811000086101000809
:0410E4003D010008C2
:1010E8000008024000080240000002400048E801F1
:1010F800030406080C10182030000000000000004F
:10110800000102030406070809000000030406089A
:101118000C10182030000000000102030401020333
:10112800040607080900000000000000340300203E
:101138009C030020040400200000000000000000C0
:101148000000000000000000000000000000000097
:10115800000000000000000000000000BC100008B3
:101168000000000000000000000000000000000077
:101178000000000000000000000000000000000067
:101188000000000000000000000000000000000057
:101198000000000000000000000000000000000047
:1011A8000000000000000000000000000000000037
:1011B8000000000000000000000000000000000027
:1011C8000000000000000000000000000000000017
:1011D80001000000000000000E33CDAB34126DE6B4
:1011E800ECDE05000B00000000000000000000001D
:1011F80000000000000000000000000000000000E7
:1012080000000000000000000000000000000000D6
:1012180000000000000000000000000000000000C6
:1012280000000000000000000000000000000000B6
:0400000508000DF5ED
:00000001FF
